{"contracts/Freelancing.sol":{"Freelancing":{"abi":[{"inputs":[{"internalType":"uint256","name":"_id","type":"uint256"},{"internalType":"string","name":"_bidder","type":"string"},{"internalType":"uint256","name":"_cost","type":"uint256"},{"internalType":"uint256","name":"_time","type":"uint256"},{"internalType":"uint256","name":"_rating","type":"uint256"},{"internalType":"uint256","name":"_pId","type":"uint256"},{"internalType":"string","name":"_desc","type":"string"},{"internalType":"string","name":"_image","type":"string"}],"name":"addBid","outputs":[],"stateMutability":"payable","type":"function"},{"inputs":[{"internalType":"uint256","name":"","type":"uint256"}],"name":"bids","outputs":[{"internalType":"string","name":"desc","type":"string"},{"internalType":"string","name":"image","type":"string"},{"internalType":"string","name":"bidder","type":"string"}],"stateMutability":"view","type":"function"},{"inputs":[{"internalType":"string[12]","name":"strArr","type":"string[12]"},{"internalType":"uint256[3]","name":"intArr","type":"uint256[3]"},{"internalType":"address","name":"_owner","type":"address"},{"internalType":"string[]","name":"skills","type":"string[]"},{"internalType":"string","name":"_category","type":"string"}],"name":"createJob","outputs":[{"internalType":"uint256","name":"","type":"uint256"}],"stateMutability":"payable","type":"function"},{"inputs":[{"internalType":"string[10]","name":"strArr","type":"string[10]"},{"internalType":"address","name":"_developer","type":"address"},{"internalType":"string[]","name":"_skills","type":"string[]"},{"internalType":"string[]","name":"_exp_title","type":"string[]"},{"internalType":"string[]","name":"_exp_desc","type":"string[]"},{"internalType":"uint256[]","name":"_exp_duration","type":"uint256[]"},{"internalType":"string[]","name":"_pro_title","type":"string[]"},{"internalType":"string[]","name":"_pro_desc","type":"string[]"},{"internalType":"string[]","name":"_pro_platform","type":"string[]"}],"name":"createProfile","outputs":[{"internalType":"uint256","name":"","type":"uint256"}],"stateMutability":"payable","type":"function"},{"inputs":[{"internalType":"uint256","name":"","type":"uint256"}],"name":"experiences","outputs":[{"internalType":"uint256","name":"duration","type":"uint256"}],"stateMutability":"view","type":"function"},{"inputs":[{"internalType":"uint256","name":"_id","type":"uint256"},{"internalType":"uint256","name":"id","type":"uint256"},{"internalType":"uint256","name":"_amt","type":"uint256"}],"name":"final_select","outputs":[{"internalType":"uint256","name":"","type":"uint256"}],"stateMutability":"payable","type":"function"},{"inputs":[{"internalType":"uint256","name":"_id","type":"uint256"}],"name":"getAJob","outputs":[{"components":[{"internalType":"string[12]","name":"stringArray","type":"string[12]"},{"internalType":"uint256[3]","name":"intArray","type":"uint256[3]"},{"internalType":"address","name":"owner","type":"address"},{"internalType":"string","name":"category","type":"string"},{"internalType":"string[]","name":"req_skills","type":"string[]"},{"components":[{"internalType":"uint256[4]","name":"bidArray","type":"uint256[4]"},{"internalType":"string","name":"desc","type":"string"},{"internalType":"string","name":"image","type":"string"},{"internalType":"string","name":"bidder","type":"string"}],"internalType":"struct Freelancing.Bidder[]","name":"bidders","type":"tuple[]"},{"internalType":"uint256","name":"final_selection","type":"uint256"},{"internalType":"uint256","name":"final_amount","type":"uint256"},{"internalType":"uint256","name":"pId","type":"uint256"},{"internalType":"uint256","name":"visible","type":"uint256"},{"internalType":"uint256[]","name":"resp","type":"uint256[]"},{"internalType":"string[]","name":"ask","type":"string[]"},{"internalType":"uint256","name":"totalAsks","type":"uint256"},{"internalType":"uint256","name":"finished","type":"uint256"}],"internalType":"struct Freelancing.Job","name":"","type":"tuple"}],"stateMutability":"view","type":"function"},{"inputs":[],"name":"getAllProfiles","outputs":[{"components":[{"internalType":"string[10]","name":"stringArray","type":"string[10]"},{"internalType":"uint256","name":"rating","type":"uint256"},{"internalType":"uint256","name":"pId","type":"uint256"},{"internalType":"address","name":"developer","type":"address"},{"internalType":"string[]","name":"skills","type":"string[]"},{"internalType":"string[]","name":"exp_title","type":"string[]"},{"internalType":"string[]","name":"exp_desc","type":"string[]"},{"internalType":"uint256[]","name":"exp_duration","type":"uint256[]"},{"internalType":"string[]","name":"pro_title","type":"string[]"},{"internalType":"string[]","name":"pro_desc","type":"string[]"},{"internalType":"string[]","name":"pro_platform","type":"string[]"},{"internalType":"uint256","name":"engaged","type":"uint256"}],"internalType":"struct Freelancing.Profile[]","name":"","type":"tuple[]"}],"stateMutability":"view","type":"function"},{"inputs":[],"name":"getBalance","outputs":[{"internalType":"uint256","name":"","type":"uint256"}],"stateMutability":"view","type":"function"},{"inputs":[],"name":"getJobs","outputs":[{"components":[{"internalType":"string[12]","name":"stringArray","type":"string[12]"},{"internalType":"uint256[3]","name":"intArray","type":"uint256[3]"},{"internalType":"address","name":"owner","type":"address"},{"internalType":"string","name":"category","type":"string"},{"internalType":"string[]","name":"req_skills","type":"string[]"},{"components":[{"internalType":"uint256[4]","name":"bidArray","type":"uint256[4]"},{"internalType":"string","name":"desc","type":"string"},{"internalType":"string","name":"image","type":"string"},{"internalType":"string","name":"bidder","type":"string"}],"internalType":"struct Freelancing.Bidder[]","name":"bidders","type":"tuple[]"},{"internalType":"uint256","name":"final_selection","type":"uint256"},{"internalType":"uint256","name":"final_amount","type":"uint256"},{"internalType":"uint256","name":"pId","type":"uint256"},{"internalType":"uint256","name":"visible","type":"uint256"},{"internalType":"uint256[]","name":"resp","type":"uint256[]"},{"internalType":"string[]","name":"ask","type":"string[]"},{"internalType":"uint256","name":"totalAsks","type":"uint256"},{"internalType":"uint256","name":"finished","type":"uint256"}],"internalType":"struct Freelancing.Job[]","name":"","type":"tuple[]"}],"stateMutability":"view","type":"function"},{"inputs":[{"internalType":"uint256","name":"_id","type":"uint256"}],"name":"getProfile","outputs":[{"components":[{"internalType":"string[10]","name":"stringArray","type":"string[10]"},{"internalType":"uint256","name":"rating","type":"uint256"},{"internalType":"uint256","name":"pId","type":"uint256"},{"internalType":"address","name":"developer","type":"address"},{"internalType":"string[]","name":"skills","type":"string[]"},{"internalType":"string[]","name":"exp_title","type":"string[]"},{"internalType":"string[]","name":"exp_desc","type":"string[]"},{"internalType":"uint256[]","name":"exp_duration","type":"uint256[]"},{"internalType":"string[]","name":"pro_title","type":"string[]"},{"internalType":"string[]","name":"pro_desc","type":"string[]"},{"internalType":"string[]","name":"pro_platform","type":"string[]"},{"internalType":"uint256","name":"engaged","type":"uint256"}],"internalType":"struct Freelancing.Profile","name":"","type":"tuple"}],"stateMutability":"view","type":"function"},{"inputs":[{"internalType":"uint256","name":"","type":"uint256"}],"name":"jobs","outputs":[{"internalType":"address","name":"owner","type":"address"},{"internalType":"string","name":"category","type":"string"},{"internalType":"uint256","name":"final_selection","type":"uint256"},{"internalType":"uint256","name":"final_amount","type":"uint256"},{"internalType":"uint256","name":"pId","type":"uint256"},{"internalType":"uint256","name":"visible","type":"uint256"},{"internalType":"uint256","name":"totalAsks","type":"uint256"},{"internalType":"uint256","name":"finished","type":"uint256"}],"stateMutability":"view","type":"function"},{"inputs":[{"internalType":"uint256","name":"_id","type":"uint256"},{"internalType":"string","name":"_ask","type":"string"}],"name":"makeAsk","outputs":[],"stateMutability":"nonpayable","type":"function"},{"inputs":[{"internalType":"uint256","name":"_id","type":"uint256"},{"internalType":"uint256","name":"_resp","type":"uint256"},{"internalType":"address","name":"_add","type":"address"},{"internalType":"uint256","name":"_amt","type":"uint256"}],"name":"makeResponse","outputs":[],"stateMutability":"nonpayable","type":"function"},{"inputs":[],"name":"numberOfBids","outputs":[{"internalType":"uint256","name":"","type":"uint256"}],"stateMutability":"view","type":"function"},{"inputs":[],"name":"numberOfExperiences","outputs":[{"internalType":"uint256","name":"","type":"uint256"}],"stateMutability":"view","type":"function"},{"inputs":[],"name":"numberOfJobs","outputs":[{"internalType":"uint256","name":"","type":"uint256"}],"stateMutability":"view","type":"function"},{"inputs":[],"name":"numberOfProfiles","outputs":[{"internalType":"uint256","name":"","type":"uint256"}],"stateMutability":"view","type":"function"},{"inputs":[],"name":"numberOfProjects","outputs":[{"internalType":"uint256","name":"","type":"uint256"}],"stateMutability":"view","type":"function"},{"inputs":[{"internalType":"uint256","name":"","type":"uint256"}],"name":"profiles","outputs":[{"internalType":"uint256","name":"rating","type":"uint256"},{"internalType":"uint256","name":"pId","type":"uint256"},{"internalType":"address","name":"developer","type":"address"},{"internalType":"uint256","name":"engaged","type":"uint256"}],"stateMutability":"view","type":"function"},{"inputs":[{"internalType":"uint256","name":"","type":"uint256"}],"name":"projects","outputs":[{"internalType":"string","name":"platform","type":"string"}],"stateMutability":"view","type":"function"},{"inputs":[{"internalType":"uint256","name":"_id","type":"uint256"},{"internalType":"uint256","name":"_rating","type":"uint256"}],"name":"rate","outputs":[],"stateMutability":"payable","type":"function"},{"inputs":[{"internalType":"uint256","name":"_id","type":"uint256"},{"internalType":"string[10]","name":"strArr","type":"string[10]"},{"internalType":"address","name":"_developer","type":"address"},{"internalType":"string[]","name":"_skills","type":"string[]"},{"internalType":"string[]","name":"_exp_title","type":"string[]"},{"internalType":"string[]","name":"_exp_desc","type":"string[]"},{"internalType":"uint256[]","name":"_exp_duration","type":"uint256[]"},{"internalType":"string[]","name":"_pro_title","type":"string[]"},{"internalType":"string[]","name":"_pro_desc","type":"string[]"},{"internalType":"string[]","name":"_pro_platform","type":"string[]"}],"name":"updateProfile","outputs":[{"internalType":"uint256","name":"","type":"uint256"}],"stateMutability":"payable","type":"function"}],"evm":{"bytecode":{"linkReferences":{},"object":"60806040526000600155600060035560006005556000600755600060095534801561002957600080fd5b50615b79806200003a6000396000f3fe6080604052600436106101405760003560e01c80639764713b116100b6578063db5e4c7f1161006f578063db5e4c7f14610484578063db65657c146104af578063ddfb31c7146104d8578063e3e8224214610501578063edd25ab414610531578063f08f4f641461056157610140565b80639764713b14610365578063c36fe3d614610381578063ce87ce1f146103c1578063cf3e7c7c146103ec578063d36ec81614610429578063da35b8601461045957610140565b80631b5553b7116101085780631b5553b714610247578063303271701461028457806330607a94146102b457806343bebfbf146102df5780634423c5f1146102fb57806368581ebd1461033a57610140565b80630b1fe78414610145578063107046bd1461017057806312065fe0146101ad57806317d531fc146101d8578063180aedf314610203575b600080fd5b34801561015157600080fd5b5061015a61059e565b6040516101679190614304565b60405180910390f35b34801561017c57600080fd5b5061019760048036038101906101929190614366565b610d0e565b6040516101a491906143dd565b60405180910390f35b3480156101b957600080fd5b506101c2610db4565b6040516101cf919061440e565b60405180910390f35b3480156101e457600080fd5b506101ed610dbc565b6040516101fa919061440e565b60405180910390f35b34801561020f57600080fd5b5061022a60048036038101906102259190614366565b610dc2565b60405161023e989796959493929190614438565b60405180910390f35b34801561025357600080fd5b5061026e60048036038101906102699190614366565b610eb2565b60405161027b91906148ed565b60405180910390f35b61029e60048036038101906102999190614ce8565b611574565b6040516102ab919061440e565b60405180910390f35b3480156102c057600080fd5b506102c9611b86565b6040516102d6919061440e565b60405180910390f35b6102f960048036038101906102f49190614e92565b611b8c565b005b34801561030757600080fd5b50610322600480360381019061031d9190614366565b611bb1565b60405161033193929190614ed2565b60405180910390f35b34801561034657600080fd5b5061034f611d73565b60405161035c9190615133565b60405180910390f35b61037f600480360381019061037a9190615155565b6124ce565b005b34801561038d57600080fd5b506103a860048036038101906103a39190614366565b612687565b6040516103b8949392919061525f565b60405180910390f35b3480156103cd57600080fd5b506103d66126d7565b6040516103e3919061440e565b60405180910390f35b3480156103f857600080fd5b50610413600480360381019061040e9190614366565b6126dd565b604051610420919061440e565b60405180910390f35b610443600480360381019061043e91906152a4565b6126fb565b604051610450919061440e565b60405180910390f35b34801561046557600080fd5b5061046e61275c565b60405161047b919061440e565b60405180910390f35b34801561049057600080fd5b50610499612762565b6040516104a6919061440e565b60405180910390f35b3480156104bb57600080fd5b506104d660048036038101906104d191906152f7565b612768565b005b3480156104e457600080fd5b506104ff60048036038101906104fa9190615353565b6127c2565b005b61051b6004803603810190610516919061553a565b6128cc565b604051610528919061440e565b60405180910390f35b61054b60048036038101906105469190615609565b612e5f565b604051610558919061440e565b60405180910390f35b34801561056d57600080fd5b5061058860048036038101906105839190614366565b613443565b60405161059591906158fd565b60405180910390f35b6060600060095467ffffffffffffffff8111156105be576105bd614914565b5b6040519080825280602002602001820160405280156105f757816020015b6105e4613b1a565b8152602001906001900390816105dc5790505b50905060005b600954811015610d06576000600860008381526020019081526020016000209050806040518061018001604052908160008201600a80602002604051908101604052809291906000905b828210156106ea57838201805461065d9061594e565b80601f01602080910402602001604051908101604052809291908181526020018280546106899061594e565b80156106d65780601f106106ab576101008083540402835291602001916106d6565b820191906000526020600020905b8154815290600101906020018083116106b957829003601f168201915b505050505081526020019060010190610647565b505050508152602001600a8201548152602001600b8201548152602001600c820160009054906101000a900473ffffffffffffffffffffffffffffffffffffffff1673ffffffffffffffffffffffffffffffffffffffff1673ffffffffffffffffffffffffffffffffffffffff168152602001600d8201805480602002602001604051908101604052809291908181526020016000905b8282101561082d5783829060005260206000200180546107a09061594e565b80601f01602080910402602001604051908101604052809291908181526020018280546107cc9061594e565b80156108195780601f106107ee57610100808354040283529160200191610819565b820191906000526020600020905b8154815290600101906020018083116107fc57829003601f168201915b505050505081526020019060010190610781565b505050508152602001600e8201805480602002602001604051908101604052809291908181526020016000905b828210156109065783829060005260206000200180546108799061594e565b80601f01602080910402602001604051908101604052809291908181526020018280546108a59061594e565b80156108f25780601f106108c7576101008083540402835291602001916108f2565b820191906000526020600020905b8154815290600101906020018083116108d557829003601f168201915b50505050508152602001906001019061085a565b505050508152602001600f8201805480602002602001604051908101604052809291908181526020016000905b828210156109df5783829060005260206000200180546109529061594e565b80601f016020809104026020016040519081016040528092919081815260200182805461097e9061594e565b80156109cb5780601f106109a0576101008083540402835291602001916109cb565b820191906000526020600020905b8154815290600101906020018083116109ae57829003601f168201915b505050505081526020019060010190610933565b50505050815260200160108201805480602002602001604051908101604052809291908181526020018280548015610a3657602002820191906000526020600020905b815481526020019060010190808311610a22575b5050505050815260200160118201805480602002602001604051908101604052809291908181526020016000905b82821015610b10578382906000526020600020018054610a839061594e565b80601f0160208091040260200160405190810160405280929190818152602001828054610aaf9061594e565b8015610afc5780601f10610ad157610100808354040283529160200191610afc565b820191906000526020600020905b815481529060010190602001808311610adf57829003601f168201915b505050505081526020019060010190610a64565b50505050815260200160128201805480602002602001604051908101604052809291908181526020016000905b82821015610be9578382906000526020600020018054610b5c9061594e565b80601f0160208091040260200160405190810160405280929190818152602001828054610b889061594e565b8015610bd55780601f10610baa57610100808354040283529160200191610bd5565b820191906000526020600020905b815481529060010190602001808311610bb857829003601f168201915b505050505081526020019060010190610b3d565b50505050815260200160138201805480602002602001604051908101604052809291908181526020016000905b82821015610cc2578382906000526020600020018054610c359061594e565b80601f0160208091040260200160405190810160405280929190818152602001828054610c619061594e565b8015610cae5780601f10610c8357610100808354040283529160200191610cae565b820191906000526020600020905b815481529060010190602001808311610c9157829003601f168201915b505050505081526020019060010190610c16565b505050508152602001601482015481525050838381518110610ce757610ce6615980565b5b6020026020010181905250508080610cfe906159de565b9150506105fd565b508091505090565b6006602052806000526040600020600091509050806002018054610d319061594e565b80601f0160208091040260200160405190810160405280929190818152602001828054610d5d9061594e565b8015610daa5780601f10610d7f57610100808354040283529160200191610daa565b820191906000526020600020905b815481529060010190602001808311610d8d57829003601f168201915b5050505050905081565b600047905090565b60015481565b600260205280600052604060002060009150905080600f0160009054906101000a900473ffffffffffffffffffffffffffffffffffffffff1690806010018054610e0b9061594e565b80601f0160208091040260200160405190810160405280929190818152602001828054610e379061594e565b8015610e845780601f10610e5957610100808354040283529160200191610e84565b820191906000526020600020905b815481529060010190602001808311610e6757829003601f168201915b50505050509080601301549080601401549080601501549080601601549080601901549080601a0154905088565b610eba613b97565b60026000838152602001908152602001600020604051806101c001604052908160008201600c80602002604051908101604052809291906000905b82821015610f98578382018054610f0b9061594e565b80601f0160208091040260200160405190810160405280929190818152602001828054610f379061594e565b8015610f845780601f10610f5957610100808354040283529160200191610f84565b820191906000526020600020905b815481529060010190602001808311610f6757829003601f168201915b505050505081526020019060010190610ef5565b505050508152602001600c8201600380602002604051908101604052809291908260038015610fdc576020028201915b815481526020019060010190808311610fc8575b50505050508152602001600f820160009054906101000a900473ffffffffffffffffffffffffffffffffffffffff1673ffffffffffffffffffffffffffffffffffffffff1673ffffffffffffffffffffffffffffffffffffffff16815260200160108201805461104b9061594e565b80601f01602080910402602001604051908101604052809291908181526020018280546110779061594e565b80156110c45780601f10611099576101008083540402835291602001916110c4565b820191906000526020600020905b8154815290600101906020018083116110a757829003601f168201915b5050505050815260200160118201805480602002602001604051908101604052809291908181526020016000905b8282101561119e5783829060005260206000200180546111119061594e565b80601f016020809104026020016040519081016040528092919081815260200182805461113d9061594e565b801561118a5780601f1061115f5761010080835404028352916020019161118a565b820191906000526020600020905b81548152906001019060200180831161116d57829003601f168201915b5050505050815260200190600101906110f2565b50505050815260200160128201805480602002602001604051908101604052809291908181526020016000905b828210156113f857838290600052602060002090600702016040518060800160405290816000820160048060200260405190810160405280929190826004801561122a576020028201915b815481526020019060010190808311611216575b505050505081526020016004820180546112439061594e565b80601f016020809104026020016040519081016040528092919081815260200182805461126f9061594e565b80156112bc5780601f10611291576101008083540402835291602001916112bc565b820191906000526020600020905b81548152906001019060200180831161129f57829003601f168201915b505050505081526020016005820180546112d59061594e565b80601f01602080910402602001604051908101604052809291908181526020018280546113019061594e565b801561134e5780601f106113235761010080835404028352916020019161134e565b820191906000526020600020905b81548152906001019060200180831161133157829003601f168201915b505050505081526020016006820180546113679061594e565b80601f01602080910402602001604051908101604052809291908181526020018280546113939061594e565b80156113e05780601f106113b5576101008083540402835291602001916113e0565b820191906000526020600020905b8154815290600101906020018083116113c357829003601f168201915b505050505081525050815260200190600101906111cb565b505050508152602001601382015481526020016014820154815260200160158201548152602001601682015481526020016017820180548060200260200160405190810160405280929190818152602001828054801561147757602002820191906000526020600020905b815481526020019060010190808311611463575b5050505050815260200160188201805480602002602001604051908101604052809291908181526020016000905b828210156115515783829060005260206000200180546114c49061594e565b80601f01602080910402602001604051908101604052809291908181526020018280546114f09061594e565b801561153d5780601f106115125761010080835404028352916020019161153d565b820191906000526020600020905b81548152906001019060200180831161152057829003601f168201915b5050505050815260200190600101906114a5565b50505050815260200160198201548152602001601a820154815250509050919050565b60008060086000600954815260200190815260200160002090508a6000600a81106115a2576115a1615980565b5b6020020151816000016000600a81106115be576115bd615980565b5b0190805190602001906115d2929190613c28565b508a6001600a81106115e7576115e6615980565b5b6020020151816000016001600a811061160357611602615980565b5b019080519060200190611617929190613c28565b508a6002600a811061162c5761162b615980565b5b6020020151816000016002600a811061164857611647615980565b5b01908051906020019061165c929190613c28565b508a6003600a811061167157611670615980565b5b6020020151816000016003600a811061168d5761168c615980565b5b0190805190602001906116a1929190613c28565b508a6004600a81106116b6576116b5615980565b5b6020020151816000016004600a81106116d2576116d1615980565b5b0190805190602001906116e6929190613c28565b508a6005600a81106116fb576116fa615980565b5b6020020151816000016005600a811061171757611716615980565b5b01908051906020019061172b929190613c28565b508a6006600a81106117405761173f615980565b5b6020020151816000016006600a811061175c5761175b615980565b5b019080519060200190611770929190613c28565b508a6007600a811061178557611784615980565b5b6020020151816000016007600a81106117a1576117a0615980565b5b0190805190602001906117b5929190613c28565b508a6008600a81106117ca576117c9615980565b5b6020020151816000016008600a81106117e6576117e5615980565b5b0190805190602001906117fa929190613c28565b508a6009600a811061180f5761180e615980565b5b6020020151816000016009600a811061182b5761182a615980565b5b01908051906020019061183f929190613c28565b5060095481600b01819055506000816014018190555060005b89518110156118cc5781600d018a828151811061187857611877615980565b5b60200260200101519080600181540180825580915050600190039060005260206000200160009091909190915090805190602001906118b8929190613c28565b5080806118c4906159de565b915050611858565b5060005b88518110156119e25781600e018982815181106118f0576118ef615980565b5b6020026020010151908060018154018082558091505060019003906000526020600020016000909190919091509080519060200190611930929190613c28565b508160100187828151811061194857611947615980565b5b6020026020010151908060018154018082558091505060019003906000526020600020016000909190919091505581600f0188828151811061198d5761198c615980565b5b60200260200101519080600181540180825580915050600190039060005260206000200160009091909190915090805190602001906119cd929190613c28565b506001816119db9190615a27565b90506118d0565b5060005b8551811015611b0b5781601101868281518110611a0657611a05615980565b5b6020026020010151908060018154018082558091505060019003906000526020600020016000909190919091509080519060200190611a46929190613c28565b5081601201858281518110611a5e57611a5d615980565b5b6020026020010151908060018154018082558091505060019003906000526020600020016000909190919091509080519060200190611a9e929190613c28565b5081601301848281518110611ab657611ab5615980565b5b6020026020010151908060018154018082558091505060019003906000526020600020016000909190919091509080519060200190611af6929190613c28565b50600181611b049190615a27565b90506119e6565b508981600c0160006101000a81548173ffffffffffffffffffffffffffffffffffffffff021916908373ffffffffffffffffffffffffffffffffffffffff16021790555060096000815480929190611b62906159de565b91905055506001600954611b769190615a7d565b9150509998505050505050505050565b60095481565b60006008600084815260200190815260200160002090508181600a0181905550505050565b6000602052806000526040600020600091509050806004018054611bd49061594e565b80601f0160208091040260200160405190810160405280929190818152602001828054611c009061594e565b8015611c4d5780601f10611c2257610100808354040283529160200191611c4d565b820191906000526020600020905b815481529060010190602001808311611c3057829003601f168201915b505050505090806005018054611c629061594e565b80601f0160208091040260200160405190810160405280929190818152602001828054611c8e9061594e565b8015611cdb5780601f10611cb057610100808354040283529160200191611cdb565b820191906000526020600020905b815481529060010190602001808311611cbe57829003601f168201915b505050505090806006018054611cf09061594e565b80601f0160208091040260200160405190810160405280929190818152602001828054611d1c9061594e565b8015611d695780601f10611d3e57610100808354040283529160200191611d69565b820191906000526020600020905b815481529060010190602001808311611d4c57829003601f168201915b5050505050905083565b6060600060035467ffffffffffffffff811115611d9357611d92614914565b5b604051908082528060200260200182016040528015611dcc57816020015b611db9613b97565b815260200190600190039081611db15790505b50905060005b6003548110156124c657600060026000838152602001908152602001600020905080604051806101c001604052908160008201600c80602002604051908101604052809291906000905b82821015611ebf578382018054611e329061594e565b80601f0160208091040260200160405190810160405280929190818152602001828054611e5e9061594e565b8015611eab5780601f10611e8057610100808354040283529160200191611eab565b820191906000526020600020905b815481529060010190602001808311611e8e57829003601f168201915b505050505081526020019060010190611e1c565b505050508152602001600c8201600380602002604051908101604052809291908260038015611f03576020028201915b815481526020019060010190808311611eef575b50505050508152602001600f820160009054906101000a900473ffffffffffffffffffffffffffffffffffffffff1673ffffffffffffffffffffffffffffffffffffffff1673ffffffffffffffffffffffffffffffffffffffff168152602001601082018054611f729061594e565b80601f0160208091040260200160405190810160405280929190818152602001828054611f9e9061594e565b8015611feb5780601f10611fc057610100808354040283529160200191611feb565b820191906000526020600020905b815481529060010190602001808311611fce57829003601f168201915b5050505050815260200160118201805480602002602001604051908101604052809291908181526020016000905b828210156120c55783829060005260206000200180546120389061594e565b80601f01602080910402602001604051908101604052809291908181526020018280546120649061594e565b80156120b15780601f10612086576101008083540402835291602001916120b1565b820191906000526020600020905b81548152906001019060200180831161209457829003601f168201915b505050505081526020019060010190612019565b50505050815260200160128201805480602002602001604051908101604052809291908181526020016000905b8282101561231f578382906000526020600020906007020160405180608001604052908160008201600480602002604051908101604052809291908260048015612151576020028201915b81548152602001906001019080831161213d575b5050505050815260200160048201805461216a9061594e565b80601f01602080910402602001604051908101604052809291908181526020018280546121969061594e565b80156121e35780601f106121b8576101008083540402835291602001916121e3565b820191906000526020600020905b8154815290600101906020018083116121c657829003601f168201915b505050505081526020016005820180546121fc9061594e565b80601f01602080910402602001604051908101604052809291908181526020018280546122289061594e565b80156122755780601f1061224a57610100808354040283529160200191612275565b820191906000526020600020905b81548152906001019060200180831161225857829003601f168201915b5050505050815260200160068201805461228e9061594e565b80601f01602080910402602001604051908101604052809291908181526020018280546122ba9061594e565b80156123075780601f106122dc57610100808354040283529160200191612307565b820191906000526020600020905b8154815290600101906020018083116122ea57829003601f168201915b505050505081525050815260200190600101906120f2565b505050508152602001601382015481526020016014820154815260200160158201548152602001601682015481526020016017820180548060200260200160405190810160405280929190818152602001828054801561239e57602002820191906000526020600020905b81548152602001906001019080831161238a575b5050505050815260200160188201805480602002602001604051908101604052809291908181526020016000905b828210156124785783829060005260206000200180546123eb9061594e565b80601f01602080910402602001604051908101604052809291908181526020018280546124179061594e565b80156124645780601f1061243957610100808354040283529160200191612464565b820191906000526020600020905b81548152906001019060200180831161244757829003601f168201915b5050505050815260200190600101906123cc565b50505050815260200160198201548152602001601a820154815250508383815181106124a7576124a6615980565b5b60200260200101819052505080806124be906159de565b915050611dd2565b508091505090565b60008060006001548152602001908152602001600020905086816000016000600481106124fe576124fd615980565b5b0181905550858160000160016004811061251b5761251a615980565b5b0181905550848160000160026004811061253857612537615980565b5b0181905550838160000160036004811061255557612554615980565b5b018190555082816004019080519060200190612572929190613c28565b508181600501908051906020019061258b929190613c28565b50878160060190805190602001906125a4929190613c28565b506000600260008b81526020019081526020016000209050806012018290806001815401808255809150506001900390600052602060002090600702016000909190919091506000820181600001906004612600929190613cae565b5060048201816004019080546126159061594e565b612620929190613ceb565b5060058201816005019080546126359061594e565b612640929190613ceb565b5060068201816006019080546126559061594e565b612660929190613ceb565b50505060016000815480929190612676906159de565b919050555050505050505050505050565b600860205280600052604060002060009150905080600a01549080600b01549080600c0160009054906101000a900473ffffffffffffffffffffffffffffffffffffffff16908060140154905084565b60035481565b60046020528060005260406000206000915090508060020154905081565b6000806002600086815260200190815260200160002090506000600860008681526020019081526020016000209050848260130181905550600082601601819055508382601401819055506001816014018190555085925050509392505050565b60055481565b60075481565b600060026000848152602001908152602001600020905080601801829080600181540180825580915050600190039060005260206000200160009091909190915090805190602001906127bc929190613c28565b50505050565b60006002600086815260200190815260200160002090506000600860008360130154815260200190815260200160002090506001851415612877578373ffffffffffffffffffffffffffffffffffffffff166108fc849081150290604051600060405180830381858888f19350505050158015612843573d6000803e3d6000fd5b50816019016000815480929190612859906159de565b919050555082826014015461286e9190615a7d565b82601401819055505b6004826019015414156128995760008160140181905550600182601a01819055505b81601701859080600181540180825580915050600190039060005260206000200160009091909190915055505050505050565b60008060026000600354815260200190815260200160002090504281600c016000600381106128fe576128fd615980565b5b015410612940576040517f08c379a000000000000000000000000000000000000000000000000000000000815260040161293790615b23565b60405180910390fd5b8560006003811061295457612953615980565b5b602002015181600c016000600381106129705761296f615980565b5b01819055508560016003811061298957612988615980565b5b602002015181600c016001600381106129a5576129a4615980565b5b0181905550856002600381106129be576129bd615980565b5b602002015181600c016002600381106129da576129d9615980565b5b0181905550866000600c81106129f3576129f2615980565b5b6020020151816000016000600c8110612a0f57612a0e615980565b5b019080519060200190612a23929190613c28565b50866001600c8110612a3857612a37615980565b5b6020020151816000016001600c8110612a5457612a53615980565b5b019080519060200190612a68929190613c28565b50866002600c8110612a7d57612a7c615980565b5b6020020151816000016002600c8110612a9957612a98615980565b5b019080519060200190612aad929190613c28565b50866003600c8110612ac257612ac1615980565b5b6020020151816000016003600c8110612ade57612add615980565b5b019080519060200190612af2929190613c28565b50866004600c8110612b0757612b06615980565b5b6020020151816000016004600c8110612b2357612b22615980565b5b019080519060200190612b37929190613c28565b50866005600c8110612b4c57612b4b615980565b5b6020020151816000016005600c8110612b6857612b67615980565b5b019080519060200190612b7c929190613c28565b50866006600c8110612b9157612b90615980565b5b6020020151816000016006600c8110612bad57612bac615980565b5b019080519060200190612bc1929190613c28565b50866007600c8110612bd657612bd5615980565b5b6020020151816000016007600c8110612bf257612bf1615980565b5b019080519060200190612c06929190613c28565b50866008600c8110612c1b57612c1a615980565b5b6020020151816000016008600c8110612c3757612c36615980565b5b019080519060200190612c4b929190613c28565b50866009600c8110612c6057612c5f615980565b5b6020020151816000016009600c8110612c7c57612c7b615980565b5b019080519060200190612c90929190613c28565b5086600a600c8110612ca557612ca4615980565b5b602002015181600001600a600c8110612cc157612cc0615980565b5b019080519060200190612cd5929190613c28565b5086600b600c8110612cea57612ce9615980565b5b602002015181600001600b600c8110612d0657612d05615980565b5b019080519060200190612d1a929190613c28565b5082816010019080519060200190612d33929190613c28565b50600081601901819055506000816014018190555060018160160181905550600081601a018190555060005b8451811015612dd35781601101858281518110612d7f57612d7e615980565b5b6020026020010151908060018154018082558091505060019003906000526020600020016000909190919091509080519060200190612dbf929190613c28565b508080612dcb906159de565b915050612d5f565b50600081601301819055508481600f0160006101000a81548173ffffffffffffffffffffffffffffffffffffffff021916908373ffffffffffffffffffffffffffffffffffffffff160217905550600354816015018190555060036000815480929190612e3f906159de565b91905055506001600354612e539190615a7d565b91505095945050505050565b600080600860008d815260200190815260200160002090508a6000600a8110612e8b57612e8a615980565b5b6020020151816000016000600a8110612ea757612ea6615980565b5b019080519060200190612ebb929190613c28565b508a6001600a8110612ed057612ecf615980565b5b6020020151816000016001600a8110612eec57612eeb615980565b5b019080519060200190612f00929190613c28565b508a6002600a8110612f1557612f14615980565b5b6020020151816000016002600a8110612f3157612f30615980565b5b019080519060200190612f45929190613c28565b508a6003600a8110612f5a57612f59615980565b5b6020020151816000016003600a8110612f7657612f75615980565b5b019080519060200190612f8a929190613c28565b508a6004600a8110612f9f57612f9e615980565b5b6020020151816000016004600a8110612fbb57612fba615980565b5b019080519060200190612fcf929190613c28565b508a6005600a8110612fe457612fe3615980565b5b6020020151816000016005600a811061300057612fff615980565b5b019080519060200190613014929190613c28565b508a6006600a811061302957613028615980565b5b6020020151816000016006600a811061304557613044615980565b5b019080519060200190613059929190613c28565b508a6007600a811061306e5761306d615980565b5b6020020151816000016007600a811061308a57613089615980565b5b01908051906020019061309e929190613c28565b508a6008600a81106130b3576130b2615980565b5b6020020151816000016008600a81106130cf576130ce615980565b5b0190805190602001906130e3929190613c28565b508a6009600a81106130f8576130f7615980565b5b6020020151816000016009600a811061311457613113615980565b5b019080519060200190613128929190613c28565b5060005b89518110156131a05781600d018a828151811061314c5761314b615980565b5b602002602001015190806001815401808255809150506001900390600052602060002001600090919091909150908051906020019061318c929190613c28565b508080613198906159de565b91505061312c565b5060005b88518110156132b65781600e018982815181106131c4576131c3615980565b5b6020026020010151908060018154018082558091505060019003906000526020600020016000909190919091509080519060200190613204929190613c28565b508160100187828151811061321c5761321b615980565b5b6020026020010151908060018154018082558091505060019003906000526020600020016000909190919091505581600f0188828151811061326157613260615980565b5b60200260200101519080600181540180825580915050600190039060005260206000200160009091909190915090805190602001906132a1929190613c28565b506001816132af9190615a27565b90506131a4565b5060005b85518110156133df57816011018682815181106132da576132d9615980565b5b602002602001015190806001815401808255809150506001900390600052602060002001600090919091909150908051906020019061331a929190613c28565b508160120185828151811061333257613331615980565b5b6020026020010151908060018154018082558091505060019003906000526020600020016000909190919091509080519060200190613372929190613c28565b508160130184828151811061338a57613389615980565b5b60200260200101519080600181540180825580915050600190039060005260206000200160009091909190915090805190602001906133ca929190613c28565b506001816133d89190615a27565b90506132ba565b508981600c0160006101000a81548173ffffffffffffffffffffffffffffffffffffffff021916908373ffffffffffffffffffffffffffffffffffffffff16021790555060016009546134329190615a7d565b9150509a9950505050505050505050565b61344b613b1a565b600860008381526020019081526020016000206040518061018001604052908160008201600a80602002604051908101604052809291906000905b8282101561352957838201805461349c9061594e565b80601f01602080910402602001604051908101604052809291908181526020018280546134c89061594e565b80156135155780601f106134ea57610100808354040283529160200191613515565b820191906000526020600020905b8154815290600101906020018083116134f857829003601f168201915b505050505081526020019060010190613486565b505050508152602001600a8201548152602001600b8201548152602001600c820160009054906101000a900473ffffffffffffffffffffffffffffffffffffffff1673ffffffffffffffffffffffffffffffffffffffff1673ffffffffffffffffffffffffffffffffffffffff168152602001600d8201805480602002602001604051908101604052809291908181526020016000905b8282101561366c5783829060005260206000200180546135df9061594e565b80601f016020809104026020016040519081016040528092919081815260200182805461360b9061594e565b80156136585780601f1061362d57610100808354040283529160200191613658565b820191906000526020600020905b81548152906001019060200180831161363b57829003601f168201915b5050505050815260200190600101906135c0565b505050508152602001600e8201805480602002602001604051908101604052809291908181526020016000905b828210156137455783829060005260206000200180546136b89061594e565b80601f01602080910402602001604051908101604052809291908181526020018280546136e49061594e565b80156137315780601f1061370657610100808354040283529160200191613731565b820191906000526020600020905b81548152906001019060200180831161371457829003601f168201915b505050505081526020019060010190613699565b505050508152602001600f8201805480602002602001604051908101604052809291908181526020016000905b8282101561381e5783829060005260206000200180546137919061594e565b80601f01602080910402602001604051908101604052809291908181526020018280546137bd9061594e565b801561380a5780601f106137df5761010080835404028352916020019161380a565b820191906000526020600020905b8154815290600101906020018083116137ed57829003601f168201915b505050505081526020019060010190613772565b5050505081526020016010820180548060200260200160405190810160405280929190818152602001828054801561387557602002820191906000526020600020905b815481526020019060010190808311613861575b5050505050815260200160118201805480602002602001604051908101604052809291908181526020016000905b8282101561394f5783829060005260206000200180546138c29061594e565b80601f01602080910402602001604051908101604052809291908181526020018280546138ee9061594e565b801561393b5780601f106139105761010080835404028352916020019161393b565b820191906000526020600020905b81548152906001019060200180831161391e57829003601f168201915b5050505050815260200190600101906138a3565b50505050815260200160128201805480602002602001604051908101604052809291908181526020016000905b82821015613a2857838290600052602060002001805461399b9061594e565b80601f01602080910402602001604051908101604052809291908181526020018280546139c79061594e565b8015613a145780601f106139e957610100808354040283529160200191613a14565b820191906000526020600020905b8154815290600101906020018083116139f757829003601f168201915b50505050508152602001906001019061397c565b50505050815260200160138201805480602002602001604051908101604052809291908181526020016000905b82821015613b01578382906000526020600020018054613a749061594e565b80601f0160208091040260200160405190810160405280929190818152602001828054613aa09061594e565b8015613aed5780601f10613ac257610100808354040283529160200191613aed565b820191906000526020600020905b815481529060010190602001808311613ad057829003601f168201915b505050505081526020019060010190613a55565b5050505081526020016014820154815250509050919050565b604051806101800160405280613b2e613d78565b81526020016000815260200160008152602001600073ffffffffffffffffffffffffffffffffffffffff16815260200160608152602001606081526020016060815260200160608152602001606081526020016060815260200160608152602001600081525090565b604051806101c00160405280613bab613da0565b8152602001613bb8613dc8565b8152602001600073ffffffffffffffffffffffffffffffffffffffff16815260200160608152602001606081526020016060815260200160008152602001600081526020016000815260200160008152602001606081526020016060815260200160008152602001600081525090565b828054613c349061594e565b90600052602060002090601f016020900481019282613c565760008555613c9d565b82601f10613c6f57805160ff1916838001178555613c9d565b82800160010185558215613c9d579182015b82811115613c9c578251825591602001919060010190613c81565b5b509050613caa9190613dea565b5090565b8260048101928215613cda579182015b82811115613cd9578254825591600101919060010190613cbe565b5b509050613ce79190613dea565b5090565b828054613cf79061594e565b90600052602060002090601f016020900481019282613d195760008555613d67565b82601f10613d2a5780548555613d67565b82800160010185558215613d6757600052602060002091601f016020900482015b82811115613d66578254825591600101919060010190613d4b565b5b509050613d749190613dea565b5090565b604051806101400160405280600a905b6060815260200190600190039081613d885790505090565b604051806101800160405280600c905b6060815260200190600190039081613db05790505090565b6040518060600160405280600390602082028036833780820191505090505090565b5b80821115613e03576000816000905550600101613deb565b5090565b600081519050919050565b600082825260208201905092915050565b6000819050602082019050919050565b6000600a9050919050565b600081905092915050565b6000819050919050565b600081519050919050565b600082825260208201905092915050565b60005b83811015613e8d578082015181840152602081019050613e72565b83811115613e9c576000848401525b50505050565b6000601f19601f8301169050919050565b6000613ebe82613e53565b613ec88185613e5e565b9350613ed8818560208601613e6f565b613ee181613ea2565b840191505092915050565b6000613ef88383613eb3565b905092915050565b6000602082019050919050565b6000613f1882613e33565b613f228185613e3e565b935083602082028501613f3485613e49565b8060005b85811015613f705784840389528151613f518582613eec565b9450613f5c83613f00565b925060208a01995050600181019050613f38565b50829750879550505050505092915050565b6000819050919050565b613f9581613f82565b82525050565b600073ffffffffffffffffffffffffffffffffffffffff82169050919050565b6000613fc682613f9b565b9050919050565b613fd681613fbb565b82525050565b600081519050919050565b600082825260208201905092915050565b6000819050602082019050919050565b6000602082019050919050565b600061402082613fdc565b61402a8185613fe7565b93508360208202850161403c85613ff8565b8060005b8581101561407857848403895281516140598582613eec565b945061406483614008565b925060208a01995050600181019050614040565b50829750879550505050505092915050565b600081519050919050565b600082825260208201905092915050565b6000819050602082019050919050565b60006140c28383613f8c565b60208301905092915050565b6000602082019050919050565b60006140e68261408a565b6140f08185614095565b93506140fb836140a6565b8060005b8381101561412c57815161411388826140b6565b975061411e836140ce565b9250506001810190506140ff565b5085935050505092915050565b60006101808301600083015184820360008601526141578282613f0d565b915050602083015161416c6020860182613f8c565b50604083015161417f6040860182613f8c565b5060608301516141926060860182613fcd565b50608083015184820360808601526141aa8282614015565b91505060a083015184820360a08601526141c48282614015565b91505060c083015184820360c08601526141de8282614015565b91505060e083015184820360e08601526141f882826140db565b9150506101008301518482036101008601526142148282614015565b9150506101208301518482036101208601526142308282614015565b91505061014083015184820361014086015261424c8282614015565b915050610160830151614263610160860182613f8c565b508091505092915050565b600061427a8383614139565b905092915050565b6000602082019050919050565b600061429a82613e07565b6142a48185613e12565b9350836020820285016142b685613e23565b8060005b858110156142f257848403895281516142d3858261426e565b94506142de83614282565b925060208a019950506001810190506142ba565b50829750879550505050505092915050565b6000602082019050818103600083015261431e818461428f565b905092915050565b6000604051905090565b600080fd5b600080fd5b61434381613f82565b811461434e57600080fd5b50565b6000813590506143608161433a565b92915050565b60006020828403121561437c5761437b614330565b5b600061438a84828501614351565b91505092915050565b600082825260208201905092915050565b60006143af82613e53565b6143b98185614393565b93506143c9818560208601613e6f565b6143d281613ea2565b840191505092915050565b600060208201905081810360008301526143f781846143a4565b905092915050565b61440881613f82565b82525050565b600060208201905061442360008301846143ff565b92915050565b61443281613fbb565b82525050565b60006101008201905061444e600083018b614429565b8181036020830152614460818a6143a4565b905061446f60408301896143ff565b61447c60608301886143ff565b61448960808301876143ff565b61449660a08301866143ff565b6144a360c08301856143ff565b6144b060e08301846143ff565b9998505050505050505050565b6000600c9050919050565b600081905092915050565b6000819050919050565b6000602082019050919050565b60006144f5826144bd565b6144ff81856144c8565b935083602082028501614511856144d3565b8060005b8581101561454d578484038952815161452e8582613eec565b9450614539836144dd565b925060208a01995050600181019050614515565b50829750879550505050505092915050565b600060039050919050565b600081905092915050565b6000819050919050565b6000602082019050919050565b6145958161455f565b61459f818461456a565b92506145aa82614575565b8060005b838110156145db5781516145c287826140b6565b96506145cd8361457f565b9250506001810190506145ae565b505050505050565b600081519050919050565b600082825260208201905092915050565b6000819050602082019050919050565b600060049050919050565b600081905092915050565b6000819050919050565b6000602082019050919050565b6146458161460f565b61464f818461461a565b925061465a82614625565b8060005b8381101561468b57815161467287826140b6565b965061467d8361462f565b92505060018101905061465e565b505050505050565b600060e0830160008301516146ab600086018261463c565b50602083015184820360808601526146c38282613eb3565b915050604083015184820360a08601526146dd8282613eb3565b915050606083015184820360c08601526146f78282613eb3565b9150508091505092915050565b60006147108383614693565b905092915050565b6000602082019050919050565b6000614730826145e3565b61473a81856145ee565b93508360208202850161474c856145ff565b8060005b8581101561478857848403895281516147698582614704565b945061477483614718565b925060208a01995050600181019050614750565b50829750879550505050505092915050565b60006102008301600083015184820360008601526147b882826144ea565b91505060208301516147cd602086018261458c565b5060408301516147e06080860182613fcd565b50606083015184820360a08601526147f88282613eb3565b915050608083015184820360c08601526148128282614015565b91505060a083015184820360e086015261482c8282614725565b91505060c0830151614842610100860182613f8c565b5060e0830151614856610120860182613f8c565b5061010083015161486b610140860182613f8c565b50610120830151614880610160860182613f8c565b5061014083015184820361018086015261489a82826140db565b9150506101608301518482036101a08601526148b68282614015565b9150506101808301516148cd6101c0860182613f8c565b506101a08301516148e26101e0860182613f8c565b508091505092915050565b60006020820190508181036000830152614907818461479a565b905092915050565b600080fd5b7f4e487b7100000000000000000000000000000000000000000000000000000000600052604160045260246000fd5b61494c82613ea2565b810181811067ffffffffffffffff8211171561496b5761496a614914565b5b80604052505050565b600061497e614326565b905061498a8282614943565b919050565b600067ffffffffffffffff8211156149aa576149a9614914565b5b602082029050919050565b600080fd5b600080fd5b600067ffffffffffffffff8211156149da576149d9614914565b5b6149e382613ea2565b9050602081019050919050565b82818337600083830152505050565b6000614a12614a0d846149bf565b614974565b905082815260208101848484011115614a2e57614a2d6149ba565b5b614a398482856149f0565b509392505050565b600082601f830112614a5657614a5561490f565b5b8135614a668482602086016149ff565b91505092915050565b6000614a82614a7d8461498f565b614974565b90508060208402830185811115614a9c57614a9b6149b5565b5b835b81811015614ae357803567ffffffffffffffff811115614ac157614ac061490f565b5b808601614ace8982614a41565b85526020850194505050602081019050614a9e565b5050509392505050565b600082601f830112614b0257614b0161490f565b5b600a614b0f848285614a6f565b91505092915050565b614b2181613fbb565b8114614b2c57600080fd5b50565b600081359050614b3e81614b18565b92915050565b600067ffffffffffffffff821115614b5f57614b5e614914565b5b602082029050602081019050919050565b6000614b83614b7e84614b44565b614974565b90508083825260208201905060208402830185811115614ba657614ba56149b5565b5b835b81811015614bed57803567ffffffffffffffff811115614bcb57614bca61490f565b5b808601614bd88982614a41565b85526020850194505050602081019050614ba8565b5050509392505050565b600082601f830112614c0c57614c0b61490f565b5b8135614c1c848260208601614b70565b91505092915050565b600067ffffffffffffffff821115614c4057614c3f614914565b5b602082029050602081019050919050565b6000614c64614c5f84614c25565b614974565b90508083825260208201905060208402830185811115614c8757614c866149b5565b5b835b81811015614cb05780614c9c8882614351565b845260208401935050602081019050614c89565b5050509392505050565b600082601f830112614ccf57614cce61490f565b5b8135614cdf848260208601614c51565b91505092915050565b60008060008060008060008060006101208a8c031215614d0b57614d0a614330565b5b60008a013567ffffffffffffffff811115614d2957614d28614335565b5b614d358c828d01614aed565b9950506020614d468c828d01614b2f565b98505060408a013567ffffffffffffffff811115614d6757614d66614335565b5b614d738c828d01614bf7565b97505060608a013567ffffffffffffffff811115614d9457614d93614335565b5b614da08c828d01614bf7565b96505060808a013567ffffffffffffffff811115614dc157614dc0614335565b5b614dcd8c828d01614bf7565b95505060a08a013567ffffffffffffffff811115614dee57614ded614335565b5b614dfa8c828d01614cba565b94505060c08a013567ffffffffffffffff811115614e1b57614e1a614335565b5b614e278c828d01614bf7565b93505060e08a013567ffffffffffffffff811115614e4857614e47614335565b5b614e548c828d01614bf7565b9250506101008a013567ffffffffffffffff811115614e7657614e75614335565b5b614e828c828d01614bf7565b9150509295985092959850929598565b60008060408385031215614ea957614ea8614330565b5b6000614eb785828601614351565b9250506020614ec885828601614351565b9150509250929050565b60006060820190508181036000830152614eec81866143a4565b90508181036020830152614f0081856143a4565b90508181036040830152614f1481846143a4565b9050949350505050565b600081519050919050565b600082825260208201905092915050565b6000819050602082019050919050565b6000610200830160008301518482036000860152614f6882826144ea565b9150506020830151614f7d602086018261458c565b506040830151614f906080860182613fcd565b50606083015184820360a0860152614fa88282613eb3565b915050608083015184820360c0860152614fc28282614015565b91505060a083015184820360e0860152614fdc8282614725565b91505060c0830151614ff2610100860182613f8c565b5060e0830151615006610120860182613f8c565b5061010083015161501b610140860182613f8c565b50610120830151615030610160860182613f8c565b5061014083015184820361018086015261504a82826140db565b9150506101608301518482036101a08601526150668282614015565b91505061018083015161507d6101c0860182613f8c565b506101a08301516150926101e0860182613f8c565b508091505092915050565b60006150a98383614f4a565b905092915050565b6000602082019050919050565b60006150c982614f1e565b6150d38185614f29565b9350836020820285016150e585614f3a565b8060005b858110156151215784840389528151615102858261509d565b945061510d836150b1565b925060208a019950506001810190506150e9565b50829750879550505050505092915050565b6000602082019050818103600083015261514d81846150be565b905092915050565b600080600080600080600080610100898b03121561517657615175614330565b5b60006151848b828c01614351565b985050602089013567ffffffffffffffff8111156151a5576151a4614335565b5b6151b18b828c01614a41565b97505060406151c28b828c01614351565b96505060606151d38b828c01614351565b95505060806151e48b828c01614351565b94505060a06151f58b828c01614351565b93505060c089013567ffffffffffffffff81111561521657615215614335565b5b6152228b828c01614a41565b92505060e089013567ffffffffffffffff81111561524357615242614335565b5b61524f8b828c01614a41565b9150509295985092959890939650565b600060808201905061527460008301876143ff565b61528160208301866143ff565b61528e6040830185614429565b61529b60608301846143ff565b95945050505050565b6000806000606084860312156152bd576152bc614330565b5b60006152cb86828701614351565b93505060206152dc86828701614351565b92505060406152ed86828701614351565b9150509250925092565b6000806040838503121561530e5761530d614330565b5b600061531c85828601614351565b925050602083013567ffffffffffffffff81111561533d5761533c614335565b5b61534985828601614a41565b9150509250929050565b6000806000806080858703121561536d5761536c614330565b5b600061537b87828801614351565b945050602061538c87828801614351565b935050604061539d87828801614b2f565b92505060606153ae87828801614351565b91505092959194509250565b600067ffffffffffffffff8211156153d5576153d4614914565b5b602082029050919050565b60006153f36153ee846153ba565b614974565b9050806020840283018581111561540d5761540c6149b5565b5b835b8181101561545457803567ffffffffffffffff8111156154325761543161490f565b5b80860161543f8982614a41565b8552602085019450505060208101905061540f565b5050509392505050565b600082601f8301126154735761547261490f565b5b600c6154808482856153e0565b91505092915050565b600067ffffffffffffffff8211156154a4576154a3614914565b5b602082029050919050565b60006154c26154bd84615489565b614974565b905080602084028301858111156154dc576154db6149b5565b5b835b8181101561550557806154f18882614351565b8452602084019350506020810190506154de565b5050509392505050565b600082601f8301126155245761552361490f565b5b60036155318482856154af565b91505092915050565b600080600080600060e0868803121561555657615555614330565b5b600086013567ffffffffffffffff81111561557457615573614335565b5b6155808882890161545e565b95505060206155918882890161550f565b94505060806155a288828901614b2f565b93505060a086013567ffffffffffffffff8111156155c3576155c2614335565b5b6155cf88828901614bf7565b92505060c086013567ffffffffffffffff8111156155f0576155ef614335565b5b6155fc88828901614a41565b9150509295509295909350565b6000806000806000806000806000806101408b8d03121561562d5761562c614330565b5b600061563b8d828e01614351565b9a505060208b013567ffffffffffffffff81111561565c5761565b614335565b5b6156688d828e01614aed565b99505060406156798d828e01614b2f565b98505060608b013567ffffffffffffffff81111561569a57615699614335565b5b6156a68d828e01614bf7565b97505060808b013567ffffffffffffffff8111156156c7576156c6614335565b5b6156d38d828e01614bf7565b96505060a08b013567ffffffffffffffff8111156156f4576156f3614335565b5b6157008d828e01614bf7565b95505060c08b013567ffffffffffffffff81111561572157615720614335565b5b61572d8d828e01614cba565b94505060e08b013567ffffffffffffffff81111561574e5761574d614335565b5b61575a8d828e01614bf7565b9350506101008b013567ffffffffffffffff81111561577c5761577b614335565b5b6157888d828e01614bf7565b9250506101208b013567ffffffffffffffff8111156157aa576157a9614335565b5b6157b68d828e01614bf7565b9150509295989b9194979a5092959850565b60006101808301600083015184820360008601526157e68282613f0d565b91505060208301516157fb6020860182613f8c565b50604083015161580e6040860182613f8c565b5060608301516158216060860182613fcd565b50608083015184820360808601526158398282614015565b91505060a083015184820360a08601526158538282614015565b91505060c083015184820360c086015261586d8282614015565b91505060e083015184820360e086015261588782826140db565b9150506101008301518482036101008601526158a38282614015565b9150506101208301518482036101208601526158bf8282614015565b9150506101408301518482036101408601526158db8282614015565b9150506101608301516158f2610160860182613f8c565b508091505092915050565b6000602082019050818103600083015261591781846157c8565b905092915050565b7f4e487b7100000000000000000000000000000000000000000000000000000000600052602260045260246000fd5b6000600282049050600182168061596657607f821691505b6020821081141561597a5761597961591f565b5b50919050565b7f4e487b7100000000000000000000000000000000000000000000000000000000600052603260045260246000fd5b7f4e487b7100000000000000000000000000000000000000000000000000000000600052601160045260246000fd5b60006159e982613f82565b91507fffffffffffffffffffffffffffffffffffffffffffffffffffffffffffffffff821415615a1c57615a1b6159af565b5b600182019050919050565b6000615a3282613f82565b9150615a3d83613f82565b9250827fffffffffffffffffffffffffffffffffffffffffffffffffffffffffffffffff03821115615a7257615a716159af565b5b828201905092915050565b6000615a8882613f82565b9150615a9383613f82565b925082821015615aa657615aa56159af565b5b828203905092915050565b7f54686520646561646c696e652073686f756c642062652061206461746520696e60008201527f20746865206675747572652e0000000000000000000000000000000000000000602082015250565b6000615b0d602c83614393565b9150615b1882615ab1565b604082019050919050565b60006020820190508181036000830152615b3c81615b00565b905091905056fea26469706673582212202b40eb0645a9296d962612002e19b69a2d1c30e52351003cfac54439b543764c64736f6c634300080a0033","opcodes":"PUSH1 0x80 PUSH1 0x40 MSTORE PUSH1 0x0 PUSH1 0x1 SSTORE PUSH1 0x0 PUSH1 0x3 SSTORE PUSH1 0x0 PUSH1 0x5 SSTORE PUSH1 0x0 PUSH1 0x7 SSTORE PUSH1 0x0 PUSH1 0x9 SSTORE CALLVALUE DUP1 ISZERO PUSH2 0x29 JUMPI PUSH1 0x0 DUP1 REVERT JUMPDEST POP PUSH2 0x5B79 DUP1 PUSH3 0x3A PUSH1 0x0 CODECOPY PUSH1 0x0 RETURN INVALID PUSH1 0x80 PUSH1 0x40 MSTORE PUSH1 0x4 CALLDATASIZE LT PUSH2 0x140 JUMPI PUSH1 0x0 CALLDATALOAD PUSH1 0xE0 SHR DUP1 PUSH4 0x9764713B GT PUSH2 0xB6 JUMPI DUP1 PUSH4 0xDB5E4C7F GT PUSH2 0x6F JUMPI DUP1 PUSH4 0xDB5E4C7F EQ PUSH2 0x484 JUMPI DUP1 PUSH4 0xDB65657C EQ PUSH2 0x4AF JUMPI DUP1 PUSH4 0xDDFB31C7 EQ PUSH2 0x4D8 JUMPI DUP1 PUSH4 0xE3E82242 EQ PUSH2 0x501 JUMPI DUP1 PUSH4 0xEDD25AB4 EQ PUSH2 0x531 JUMPI DUP1 PUSH4 0xF08F4F64 EQ PUSH2 0x561 JUMPI PUSH2 0x140 JUMP JUMPDEST DUP1 PUSH4 0x9764713B EQ PUSH2 0x365 JUMPI DUP1 PUSH4 0xC36FE3D6 EQ PUSH2 0x381 JUMPI DUP1 PUSH4 0xCE87CE1F EQ PUSH2 0x3C1 JUMPI DUP1 PUSH4 0xCF3E7C7C EQ PUSH2 0x3EC JUMPI DUP1 PUSH4 0xD36EC816 EQ PUSH2 0x429 JUMPI DUP1 PUSH4 0xDA35B860 EQ PUSH2 0x459 JUMPI PUSH2 0x140 JUMP JUMPDEST DUP1 PUSH4 0x1B5553B7 GT PUSH2 0x108 JUMPI DUP1 PUSH4 0x1B5553B7 EQ PUSH2 0x247 JUMPI DUP1 PUSH4 0x30327170 EQ PUSH2 0x284 JUMPI DUP1 PUSH4 0x30607A94 EQ PUSH2 0x2B4 JUMPI DUP1 PUSH4 0x43BEBFBF EQ PUSH2 0x2DF JUMPI DUP1 PUSH4 0x4423C5F1 EQ PUSH2 0x2FB JUMPI DUP1 PUSH4 0x68581EBD EQ PUSH2 0x33A JUMPI PUSH2 0x140 JUMP JUMPDEST DUP1 PUSH4 0xB1FE784 EQ PUSH2 0x145 JUMPI DUP1 PUSH4 0x107046BD EQ PUSH2 0x170 JUMPI DUP1 PUSH4 0x12065FE0 EQ PUSH2 0x1AD JUMPI DUP1 PUSH4 0x17D531FC EQ PUSH2 0x1D8 JUMPI DUP1 PUSH4 0x180AEDF3 EQ PUSH2 0x203 JUMPI JUMPDEST PUSH1 0x0 DUP1 REVERT JUMPDEST CALLVALUE DUP1 ISZERO PUSH2 0x151 JUMPI PUSH1 0x0 DUP1 REVERT JUMPDEST POP PUSH2 0x15A PUSH2 0x59E JUMP JUMPDEST PUSH1 0x40 MLOAD PUSH2 0x167 SWAP2 SWAP1 PUSH2 0x4304 JUMP JUMPDEST PUSH1 0x40 MLOAD DUP1 SWAP2 SUB SWAP1 RETURN JUMPDEST CALLVALUE DUP1 ISZERO PUSH2 0x17C JUMPI PUSH1 0x0 DUP1 REVERT JUMPDEST POP PUSH2 0x197 PUSH1 0x4 DUP1 CALLDATASIZE SUB DUP2 ADD SWAP1 PUSH2 0x192 SWAP2 SWAP1 PUSH2 0x4366 JUMP JUMPDEST PUSH2 0xD0E JUMP JUMPDEST PUSH1 0x40 MLOAD PUSH2 0x1A4 SWAP2 SWAP1 PUSH2 0x43DD JUMP JUMPDEST PUSH1 0x40 MLOAD DUP1 SWAP2 SUB SWAP1 RETURN JUMPDEST CALLVALUE DUP1 ISZERO PUSH2 0x1B9 JUMPI PUSH1 0x0 DUP1 REVERT JUMPDEST POP PUSH2 0x1C2 PUSH2 0xDB4 JUMP JUMPDEST PUSH1 0x40 MLOAD PUSH2 0x1CF SWAP2 SWAP1 PUSH2 0x440E JUMP JUMPDEST PUSH1 0x40 MLOAD DUP1 SWAP2 SUB SWAP1 RETURN JUMPDEST CALLVALUE DUP1 ISZERO PUSH2 0x1E4 JUMPI PUSH1 0x0 DUP1 REVERT JUMPDEST POP PUSH2 0x1ED PUSH2 0xDBC JUMP JUMPDEST PUSH1 0x40 MLOAD PUSH2 0x1FA SWAP2 SWAP1 PUSH2 0x440E JUMP JUMPDEST PUSH1 0x40 MLOAD DUP1 SWAP2 SUB SWAP1 RETURN JUMPDEST CALLVALUE DUP1 ISZERO PUSH2 0x20F JUMPI PUSH1 0x0 DUP1 REVERT JUMPDEST POP PUSH2 0x22A PUSH1 0x4 DUP1 CALLDATASIZE SUB DUP2 ADD SWAP1 PUSH2 0x225 SWAP2 SWAP1 PUSH2 0x4366 JUMP JUMPDEST PUSH2 0xDC2 JUMP JUMPDEST PUSH1 0x40 MLOAD PUSH2 0x23E SWAP9 SWAP8 SWAP7 SWAP6 SWAP5 SWAP4 SWAP3 SWAP2 SWAP1 PUSH2 0x4438 JUMP JUMPDEST PUSH1 0x40 MLOAD DUP1 SWAP2 SUB SWAP1 RETURN JUMPDEST CALLVALUE DUP1 ISZERO PUSH2 0x253 JUMPI PUSH1 0x0 DUP1 REVERT JUMPDEST POP PUSH2 0x26E PUSH1 0x4 DUP1 CALLDATASIZE SUB DUP2 ADD SWAP1 PUSH2 0x269 SWAP2 SWAP1 PUSH2 0x4366 JUMP JUMPDEST PUSH2 0xEB2 JUMP JUMPDEST PUSH1 0x40 MLOAD PUSH2 0x27B SWAP2 SWAP1 PUSH2 0x48ED JUMP JUMPDEST PUSH1 0x40 MLOAD DUP1 SWAP2 SUB SWAP1 RETURN JUMPDEST PUSH2 0x29E PUSH1 0x4 DUP1 CALLDATASIZE SUB DUP2 ADD SWAP1 PUSH2 0x299 SWAP2 SWAP1 PUSH2 0x4CE8 JUMP JUMPDEST PUSH2 0x1574 JUMP JUMPDEST PUSH1 0x40 MLOAD PUSH2 0x2AB SWAP2 SWAP1 PUSH2 0x440E JUMP JUMPDEST PUSH1 0x40 MLOAD DUP1 SWAP2 SUB SWAP1 RETURN JUMPDEST CALLVALUE DUP1 ISZERO PUSH2 0x2C0 JUMPI PUSH1 0x0 DUP1 REVERT JUMPDEST POP PUSH2 0x2C9 PUSH2 0x1B86 JUMP JUMPDEST PUSH1 0x40 MLOAD PUSH2 0x2D6 SWAP2 SWAP1 PUSH2 0x440E JUMP JUMPDEST PUSH1 0x40 MLOAD DUP1 SWAP2 SUB SWAP1 RETURN JUMPDEST PUSH2 0x2F9 PUSH1 0x4 DUP1 CALLDATASIZE SUB DUP2 ADD SWAP1 PUSH2 0x2F4 SWAP2 SWAP1 PUSH2 0x4E92 JUMP JUMPDEST PUSH2 0x1B8C JUMP JUMPDEST STOP JUMPDEST CALLVALUE DUP1 ISZERO PUSH2 0x307 JUMPI PUSH1 0x0 DUP1 REVERT JUMPDEST POP PUSH2 0x322 PUSH1 0x4 DUP1 CALLDATASIZE SUB DUP2 ADD SWAP1 PUSH2 0x31D SWAP2 SWAP1 PUSH2 0x4366 JUMP JUMPDEST PUSH2 0x1BB1 JUMP JUMPDEST PUSH1 0x40 MLOAD PUSH2 0x331 SWAP4 SWAP3 SWAP2 SWAP1 PUSH2 0x4ED2 JUMP JUMPDEST PUSH1 0x40 MLOAD DUP1 SWAP2 SUB SWAP1 RETURN JUMPDEST CALLVALUE DUP1 ISZERO PUSH2 0x346 JUMPI PUSH1 0x0 DUP1 REVERT JUMPDEST POP PUSH2 0x34F PUSH2 0x1D73 JUMP JUMPDEST PUSH1 0x40 MLOAD PUSH2 0x35C SWAP2 SWAP1 PUSH2 0x5133 JUMP JUMPDEST PUSH1 0x40 MLOAD DUP1 SWAP2 SUB SWAP1 RETURN JUMPDEST PUSH2 0x37F PUSH1 0x4 DUP1 CALLDATASIZE SUB DUP2 ADD SWAP1 PUSH2 0x37A SWAP2 SWAP1 PUSH2 0x5155 JUMP JUMPDEST PUSH2 0x24CE JUMP JUMPDEST STOP JUMPDEST CALLVALUE DUP1 ISZERO PUSH2 0x38D JUMPI PUSH1 0x0 DUP1 REVERT JUMPDEST POP PUSH2 0x3A8 PUSH1 0x4 DUP1 CALLDATASIZE SUB DUP2 ADD SWAP1 PUSH2 0x3A3 SWAP2 SWAP1 PUSH2 0x4366 JUMP JUMPDEST PUSH2 0x2687 JUMP JUMPDEST PUSH1 0x40 MLOAD PUSH2 0x3B8 SWAP5 SWAP4 SWAP3 SWAP2 SWAP1 PUSH2 0x525F JUMP JUMPDEST PUSH1 0x40 MLOAD DUP1 SWAP2 SUB SWAP1 RETURN JUMPDEST CALLVALUE DUP1 ISZERO PUSH2 0x3CD JUMPI PUSH1 0x0 DUP1 REVERT JUMPDEST POP PUSH2 0x3D6 PUSH2 0x26D7 JUMP JUMPDEST PUSH1 0x40 MLOAD PUSH2 0x3E3 SWAP2 SWAP1 PUSH2 0x440E JUMP JUMPDEST PUSH1 0x40 MLOAD DUP1 SWAP2 SUB SWAP1 RETURN JUMPDEST CALLVALUE DUP1 ISZERO PUSH2 0x3F8 JUMPI PUSH1 0x0 DUP1 REVERT JUMPDEST POP PUSH2 0x413 PUSH1 0x4 DUP1 CALLDATASIZE SUB DUP2 ADD SWAP1 PUSH2 0x40E SWAP2 SWAP1 PUSH2 0x4366 JUMP JUMPDEST PUSH2 0x26DD JUMP JUMPDEST PUSH1 0x40 MLOAD PUSH2 0x420 SWAP2 SWAP1 PUSH2 0x440E JUMP JUMPDEST PUSH1 0x40 MLOAD DUP1 SWAP2 SUB SWAP1 RETURN JUMPDEST PUSH2 0x443 PUSH1 0x4 DUP1 CALLDATASIZE SUB DUP2 ADD SWAP1 PUSH2 0x43E SWAP2 SWAP1 PUSH2 0x52A4 JUMP JUMPDEST PUSH2 0x26FB JUMP JUMPDEST PUSH1 0x40 MLOAD PUSH2 0x450 SWAP2 SWAP1 PUSH2 0x440E JUMP JUMPDEST PUSH1 0x40 MLOAD DUP1 SWAP2 SUB SWAP1 RETURN JUMPDEST CALLVALUE DUP1 ISZERO PUSH2 0x465 JUMPI PUSH1 0x0 DUP1 REVERT JUMPDEST POP PUSH2 0x46E PUSH2 0x275C JUMP JUMPDEST PUSH1 0x40 MLOAD PUSH2 0x47B SWAP2 SWAP1 PUSH2 0x440E JUMP JUMPDEST PUSH1 0x40 MLOAD DUP1 SWAP2 SUB SWAP1 RETURN JUMPDEST CALLVALUE DUP1 ISZERO PUSH2 0x490 JUMPI PUSH1 0x0 DUP1 REVERT JUMPDEST POP PUSH2 0x499 PUSH2 0x2762 JUMP JUMPDEST PUSH1 0x40 MLOAD PUSH2 0x4A6 SWAP2 SWAP1 PUSH2 0x440E JUMP JUMPDEST PUSH1 0x40 MLOAD DUP1 SWAP2 SUB SWAP1 RETURN JUMPDEST CALLVALUE DUP1 ISZERO PUSH2 0x4BB JUMPI PUSH1 0x0 DUP1 REVERT JUMPDEST POP PUSH2 0x4D6 PUSH1 0x4 DUP1 CALLDATASIZE SUB DUP2 ADD SWAP1 PUSH2 0x4D1 SWAP2 SWAP1 PUSH2 0x52F7 JUMP JUMPDEST PUSH2 0x2768 JUMP JUMPDEST STOP JUMPDEST CALLVALUE DUP1 ISZERO PUSH2 0x4E4 JUMPI PUSH1 0x0 DUP1 REVERT JUMPDEST POP PUSH2 0x4FF PUSH1 0x4 DUP1 CALLDATASIZE SUB DUP2 ADD SWAP1 PUSH2 0x4FA SWAP2 SWAP1 PUSH2 0x5353 JUMP JUMPDEST PUSH2 0x27C2 JUMP JUMPDEST STOP JUMPDEST PUSH2 0x51B PUSH1 0x4 DUP1 CALLDATASIZE SUB DUP2 ADD SWAP1 PUSH2 0x516 SWAP2 SWAP1 PUSH2 0x553A JUMP JUMPDEST PUSH2 0x28CC JUMP JUMPDEST PUSH1 0x40 MLOAD PUSH2 0x528 SWAP2 SWAP1 PUSH2 0x440E JUMP JUMPDEST PUSH1 0x40 MLOAD DUP1 SWAP2 SUB SWAP1 RETURN JUMPDEST PUSH2 0x54B PUSH1 0x4 DUP1 CALLDATASIZE SUB DUP2 ADD SWAP1 PUSH2 0x546 SWAP2 SWAP1 PUSH2 0x5609 JUMP JUMPDEST PUSH2 0x2E5F JUMP JUMPDEST PUSH1 0x40 MLOAD PUSH2 0x558 SWAP2 SWAP1 PUSH2 0x440E JUMP JUMPDEST PUSH1 0x40 MLOAD DUP1 SWAP2 SUB SWAP1 RETURN JUMPDEST CALLVALUE DUP1 ISZERO PUSH2 0x56D JUMPI PUSH1 0x0 DUP1 REVERT JUMPDEST POP PUSH2 0x588 PUSH1 0x4 DUP1 CALLDATASIZE SUB DUP2 ADD SWAP1 PUSH2 0x583 SWAP2 SWAP1 PUSH2 0x4366 JUMP JUMPDEST PUSH2 0x3443 JUMP JUMPDEST PUSH1 0x40 MLOAD PUSH2 0x595 SWAP2 SWAP1 PUSH2 0x58FD JUMP JUMPDEST PUSH1 0x40 MLOAD DUP1 SWAP2 SUB SWAP1 RETURN JUMPDEST PUSH1 0x60 PUSH1 0x0 PUSH1 0x9 SLOAD PUSH8 0xFFFFFFFFFFFFFFFF DUP2 GT ISZERO PUSH2 0x5BE JUMPI PUSH2 0x5BD PUSH2 0x4914 JUMP JUMPDEST JUMPDEST PUSH1 0x40 MLOAD SWAP1 DUP1 DUP3 MSTORE DUP1 PUSH1 0x20 MUL PUSH1 0x20 ADD DUP3 ADD PUSH1 0x40 MSTORE DUP1 ISZERO PUSH2 0x5F7 JUMPI DUP2 PUSH1 0x20 ADD JUMPDEST PUSH2 0x5E4 PUSH2 0x3B1A JUMP JUMPDEST DUP2 MSTORE PUSH1 0x20 ADD SWAP1 PUSH1 0x1 SWAP1 SUB SWAP1 DUP2 PUSH2 0x5DC JUMPI SWAP1 POP JUMPDEST POP SWAP1 POP PUSH1 0x0 JUMPDEST PUSH1 0x9 SLOAD DUP2 LT ISZERO PUSH2 0xD06 JUMPI PUSH1 0x0 PUSH1 0x8 PUSH1 0x0 DUP4 DUP2 MSTORE PUSH1 0x20 ADD SWAP1 DUP2 MSTORE PUSH1 0x20 ADD PUSH1 0x0 KECCAK256 SWAP1 POP DUP1 PUSH1 0x40 MLOAD DUP1 PUSH2 0x180 ADD PUSH1 0x40 MSTORE SWAP1 DUP2 PUSH1 0x0 DUP3 ADD PUSH1 0xA DUP1 PUSH1 0x20 MUL PUSH1 0x40 MLOAD SWAP1 DUP2 ADD PUSH1 0x40 MSTORE DUP1 SWAP3 SWAP2 SWAP1 PUSH1 0x0 SWAP1 JUMPDEST DUP3 DUP3 LT ISZERO PUSH2 0x6EA JUMPI DUP4 DUP3 ADD DUP1 SLOAD PUSH2 0x65D SWAP1 PUSH2 0x594E JUMP JUMPDEST DUP1 PUSH1 0x1F ADD PUSH1 0x20 DUP1 SWAP2 DIV MUL PUSH1 0x20 ADD PUSH1 0x40 MLOAD SWAP1 DUP2 ADD PUSH1 0x40 MSTORE DUP1 SWAP3 SWAP2 SWAP1 DUP2 DUP2 MSTORE PUSH1 0x20 ADD DUP3 DUP1 SLOAD PUSH2 0x689 SWAP1 PUSH2 0x594E JUMP JUMPDEST DUP1 ISZERO PUSH2 0x6D6 JUMPI DUP1 PUSH1 0x1F LT PUSH2 0x6AB JUMPI PUSH2 0x100 DUP1 DUP4 SLOAD DIV MUL DUP4 MSTORE SWAP2 PUSH1 0x20 ADD SWAP2 PUSH2 0x6D6 JUMP JUMPDEST DUP3 ADD SWAP2 SWAP1 PUSH1 0x0 MSTORE PUSH1 0x20 PUSH1 0x0 KECCAK256 SWAP1 JUMPDEST DUP2 SLOAD DUP2 MSTORE SWAP1 PUSH1 0x1 ADD SWAP1 PUSH1 0x20 ADD DUP1 DUP4 GT PUSH2 0x6B9 JUMPI DUP3 SWAP1 SUB PUSH1 0x1F AND DUP3 ADD SWAP2 JUMPDEST POP POP POP POP POP DUP2 MSTORE PUSH1 0x20 ADD SWAP1 PUSH1 0x1 ADD SWAP1 PUSH2 0x647 JUMP JUMPDEST POP POP POP POP DUP2 MSTORE PUSH1 0x20 ADD PUSH1 0xA DUP3 ADD SLOAD DUP2 MSTORE PUSH1 0x20 ADD PUSH1 0xB DUP3 ADD SLOAD DUP2 MSTORE PUSH1 0x20 ADD PUSH1 0xC DUP3 ADD PUSH1 0x0 SWAP1 SLOAD SWAP1 PUSH2 0x100 EXP SWAP1 DIV PUSH20 0xFFFFFFFFFFFFFFFFFFFFFFFFFFFFFFFFFFFFFFFF AND PUSH20 0xFFFFFFFFFFFFFFFFFFFFFFFFFFFFFFFFFFFFFFFF AND PUSH20 0xFFFFFFFFFFFFFFFFFFFFFFFFFFFFFFFFFFFFFFFF AND DUP2 MSTORE PUSH1 0x20 ADD PUSH1 0xD DUP3 ADD DUP1 SLOAD DUP1 PUSH1 0x20 MUL PUSH1 0x20 ADD PUSH1 0x40 MLOAD SWAP1 DUP2 ADD PUSH1 0x40 MSTORE DUP1 SWAP3 SWAP2 SWAP1 DUP2 DUP2 MSTORE PUSH1 0x20 ADD PUSH1 0x0 SWAP1 JUMPDEST DUP3 DUP3 LT ISZERO PUSH2 0x82D JUMPI DUP4 DUP3 SWAP1 PUSH1 0x0 MSTORE PUSH1 0x20 PUSH1 0x0 KECCAK256 ADD DUP1 SLOAD PUSH2 0x7A0 SWAP1 PUSH2 0x594E JUMP JUMPDEST DUP1 PUSH1 0x1F ADD PUSH1 0x20 DUP1 SWAP2 DIV MUL PUSH1 0x20 ADD PUSH1 0x40 MLOAD SWAP1 DUP2 ADD PUSH1 0x40 MSTORE DUP1 SWAP3 SWAP2 SWAP1 DUP2 DUP2 MSTORE PUSH1 0x20 ADD DUP3 DUP1 SLOAD PUSH2 0x7CC SWAP1 PUSH2 0x594E JUMP JUMPDEST DUP1 ISZERO PUSH2 0x819 JUMPI DUP1 PUSH1 0x1F LT PUSH2 0x7EE JUMPI PUSH2 0x100 DUP1 DUP4 SLOAD DIV MUL DUP4 MSTORE SWAP2 PUSH1 0x20 ADD SWAP2 PUSH2 0x819 JUMP JUMPDEST DUP3 ADD SWAP2 SWAP1 PUSH1 0x0 MSTORE PUSH1 0x20 PUSH1 0x0 KECCAK256 SWAP1 JUMPDEST DUP2 SLOAD DUP2 MSTORE SWAP1 PUSH1 0x1 ADD SWAP1 PUSH1 0x20 ADD DUP1 DUP4 GT PUSH2 0x7FC JUMPI DUP3 SWAP1 SUB PUSH1 0x1F AND DUP3 ADD SWAP2 JUMPDEST POP POP POP POP POP DUP2 MSTORE PUSH1 0x20 ADD SWAP1 PUSH1 0x1 ADD SWAP1 PUSH2 0x781 JUMP JUMPDEST POP POP POP POP DUP2 MSTORE PUSH1 0x20 ADD PUSH1 0xE DUP3 ADD DUP1 SLOAD DUP1 PUSH1 0x20 MUL PUSH1 0x20 ADD PUSH1 0x40 MLOAD SWAP1 DUP2 ADD PUSH1 0x40 MSTORE DUP1 SWAP3 SWAP2 SWAP1 DUP2 DUP2 MSTORE PUSH1 0x20 ADD PUSH1 0x0 SWAP1 JUMPDEST DUP3 DUP3 LT ISZERO PUSH2 0x906 JUMPI DUP4 DUP3 SWAP1 PUSH1 0x0 MSTORE PUSH1 0x20 PUSH1 0x0 KECCAK256 ADD DUP1 SLOAD PUSH2 0x879 SWAP1 PUSH2 0x594E JUMP JUMPDEST DUP1 PUSH1 0x1F ADD PUSH1 0x20 DUP1 SWAP2 DIV MUL PUSH1 0x20 ADD PUSH1 0x40 MLOAD SWAP1 DUP2 ADD PUSH1 0x40 MSTORE DUP1 SWAP3 SWAP2 SWAP1 DUP2 DUP2 MSTORE PUSH1 0x20 ADD DUP3 DUP1 SLOAD PUSH2 0x8A5 SWAP1 PUSH2 0x594E JUMP JUMPDEST DUP1 ISZERO PUSH2 0x8F2 JUMPI DUP1 PUSH1 0x1F LT PUSH2 0x8C7 JUMPI PUSH2 0x100 DUP1 DUP4 SLOAD DIV MUL DUP4 MSTORE SWAP2 PUSH1 0x20 ADD SWAP2 PUSH2 0x8F2 JUMP JUMPDEST DUP3 ADD SWAP2 SWAP1 PUSH1 0x0 MSTORE PUSH1 0x20 PUSH1 0x0 KECCAK256 SWAP1 JUMPDEST DUP2 SLOAD DUP2 MSTORE SWAP1 PUSH1 0x1 ADD SWAP1 PUSH1 0x20 ADD DUP1 DUP4 GT PUSH2 0x8D5 JUMPI DUP3 SWAP1 SUB PUSH1 0x1F AND DUP3 ADD SWAP2 JUMPDEST POP POP POP POP POP DUP2 MSTORE PUSH1 0x20 ADD SWAP1 PUSH1 0x1 ADD SWAP1 PUSH2 0x85A JUMP JUMPDEST POP POP POP POP DUP2 MSTORE PUSH1 0x20 ADD PUSH1 0xF DUP3 ADD DUP1 SLOAD DUP1 PUSH1 0x20 MUL PUSH1 0x20 ADD PUSH1 0x40 MLOAD SWAP1 DUP2 ADD PUSH1 0x40 MSTORE DUP1 SWAP3 SWAP2 SWAP1 DUP2 DUP2 MSTORE PUSH1 0x20 ADD PUSH1 0x0 SWAP1 JUMPDEST DUP3 DUP3 LT ISZERO PUSH2 0x9DF JUMPI DUP4 DUP3 SWAP1 PUSH1 0x0 MSTORE PUSH1 0x20 PUSH1 0x0 KECCAK256 ADD DUP1 SLOAD PUSH2 0x952 SWAP1 PUSH2 0x594E JUMP JUMPDEST DUP1 PUSH1 0x1F ADD PUSH1 0x20 DUP1 SWAP2 DIV MUL PUSH1 0x20 ADD PUSH1 0x40 MLOAD SWAP1 DUP2 ADD PUSH1 0x40 MSTORE DUP1 SWAP3 SWAP2 SWAP1 DUP2 DUP2 MSTORE PUSH1 0x20 ADD DUP3 DUP1 SLOAD PUSH2 0x97E SWAP1 PUSH2 0x594E JUMP JUMPDEST DUP1 ISZERO PUSH2 0x9CB JUMPI DUP1 PUSH1 0x1F LT PUSH2 0x9A0 JUMPI PUSH2 0x100 DUP1 DUP4 SLOAD DIV MUL DUP4 MSTORE SWAP2 PUSH1 0x20 ADD SWAP2 PUSH2 0x9CB JUMP JUMPDEST DUP3 ADD SWAP2 SWAP1 PUSH1 0x0 MSTORE PUSH1 0x20 PUSH1 0x0 KECCAK256 SWAP1 JUMPDEST DUP2 SLOAD DUP2 MSTORE SWAP1 PUSH1 0x1 ADD SWAP1 PUSH1 0x20 ADD DUP1 DUP4 GT PUSH2 0x9AE JUMPI DUP3 SWAP1 SUB PUSH1 0x1F AND DUP3 ADD SWAP2 JUMPDEST POP POP POP POP POP DUP2 MSTORE PUSH1 0x20 ADD SWAP1 PUSH1 0x1 ADD SWAP1 PUSH2 0x933 JUMP JUMPDEST POP POP POP POP DUP2 MSTORE PUSH1 0x20 ADD PUSH1 0x10 DUP3 ADD DUP1 SLOAD DUP1 PUSH1 0x20 MUL PUSH1 0x20 ADD PUSH1 0x40 MLOAD SWAP1 DUP2 ADD PUSH1 0x40 MSTORE DUP1 SWAP3 SWAP2 SWAP1 DUP2 DUP2 MSTORE PUSH1 0x20 ADD DUP3 DUP1 SLOAD DUP1 ISZERO PUSH2 0xA36 JUMPI PUSH1 0x20 MUL DUP3 ADD SWAP2 SWAP1 PUSH1 0x0 MSTORE PUSH1 0x20 PUSH1 0x0 KECCAK256 SWAP1 JUMPDEST DUP2 SLOAD DUP2 MSTORE PUSH1 0x20 ADD SWAP1 PUSH1 0x1 ADD SWAP1 DUP1 DUP4 GT PUSH2 0xA22 JUMPI JUMPDEST POP POP POP POP POP DUP2 MSTORE PUSH1 0x20 ADD PUSH1 0x11 DUP3 ADD DUP1 SLOAD DUP1 PUSH1 0x20 MUL PUSH1 0x20 ADD PUSH1 0x40 MLOAD SWAP1 DUP2 ADD PUSH1 0x40 MSTORE DUP1 SWAP3 SWAP2 SWAP1 DUP2 DUP2 MSTORE PUSH1 0x20 ADD PUSH1 0x0 SWAP1 JUMPDEST DUP3 DUP3 LT ISZERO PUSH2 0xB10 JUMPI DUP4 DUP3 SWAP1 PUSH1 0x0 MSTORE PUSH1 0x20 PUSH1 0x0 KECCAK256 ADD DUP1 SLOAD PUSH2 0xA83 SWAP1 PUSH2 0x594E JUMP JUMPDEST DUP1 PUSH1 0x1F ADD PUSH1 0x20 DUP1 SWAP2 DIV MUL PUSH1 0x20 ADD PUSH1 0x40 MLOAD SWAP1 DUP2 ADD PUSH1 0x40 MSTORE DUP1 SWAP3 SWAP2 SWAP1 DUP2 DUP2 MSTORE PUSH1 0x20 ADD DUP3 DUP1 SLOAD PUSH2 0xAAF SWAP1 PUSH2 0x594E JUMP JUMPDEST DUP1 ISZERO PUSH2 0xAFC JUMPI DUP1 PUSH1 0x1F LT PUSH2 0xAD1 JUMPI PUSH2 0x100 DUP1 DUP4 SLOAD DIV MUL DUP4 MSTORE SWAP2 PUSH1 0x20 ADD SWAP2 PUSH2 0xAFC JUMP JUMPDEST DUP3 ADD SWAP2 SWAP1 PUSH1 0x0 MSTORE PUSH1 0x20 PUSH1 0x0 KECCAK256 SWAP1 JUMPDEST DUP2 SLOAD DUP2 MSTORE SWAP1 PUSH1 0x1 ADD SWAP1 PUSH1 0x20 ADD DUP1 DUP4 GT PUSH2 0xADF JUMPI DUP3 SWAP1 SUB PUSH1 0x1F AND DUP3 ADD SWAP2 JUMPDEST POP POP POP POP POP DUP2 MSTORE PUSH1 0x20 ADD SWAP1 PUSH1 0x1 ADD SWAP1 PUSH2 0xA64 JUMP JUMPDEST POP POP POP POP DUP2 MSTORE PUSH1 0x20 ADD PUSH1 0x12 DUP3 ADD DUP1 SLOAD DUP1 PUSH1 0x20 MUL PUSH1 0x20 ADD PUSH1 0x40 MLOAD SWAP1 DUP2 ADD PUSH1 0x40 MSTORE DUP1 SWAP3 SWAP2 SWAP1 DUP2 DUP2 MSTORE PUSH1 0x20 ADD PUSH1 0x0 SWAP1 JUMPDEST DUP3 DUP3 LT ISZERO PUSH2 0xBE9 JUMPI DUP4 DUP3 SWAP1 PUSH1 0x0 MSTORE PUSH1 0x20 PUSH1 0x0 KECCAK256 ADD DUP1 SLOAD PUSH2 0xB5C SWAP1 PUSH2 0x594E JUMP JUMPDEST DUP1 PUSH1 0x1F ADD PUSH1 0x20 DUP1 SWAP2 DIV MUL PUSH1 0x20 ADD PUSH1 0x40 MLOAD SWAP1 DUP2 ADD PUSH1 0x40 MSTORE DUP1 SWAP3 SWAP2 SWAP1 DUP2 DUP2 MSTORE PUSH1 0x20 ADD DUP3 DUP1 SLOAD PUSH2 0xB88 SWAP1 PUSH2 0x594E JUMP JUMPDEST DUP1 ISZERO PUSH2 0xBD5 JUMPI DUP1 PUSH1 0x1F LT PUSH2 0xBAA JUMPI PUSH2 0x100 DUP1 DUP4 SLOAD DIV MUL DUP4 MSTORE SWAP2 PUSH1 0x20 ADD SWAP2 PUSH2 0xBD5 JUMP JUMPDEST DUP3 ADD SWAP2 SWAP1 PUSH1 0x0 MSTORE PUSH1 0x20 PUSH1 0x0 KECCAK256 SWAP1 JUMPDEST DUP2 SLOAD DUP2 MSTORE SWAP1 PUSH1 0x1 ADD SWAP1 PUSH1 0x20 ADD DUP1 DUP4 GT PUSH2 0xBB8 JUMPI DUP3 SWAP1 SUB PUSH1 0x1F AND DUP3 ADD SWAP2 JUMPDEST POP POP POP POP POP DUP2 MSTORE PUSH1 0x20 ADD SWAP1 PUSH1 0x1 ADD SWAP1 PUSH2 0xB3D JUMP JUMPDEST POP POP POP POP DUP2 MSTORE PUSH1 0x20 ADD PUSH1 0x13 DUP3 ADD DUP1 SLOAD DUP1 PUSH1 0x20 MUL PUSH1 0x20 ADD PUSH1 0x40 MLOAD SWAP1 DUP2 ADD PUSH1 0x40 MSTORE DUP1 SWAP3 SWAP2 SWAP1 DUP2 DUP2 MSTORE PUSH1 0x20 ADD PUSH1 0x0 SWAP1 JUMPDEST DUP3 DUP3 LT ISZERO PUSH2 0xCC2 JUMPI DUP4 DUP3 SWAP1 PUSH1 0x0 MSTORE PUSH1 0x20 PUSH1 0x0 KECCAK256 ADD DUP1 SLOAD PUSH2 0xC35 SWAP1 PUSH2 0x594E JUMP JUMPDEST DUP1 PUSH1 0x1F ADD PUSH1 0x20 DUP1 SWAP2 DIV MUL PUSH1 0x20 ADD PUSH1 0x40 MLOAD SWAP1 DUP2 ADD PUSH1 0x40 MSTORE DUP1 SWAP3 SWAP2 SWAP1 DUP2 DUP2 MSTORE PUSH1 0x20 ADD DUP3 DUP1 SLOAD PUSH2 0xC61 SWAP1 PUSH2 0x594E JUMP JUMPDEST DUP1 ISZERO PUSH2 0xCAE JUMPI DUP1 PUSH1 0x1F LT PUSH2 0xC83 JUMPI PUSH2 0x100 DUP1 DUP4 SLOAD DIV MUL DUP4 MSTORE SWAP2 PUSH1 0x20 ADD SWAP2 PUSH2 0xCAE JUMP JUMPDEST DUP3 ADD SWAP2 SWAP1 PUSH1 0x0 MSTORE PUSH1 0x20 PUSH1 0x0 KECCAK256 SWAP1 JUMPDEST DUP2 SLOAD DUP2 MSTORE SWAP1 PUSH1 0x1 ADD SWAP1 PUSH1 0x20 ADD DUP1 DUP4 GT PUSH2 0xC91 JUMPI DUP3 SWAP1 SUB PUSH1 0x1F AND DUP3 ADD SWAP2 JUMPDEST POP POP POP POP POP DUP2 MSTORE PUSH1 0x20 ADD SWAP1 PUSH1 0x1 ADD SWAP1 PUSH2 0xC16 JUMP JUMPDEST POP POP POP POP DUP2 MSTORE PUSH1 0x20 ADD PUSH1 0x14 DUP3 ADD SLOAD DUP2 MSTORE POP POP DUP4 DUP4 DUP2 MLOAD DUP2 LT PUSH2 0xCE7 JUMPI PUSH2 0xCE6 PUSH2 0x5980 JUMP JUMPDEST JUMPDEST PUSH1 0x20 MUL PUSH1 0x20 ADD ADD DUP2 SWAP1 MSTORE POP POP DUP1 DUP1 PUSH2 0xCFE SWAP1 PUSH2 0x59DE JUMP JUMPDEST SWAP2 POP POP PUSH2 0x5FD JUMP JUMPDEST POP DUP1 SWAP2 POP POP SWAP1 JUMP JUMPDEST PUSH1 0x6 PUSH1 0x20 MSTORE DUP1 PUSH1 0x0 MSTORE PUSH1 0x40 PUSH1 0x0 KECCAK256 PUSH1 0x0 SWAP2 POP SWAP1 POP DUP1 PUSH1 0x2 ADD DUP1 SLOAD PUSH2 0xD31 SWAP1 PUSH2 0x594E JUMP JUMPDEST DUP1 PUSH1 0x1F ADD PUSH1 0x20 DUP1 SWAP2 DIV MUL PUSH1 0x20 ADD PUSH1 0x40 MLOAD SWAP1 DUP2 ADD PUSH1 0x40 MSTORE DUP1 SWAP3 SWAP2 SWAP1 DUP2 DUP2 MSTORE PUSH1 0x20 ADD DUP3 DUP1 SLOAD PUSH2 0xD5D SWAP1 PUSH2 0x594E JUMP JUMPDEST DUP1 ISZERO PUSH2 0xDAA JUMPI DUP1 PUSH1 0x1F LT PUSH2 0xD7F JUMPI PUSH2 0x100 DUP1 DUP4 SLOAD DIV MUL DUP4 MSTORE SWAP2 PUSH1 0x20 ADD SWAP2 PUSH2 0xDAA JUMP JUMPDEST DUP3 ADD SWAP2 SWAP1 PUSH1 0x0 MSTORE PUSH1 0x20 PUSH1 0x0 KECCAK256 SWAP1 JUMPDEST DUP2 SLOAD DUP2 MSTORE SWAP1 PUSH1 0x1 ADD SWAP1 PUSH1 0x20 ADD DUP1 DUP4 GT PUSH2 0xD8D JUMPI DUP3 SWAP1 SUB PUSH1 0x1F AND DUP3 ADD SWAP2 JUMPDEST POP POP POP POP POP SWAP1 POP DUP2 JUMP JUMPDEST PUSH1 0x0 SELFBALANCE SWAP1 POP SWAP1 JUMP JUMPDEST PUSH1 0x1 SLOAD DUP2 JUMP JUMPDEST PUSH1 0x2 PUSH1 0x20 MSTORE DUP1 PUSH1 0x0 MSTORE PUSH1 0x40 PUSH1 0x0 KECCAK256 PUSH1 0x0 SWAP2 POP SWAP1 POP DUP1 PUSH1 0xF ADD PUSH1 0x0 SWAP1 SLOAD SWAP1 PUSH2 0x100 EXP SWAP1 DIV PUSH20 0xFFFFFFFFFFFFFFFFFFFFFFFFFFFFFFFFFFFFFFFF AND SWAP1 DUP1 PUSH1 0x10 ADD DUP1 SLOAD PUSH2 0xE0B SWAP1 PUSH2 0x594E JUMP JUMPDEST DUP1 PUSH1 0x1F ADD PUSH1 0x20 DUP1 SWAP2 DIV MUL PUSH1 0x20 ADD PUSH1 0x40 MLOAD SWAP1 DUP2 ADD PUSH1 0x40 MSTORE DUP1 SWAP3 SWAP2 SWAP1 DUP2 DUP2 MSTORE PUSH1 0x20 ADD DUP3 DUP1 SLOAD PUSH2 0xE37 SWAP1 PUSH2 0x594E JUMP JUMPDEST DUP1 ISZERO PUSH2 0xE84 JUMPI DUP1 PUSH1 0x1F LT PUSH2 0xE59 JUMPI PUSH2 0x100 DUP1 DUP4 SLOAD DIV MUL DUP4 MSTORE SWAP2 PUSH1 0x20 ADD SWAP2 PUSH2 0xE84 JUMP JUMPDEST DUP3 ADD SWAP2 SWAP1 PUSH1 0x0 MSTORE PUSH1 0x20 PUSH1 0x0 KECCAK256 SWAP1 JUMPDEST DUP2 SLOAD DUP2 MSTORE SWAP1 PUSH1 0x1 ADD SWAP1 PUSH1 0x20 ADD DUP1 DUP4 GT PUSH2 0xE67 JUMPI DUP3 SWAP1 SUB PUSH1 0x1F AND DUP3 ADD SWAP2 JUMPDEST POP POP POP POP POP SWAP1 DUP1 PUSH1 0x13 ADD SLOAD SWAP1 DUP1 PUSH1 0x14 ADD SLOAD SWAP1 DUP1 PUSH1 0x15 ADD SLOAD SWAP1 DUP1 PUSH1 0x16 ADD SLOAD SWAP1 DUP1 PUSH1 0x19 ADD SLOAD SWAP1 DUP1 PUSH1 0x1A ADD SLOAD SWAP1 POP DUP9 JUMP JUMPDEST PUSH2 0xEBA PUSH2 0x3B97 JUMP JUMPDEST PUSH1 0x2 PUSH1 0x0 DUP4 DUP2 MSTORE PUSH1 0x20 ADD SWAP1 DUP2 MSTORE PUSH1 0x20 ADD PUSH1 0x0 KECCAK256 PUSH1 0x40 MLOAD DUP1 PUSH2 0x1C0 ADD PUSH1 0x40 MSTORE SWAP1 DUP2 PUSH1 0x0 DUP3 ADD PUSH1 0xC DUP1 PUSH1 0x20 MUL PUSH1 0x40 MLOAD SWAP1 DUP2 ADD PUSH1 0x40 MSTORE DUP1 SWAP3 SWAP2 SWAP1 PUSH1 0x0 SWAP1 JUMPDEST DUP3 DUP3 LT ISZERO PUSH2 0xF98 JUMPI DUP4 DUP3 ADD DUP1 SLOAD PUSH2 0xF0B SWAP1 PUSH2 0x594E JUMP JUMPDEST DUP1 PUSH1 0x1F ADD PUSH1 0x20 DUP1 SWAP2 DIV MUL PUSH1 0x20 ADD PUSH1 0x40 MLOAD SWAP1 DUP2 ADD PUSH1 0x40 MSTORE DUP1 SWAP3 SWAP2 SWAP1 DUP2 DUP2 MSTORE PUSH1 0x20 ADD DUP3 DUP1 SLOAD PUSH2 0xF37 SWAP1 PUSH2 0x594E JUMP JUMPDEST DUP1 ISZERO PUSH2 0xF84 JUMPI DUP1 PUSH1 0x1F LT PUSH2 0xF59 JUMPI PUSH2 0x100 DUP1 DUP4 SLOAD DIV MUL DUP4 MSTORE SWAP2 PUSH1 0x20 ADD SWAP2 PUSH2 0xF84 JUMP JUMPDEST DUP3 ADD SWAP2 SWAP1 PUSH1 0x0 MSTORE PUSH1 0x20 PUSH1 0x0 KECCAK256 SWAP1 JUMPDEST DUP2 SLOAD DUP2 MSTORE SWAP1 PUSH1 0x1 ADD SWAP1 PUSH1 0x20 ADD DUP1 DUP4 GT PUSH2 0xF67 JUMPI DUP3 SWAP1 SUB PUSH1 0x1F AND DUP3 ADD SWAP2 JUMPDEST POP POP POP POP POP DUP2 MSTORE PUSH1 0x20 ADD SWAP1 PUSH1 0x1 ADD SWAP1 PUSH2 0xEF5 JUMP JUMPDEST POP POP POP POP DUP2 MSTORE PUSH1 0x20 ADD PUSH1 0xC DUP3 ADD PUSH1 0x3 DUP1 PUSH1 0x20 MUL PUSH1 0x40 MLOAD SWAP1 DUP2 ADD PUSH1 0x40 MSTORE DUP1 SWAP3 SWAP2 SWAP1 DUP3 PUSH1 0x3 DUP1 ISZERO PUSH2 0xFDC JUMPI PUSH1 0x20 MUL DUP3 ADD SWAP2 JUMPDEST DUP2 SLOAD DUP2 MSTORE PUSH1 0x20 ADD SWAP1 PUSH1 0x1 ADD SWAP1 DUP1 DUP4 GT PUSH2 0xFC8 JUMPI JUMPDEST POP POP POP POP POP DUP2 MSTORE PUSH1 0x20 ADD PUSH1 0xF DUP3 ADD PUSH1 0x0 SWAP1 SLOAD SWAP1 PUSH2 0x100 EXP SWAP1 DIV PUSH20 0xFFFFFFFFFFFFFFFFFFFFFFFFFFFFFFFFFFFFFFFF AND PUSH20 0xFFFFFFFFFFFFFFFFFFFFFFFFFFFFFFFFFFFFFFFF AND PUSH20 0xFFFFFFFFFFFFFFFFFFFFFFFFFFFFFFFFFFFFFFFF AND DUP2 MSTORE PUSH1 0x20 ADD PUSH1 0x10 DUP3 ADD DUP1 SLOAD PUSH2 0x104B SWAP1 PUSH2 0x594E JUMP JUMPDEST DUP1 PUSH1 0x1F ADD PUSH1 0x20 DUP1 SWAP2 DIV MUL PUSH1 0x20 ADD PUSH1 0x40 MLOAD SWAP1 DUP2 ADD PUSH1 0x40 MSTORE DUP1 SWAP3 SWAP2 SWAP1 DUP2 DUP2 MSTORE PUSH1 0x20 ADD DUP3 DUP1 SLOAD PUSH2 0x1077 SWAP1 PUSH2 0x594E JUMP JUMPDEST DUP1 ISZERO PUSH2 0x10C4 JUMPI DUP1 PUSH1 0x1F LT PUSH2 0x1099 JUMPI PUSH2 0x100 DUP1 DUP4 SLOAD DIV MUL DUP4 MSTORE SWAP2 PUSH1 0x20 ADD SWAP2 PUSH2 0x10C4 JUMP JUMPDEST DUP3 ADD SWAP2 SWAP1 PUSH1 0x0 MSTORE PUSH1 0x20 PUSH1 0x0 KECCAK256 SWAP1 JUMPDEST DUP2 SLOAD DUP2 MSTORE SWAP1 PUSH1 0x1 ADD SWAP1 PUSH1 0x20 ADD DUP1 DUP4 GT PUSH2 0x10A7 JUMPI DUP3 SWAP1 SUB PUSH1 0x1F AND DUP3 ADD SWAP2 JUMPDEST POP POP POP POP POP DUP2 MSTORE PUSH1 0x20 ADD PUSH1 0x11 DUP3 ADD DUP1 SLOAD DUP1 PUSH1 0x20 MUL PUSH1 0x20 ADD PUSH1 0x40 MLOAD SWAP1 DUP2 ADD PUSH1 0x40 MSTORE DUP1 SWAP3 SWAP2 SWAP1 DUP2 DUP2 MSTORE PUSH1 0x20 ADD PUSH1 0x0 SWAP1 JUMPDEST DUP3 DUP3 LT ISZERO PUSH2 0x119E JUMPI DUP4 DUP3 SWAP1 PUSH1 0x0 MSTORE PUSH1 0x20 PUSH1 0x0 KECCAK256 ADD DUP1 SLOAD PUSH2 0x1111 SWAP1 PUSH2 0x594E JUMP JUMPDEST DUP1 PUSH1 0x1F ADD PUSH1 0x20 DUP1 SWAP2 DIV MUL PUSH1 0x20 ADD PUSH1 0x40 MLOAD SWAP1 DUP2 ADD PUSH1 0x40 MSTORE DUP1 SWAP3 SWAP2 SWAP1 DUP2 DUP2 MSTORE PUSH1 0x20 ADD DUP3 DUP1 SLOAD PUSH2 0x113D SWAP1 PUSH2 0x594E JUMP JUMPDEST DUP1 ISZERO PUSH2 0x118A JUMPI DUP1 PUSH1 0x1F LT PUSH2 0x115F JUMPI PUSH2 0x100 DUP1 DUP4 SLOAD DIV MUL DUP4 MSTORE SWAP2 PUSH1 0x20 ADD SWAP2 PUSH2 0x118A JUMP JUMPDEST DUP3 ADD SWAP2 SWAP1 PUSH1 0x0 MSTORE PUSH1 0x20 PUSH1 0x0 KECCAK256 SWAP1 JUMPDEST DUP2 SLOAD DUP2 MSTORE SWAP1 PUSH1 0x1 ADD SWAP1 PUSH1 0x20 ADD DUP1 DUP4 GT PUSH2 0x116D JUMPI DUP3 SWAP1 SUB PUSH1 0x1F AND DUP3 ADD SWAP2 JUMPDEST POP POP POP POP POP DUP2 MSTORE PUSH1 0x20 ADD SWAP1 PUSH1 0x1 ADD SWAP1 PUSH2 0x10F2 JUMP JUMPDEST POP POP POP POP DUP2 MSTORE PUSH1 0x20 ADD PUSH1 0x12 DUP3 ADD DUP1 SLOAD DUP1 PUSH1 0x20 MUL PUSH1 0x20 ADD PUSH1 0x40 MLOAD SWAP1 DUP2 ADD PUSH1 0x40 MSTORE DUP1 SWAP3 SWAP2 SWAP1 DUP2 DUP2 MSTORE PUSH1 0x20 ADD PUSH1 0x0 SWAP1 JUMPDEST DUP3 DUP3 LT ISZERO PUSH2 0x13F8 JUMPI DUP4 DUP3 SWAP1 PUSH1 0x0 MSTORE PUSH1 0x20 PUSH1 0x0 KECCAK256 SWAP1 PUSH1 0x7 MUL ADD PUSH1 0x40 MLOAD DUP1 PUSH1 0x80 ADD PUSH1 0x40 MSTORE SWAP1 DUP2 PUSH1 0x0 DUP3 ADD PUSH1 0x4 DUP1 PUSH1 0x20 MUL PUSH1 0x40 MLOAD SWAP1 DUP2 ADD PUSH1 0x40 MSTORE DUP1 SWAP3 SWAP2 SWAP1 DUP3 PUSH1 0x4 DUP1 ISZERO PUSH2 0x122A JUMPI PUSH1 0x20 MUL DUP3 ADD SWAP2 JUMPDEST DUP2 SLOAD DUP2 MSTORE PUSH1 0x20 ADD SWAP1 PUSH1 0x1 ADD SWAP1 DUP1 DUP4 GT PUSH2 0x1216 JUMPI JUMPDEST POP POP POP POP POP DUP2 MSTORE PUSH1 0x20 ADD PUSH1 0x4 DUP3 ADD DUP1 SLOAD PUSH2 0x1243 SWAP1 PUSH2 0x594E JUMP JUMPDEST DUP1 PUSH1 0x1F ADD PUSH1 0x20 DUP1 SWAP2 DIV MUL PUSH1 0x20 ADD PUSH1 0x40 MLOAD SWAP1 DUP2 ADD PUSH1 0x40 MSTORE DUP1 SWAP3 SWAP2 SWAP1 DUP2 DUP2 MSTORE PUSH1 0x20 ADD DUP3 DUP1 SLOAD PUSH2 0x126F SWAP1 PUSH2 0x594E JUMP JUMPDEST DUP1 ISZERO PUSH2 0x12BC JUMPI DUP1 PUSH1 0x1F LT PUSH2 0x1291 JUMPI PUSH2 0x100 DUP1 DUP4 SLOAD DIV MUL DUP4 MSTORE SWAP2 PUSH1 0x20 ADD SWAP2 PUSH2 0x12BC JUMP JUMPDEST DUP3 ADD SWAP2 SWAP1 PUSH1 0x0 MSTORE PUSH1 0x20 PUSH1 0x0 KECCAK256 SWAP1 JUMPDEST DUP2 SLOAD DUP2 MSTORE SWAP1 PUSH1 0x1 ADD SWAP1 PUSH1 0x20 ADD DUP1 DUP4 GT PUSH2 0x129F JUMPI DUP3 SWAP1 SUB PUSH1 0x1F AND DUP3 ADD SWAP2 JUMPDEST POP POP POP POP POP DUP2 MSTORE PUSH1 0x20 ADD PUSH1 0x5 DUP3 ADD DUP1 SLOAD PUSH2 0x12D5 SWAP1 PUSH2 0x594E JUMP JUMPDEST DUP1 PUSH1 0x1F ADD PUSH1 0x20 DUP1 SWAP2 DIV MUL PUSH1 0x20 ADD PUSH1 0x40 MLOAD SWAP1 DUP2 ADD PUSH1 0x40 MSTORE DUP1 SWAP3 SWAP2 SWAP1 DUP2 DUP2 MSTORE PUSH1 0x20 ADD DUP3 DUP1 SLOAD PUSH2 0x1301 SWAP1 PUSH2 0x594E JUMP JUMPDEST DUP1 ISZERO PUSH2 0x134E JUMPI DUP1 PUSH1 0x1F LT PUSH2 0x1323 JUMPI PUSH2 0x100 DUP1 DUP4 SLOAD DIV MUL DUP4 MSTORE SWAP2 PUSH1 0x20 ADD SWAP2 PUSH2 0x134E JUMP JUMPDEST DUP3 ADD SWAP2 SWAP1 PUSH1 0x0 MSTORE PUSH1 0x20 PUSH1 0x0 KECCAK256 SWAP1 JUMPDEST DUP2 SLOAD DUP2 MSTORE SWAP1 PUSH1 0x1 ADD SWAP1 PUSH1 0x20 ADD DUP1 DUP4 GT PUSH2 0x1331 JUMPI DUP3 SWAP1 SUB PUSH1 0x1F AND DUP3 ADD SWAP2 JUMPDEST POP POP POP POP POP DUP2 MSTORE PUSH1 0x20 ADD PUSH1 0x6 DUP3 ADD DUP1 SLOAD PUSH2 0x1367 SWAP1 PUSH2 0x594E JUMP JUMPDEST DUP1 PUSH1 0x1F ADD PUSH1 0x20 DUP1 SWAP2 DIV MUL PUSH1 0x20 ADD PUSH1 0x40 MLOAD SWAP1 DUP2 ADD PUSH1 0x40 MSTORE DUP1 SWAP3 SWAP2 SWAP1 DUP2 DUP2 MSTORE PUSH1 0x20 ADD DUP3 DUP1 SLOAD PUSH2 0x1393 SWAP1 PUSH2 0x594E JUMP JUMPDEST DUP1 ISZERO PUSH2 0x13E0 JUMPI DUP1 PUSH1 0x1F LT PUSH2 0x13B5 JUMPI PUSH2 0x100 DUP1 DUP4 SLOAD DIV MUL DUP4 MSTORE SWAP2 PUSH1 0x20 ADD SWAP2 PUSH2 0x13E0 JUMP JUMPDEST DUP3 ADD SWAP2 SWAP1 PUSH1 0x0 MSTORE PUSH1 0x20 PUSH1 0x0 KECCAK256 SWAP1 JUMPDEST DUP2 SLOAD DUP2 MSTORE SWAP1 PUSH1 0x1 ADD SWAP1 PUSH1 0x20 ADD DUP1 DUP4 GT PUSH2 0x13C3 JUMPI DUP3 SWAP1 SUB PUSH1 0x1F AND DUP3 ADD SWAP2 JUMPDEST POP POP POP POP POP DUP2 MSTORE POP POP DUP2 MSTORE PUSH1 0x20 ADD SWAP1 PUSH1 0x1 ADD SWAP1 PUSH2 0x11CB JUMP JUMPDEST POP POP POP POP DUP2 MSTORE PUSH1 0x20 ADD PUSH1 0x13 DUP3 ADD SLOAD DUP2 MSTORE PUSH1 0x20 ADD PUSH1 0x14 DUP3 ADD SLOAD DUP2 MSTORE PUSH1 0x20 ADD PUSH1 0x15 DUP3 ADD SLOAD DUP2 MSTORE PUSH1 0x20 ADD PUSH1 0x16 DUP3 ADD SLOAD DUP2 MSTORE PUSH1 0x20 ADD PUSH1 0x17 DUP3 ADD DUP1 SLOAD DUP1 PUSH1 0x20 MUL PUSH1 0x20 ADD PUSH1 0x40 MLOAD SWAP1 DUP2 ADD PUSH1 0x40 MSTORE DUP1 SWAP3 SWAP2 SWAP1 DUP2 DUP2 MSTORE PUSH1 0x20 ADD DUP3 DUP1 SLOAD DUP1 ISZERO PUSH2 0x1477 JUMPI PUSH1 0x20 MUL DUP3 ADD SWAP2 SWAP1 PUSH1 0x0 MSTORE PUSH1 0x20 PUSH1 0x0 KECCAK256 SWAP1 JUMPDEST DUP2 SLOAD DUP2 MSTORE PUSH1 0x20 ADD SWAP1 PUSH1 0x1 ADD SWAP1 DUP1 DUP4 GT PUSH2 0x1463 JUMPI JUMPDEST POP POP POP POP POP DUP2 MSTORE PUSH1 0x20 ADD PUSH1 0x18 DUP3 ADD DUP1 SLOAD DUP1 PUSH1 0x20 MUL PUSH1 0x20 ADD PUSH1 0x40 MLOAD SWAP1 DUP2 ADD PUSH1 0x40 MSTORE DUP1 SWAP3 SWAP2 SWAP1 DUP2 DUP2 MSTORE PUSH1 0x20 ADD PUSH1 0x0 SWAP1 JUMPDEST DUP3 DUP3 LT ISZERO PUSH2 0x1551 JUMPI DUP4 DUP3 SWAP1 PUSH1 0x0 MSTORE PUSH1 0x20 PUSH1 0x0 KECCAK256 ADD DUP1 SLOAD PUSH2 0x14C4 SWAP1 PUSH2 0x594E JUMP JUMPDEST DUP1 PUSH1 0x1F ADD PUSH1 0x20 DUP1 SWAP2 DIV MUL PUSH1 0x20 ADD PUSH1 0x40 MLOAD SWAP1 DUP2 ADD PUSH1 0x40 MSTORE DUP1 SWAP3 SWAP2 SWAP1 DUP2 DUP2 MSTORE PUSH1 0x20 ADD DUP3 DUP1 SLOAD PUSH2 0x14F0 SWAP1 PUSH2 0x594E JUMP JUMPDEST DUP1 ISZERO PUSH2 0x153D JUMPI DUP1 PUSH1 0x1F LT PUSH2 0x1512 JUMPI PUSH2 0x100 DUP1 DUP4 SLOAD DIV MUL DUP4 MSTORE SWAP2 PUSH1 0x20 ADD SWAP2 PUSH2 0x153D JUMP JUMPDEST DUP3 ADD SWAP2 SWAP1 PUSH1 0x0 MSTORE PUSH1 0x20 PUSH1 0x0 KECCAK256 SWAP1 JUMPDEST DUP2 SLOAD DUP2 MSTORE SWAP1 PUSH1 0x1 ADD SWAP1 PUSH1 0x20 ADD DUP1 DUP4 GT PUSH2 0x1520 JUMPI DUP3 SWAP1 SUB PUSH1 0x1F AND DUP3 ADD SWAP2 JUMPDEST POP POP POP POP POP DUP2 MSTORE PUSH1 0x20 ADD SWAP1 PUSH1 0x1 ADD SWAP1 PUSH2 0x14A5 JUMP JUMPDEST POP POP POP POP DUP2 MSTORE PUSH1 0x20 ADD PUSH1 0x19 DUP3 ADD SLOAD DUP2 MSTORE PUSH1 0x20 ADD PUSH1 0x1A DUP3 ADD SLOAD DUP2 MSTORE POP POP SWAP1 POP SWAP2 SWAP1 POP JUMP JUMPDEST PUSH1 0x0 DUP1 PUSH1 0x8 PUSH1 0x0 PUSH1 0x9 SLOAD DUP2 MSTORE PUSH1 0x20 ADD SWAP1 DUP2 MSTORE PUSH1 0x20 ADD PUSH1 0x0 KECCAK256 SWAP1 POP DUP11 PUSH1 0x0 PUSH1 0xA DUP2 LT PUSH2 0x15A2 JUMPI PUSH2 0x15A1 PUSH2 0x5980 JUMP JUMPDEST JUMPDEST PUSH1 0x20 MUL ADD MLOAD DUP2 PUSH1 0x0 ADD PUSH1 0x0 PUSH1 0xA DUP2 LT PUSH2 0x15BE JUMPI PUSH2 0x15BD PUSH2 0x5980 JUMP JUMPDEST JUMPDEST ADD SWAP1 DUP1 MLOAD SWAP1 PUSH1 0x20 ADD SWAP1 PUSH2 0x15D2 SWAP3 SWAP2 SWAP1 PUSH2 0x3C28 JUMP JUMPDEST POP DUP11 PUSH1 0x1 PUSH1 0xA DUP2 LT PUSH2 0x15E7 JUMPI PUSH2 0x15E6 PUSH2 0x5980 JUMP JUMPDEST JUMPDEST PUSH1 0x20 MUL ADD MLOAD DUP2 PUSH1 0x0 ADD PUSH1 0x1 PUSH1 0xA DUP2 LT PUSH2 0x1603 JUMPI PUSH2 0x1602 PUSH2 0x5980 JUMP JUMPDEST JUMPDEST ADD SWAP1 DUP1 MLOAD SWAP1 PUSH1 0x20 ADD SWAP1 PUSH2 0x1617 SWAP3 SWAP2 SWAP1 PUSH2 0x3C28 JUMP JUMPDEST POP DUP11 PUSH1 0x2 PUSH1 0xA DUP2 LT PUSH2 0x162C JUMPI PUSH2 0x162B PUSH2 0x5980 JUMP JUMPDEST JUMPDEST PUSH1 0x20 MUL ADD MLOAD DUP2 PUSH1 0x0 ADD PUSH1 0x2 PUSH1 0xA DUP2 LT PUSH2 0x1648 JUMPI PUSH2 0x1647 PUSH2 0x5980 JUMP JUMPDEST JUMPDEST ADD SWAP1 DUP1 MLOAD SWAP1 PUSH1 0x20 ADD SWAP1 PUSH2 0x165C SWAP3 SWAP2 SWAP1 PUSH2 0x3C28 JUMP JUMPDEST POP DUP11 PUSH1 0x3 PUSH1 0xA DUP2 LT PUSH2 0x1671 JUMPI PUSH2 0x1670 PUSH2 0x5980 JUMP JUMPDEST JUMPDEST PUSH1 0x20 MUL ADD MLOAD DUP2 PUSH1 0x0 ADD PUSH1 0x3 PUSH1 0xA DUP2 LT PUSH2 0x168D JUMPI PUSH2 0x168C PUSH2 0x5980 JUMP JUMPDEST JUMPDEST ADD SWAP1 DUP1 MLOAD SWAP1 PUSH1 0x20 ADD SWAP1 PUSH2 0x16A1 SWAP3 SWAP2 SWAP1 PUSH2 0x3C28 JUMP JUMPDEST POP DUP11 PUSH1 0x4 PUSH1 0xA DUP2 LT PUSH2 0x16B6 JUMPI PUSH2 0x16B5 PUSH2 0x5980 JUMP JUMPDEST JUMPDEST PUSH1 0x20 MUL ADD MLOAD DUP2 PUSH1 0x0 ADD PUSH1 0x4 PUSH1 0xA DUP2 LT PUSH2 0x16D2 JUMPI PUSH2 0x16D1 PUSH2 0x5980 JUMP JUMPDEST JUMPDEST ADD SWAP1 DUP1 MLOAD SWAP1 PUSH1 0x20 ADD SWAP1 PUSH2 0x16E6 SWAP3 SWAP2 SWAP1 PUSH2 0x3C28 JUMP JUMPDEST POP DUP11 PUSH1 0x5 PUSH1 0xA DUP2 LT PUSH2 0x16FB JUMPI PUSH2 0x16FA PUSH2 0x5980 JUMP JUMPDEST JUMPDEST PUSH1 0x20 MUL ADD MLOAD DUP2 PUSH1 0x0 ADD PUSH1 0x5 PUSH1 0xA DUP2 LT PUSH2 0x1717 JUMPI PUSH2 0x1716 PUSH2 0x5980 JUMP JUMPDEST JUMPDEST ADD SWAP1 DUP1 MLOAD SWAP1 PUSH1 0x20 ADD SWAP1 PUSH2 0x172B SWAP3 SWAP2 SWAP1 PUSH2 0x3C28 JUMP JUMPDEST POP DUP11 PUSH1 0x6 PUSH1 0xA DUP2 LT PUSH2 0x1740 JUMPI PUSH2 0x173F PUSH2 0x5980 JUMP JUMPDEST JUMPDEST PUSH1 0x20 MUL ADD MLOAD DUP2 PUSH1 0x0 ADD PUSH1 0x6 PUSH1 0xA DUP2 LT PUSH2 0x175C JUMPI PUSH2 0x175B PUSH2 0x5980 JUMP JUMPDEST JUMPDEST ADD SWAP1 DUP1 MLOAD SWAP1 PUSH1 0x20 ADD SWAP1 PUSH2 0x1770 SWAP3 SWAP2 SWAP1 PUSH2 0x3C28 JUMP JUMPDEST POP DUP11 PUSH1 0x7 PUSH1 0xA DUP2 LT PUSH2 0x1785 JUMPI PUSH2 0x1784 PUSH2 0x5980 JUMP JUMPDEST JUMPDEST PUSH1 0x20 MUL ADD MLOAD DUP2 PUSH1 0x0 ADD PUSH1 0x7 PUSH1 0xA DUP2 LT PUSH2 0x17A1 JUMPI PUSH2 0x17A0 PUSH2 0x5980 JUMP JUMPDEST JUMPDEST ADD SWAP1 DUP1 MLOAD SWAP1 PUSH1 0x20 ADD SWAP1 PUSH2 0x17B5 SWAP3 SWAP2 SWAP1 PUSH2 0x3C28 JUMP JUMPDEST POP DUP11 PUSH1 0x8 PUSH1 0xA DUP2 LT PUSH2 0x17CA JUMPI PUSH2 0x17C9 PUSH2 0x5980 JUMP JUMPDEST JUMPDEST PUSH1 0x20 MUL ADD MLOAD DUP2 PUSH1 0x0 ADD PUSH1 0x8 PUSH1 0xA DUP2 LT PUSH2 0x17E6 JUMPI PUSH2 0x17E5 PUSH2 0x5980 JUMP JUMPDEST JUMPDEST ADD SWAP1 DUP1 MLOAD SWAP1 PUSH1 0x20 ADD SWAP1 PUSH2 0x17FA SWAP3 SWAP2 SWAP1 PUSH2 0x3C28 JUMP JUMPDEST POP DUP11 PUSH1 0x9 PUSH1 0xA DUP2 LT PUSH2 0x180F JUMPI PUSH2 0x180E PUSH2 0x5980 JUMP JUMPDEST JUMPDEST PUSH1 0x20 MUL ADD MLOAD DUP2 PUSH1 0x0 ADD PUSH1 0x9 PUSH1 0xA DUP2 LT PUSH2 0x182B JUMPI PUSH2 0x182A PUSH2 0x5980 JUMP JUMPDEST JUMPDEST ADD SWAP1 DUP1 MLOAD SWAP1 PUSH1 0x20 ADD SWAP1 PUSH2 0x183F SWAP3 SWAP2 SWAP1 PUSH2 0x3C28 JUMP JUMPDEST POP PUSH1 0x9 SLOAD DUP2 PUSH1 0xB ADD DUP2 SWAP1 SSTORE POP PUSH1 0x0 DUP2 PUSH1 0x14 ADD DUP2 SWAP1 SSTORE POP PUSH1 0x0 JUMPDEST DUP10 MLOAD DUP2 LT ISZERO PUSH2 0x18CC JUMPI DUP2 PUSH1 0xD ADD DUP11 DUP3 DUP2 MLOAD DUP2 LT PUSH2 0x1878 JUMPI PUSH2 0x1877 PUSH2 0x5980 JUMP JUMPDEST JUMPDEST PUSH1 0x20 MUL PUSH1 0x20 ADD ADD MLOAD SWAP1 DUP1 PUSH1 0x1 DUP2 SLOAD ADD DUP1 DUP3 SSTORE DUP1 SWAP2 POP POP PUSH1 0x1 SWAP1 SUB SWAP1 PUSH1 0x0 MSTORE PUSH1 0x20 PUSH1 0x0 KECCAK256 ADD PUSH1 0x0 SWAP1 SWAP2 SWAP1 SWAP2 SWAP1 SWAP2 POP SWAP1 DUP1 MLOAD SWAP1 PUSH1 0x20 ADD SWAP1 PUSH2 0x18B8 SWAP3 SWAP2 SWAP1 PUSH2 0x3C28 JUMP JUMPDEST POP DUP1 DUP1 PUSH2 0x18C4 SWAP1 PUSH2 0x59DE JUMP JUMPDEST SWAP2 POP POP PUSH2 0x1858 JUMP JUMPDEST POP PUSH1 0x0 JUMPDEST DUP9 MLOAD DUP2 LT ISZERO PUSH2 0x19E2 JUMPI DUP2 PUSH1 0xE ADD DUP10 DUP3 DUP2 MLOAD DUP2 LT PUSH2 0x18F0 JUMPI PUSH2 0x18EF PUSH2 0x5980 JUMP JUMPDEST JUMPDEST PUSH1 0x20 MUL PUSH1 0x20 ADD ADD MLOAD SWAP1 DUP1 PUSH1 0x1 DUP2 SLOAD ADD DUP1 DUP3 SSTORE DUP1 SWAP2 POP POP PUSH1 0x1 SWAP1 SUB SWAP1 PUSH1 0x0 MSTORE PUSH1 0x20 PUSH1 0x0 KECCAK256 ADD PUSH1 0x0 SWAP1 SWAP2 SWAP1 SWAP2 SWAP1 SWAP2 POP SWAP1 DUP1 MLOAD SWAP1 PUSH1 0x20 ADD SWAP1 PUSH2 0x1930 SWAP3 SWAP2 SWAP1 PUSH2 0x3C28 JUMP JUMPDEST POP DUP2 PUSH1 0x10 ADD DUP8 DUP3 DUP2 MLOAD DUP2 LT PUSH2 0x1948 JUMPI PUSH2 0x1947 PUSH2 0x5980 JUMP JUMPDEST JUMPDEST PUSH1 0x20 MUL PUSH1 0x20 ADD ADD MLOAD SWAP1 DUP1 PUSH1 0x1 DUP2 SLOAD ADD DUP1 DUP3 SSTORE DUP1 SWAP2 POP POP PUSH1 0x1 SWAP1 SUB SWAP1 PUSH1 0x0 MSTORE PUSH1 0x20 PUSH1 0x0 KECCAK256 ADD PUSH1 0x0 SWAP1 SWAP2 SWAP1 SWAP2 SWAP1 SWAP2 POP SSTORE DUP2 PUSH1 0xF ADD DUP9 DUP3 DUP2 MLOAD DUP2 LT PUSH2 0x198D JUMPI PUSH2 0x198C PUSH2 0x5980 JUMP JUMPDEST JUMPDEST PUSH1 0x20 MUL PUSH1 0x20 ADD ADD MLOAD SWAP1 DUP1 PUSH1 0x1 DUP2 SLOAD ADD DUP1 DUP3 SSTORE DUP1 SWAP2 POP POP PUSH1 0x1 SWAP1 SUB SWAP1 PUSH1 0x0 MSTORE PUSH1 0x20 PUSH1 0x0 KECCAK256 ADD PUSH1 0x0 SWAP1 SWAP2 SWAP1 SWAP2 SWAP1 SWAP2 POP SWAP1 DUP1 MLOAD SWAP1 PUSH1 0x20 ADD SWAP1 PUSH2 0x19CD SWAP3 SWAP2 SWAP1 PUSH2 0x3C28 JUMP JUMPDEST POP PUSH1 0x1 DUP2 PUSH2 0x19DB SWAP2 SWAP1 PUSH2 0x5A27 JUMP JUMPDEST SWAP1 POP PUSH2 0x18D0 JUMP JUMPDEST POP PUSH1 0x0 JUMPDEST DUP6 MLOAD DUP2 LT ISZERO PUSH2 0x1B0B JUMPI DUP2 PUSH1 0x11 ADD DUP7 DUP3 DUP2 MLOAD DUP2 LT PUSH2 0x1A06 JUMPI PUSH2 0x1A05 PUSH2 0x5980 JUMP JUMPDEST JUMPDEST PUSH1 0x20 MUL PUSH1 0x20 ADD ADD MLOAD SWAP1 DUP1 PUSH1 0x1 DUP2 SLOAD ADD DUP1 DUP3 SSTORE DUP1 SWAP2 POP POP PUSH1 0x1 SWAP1 SUB SWAP1 PUSH1 0x0 MSTORE PUSH1 0x20 PUSH1 0x0 KECCAK256 ADD PUSH1 0x0 SWAP1 SWAP2 SWAP1 SWAP2 SWAP1 SWAP2 POP SWAP1 DUP1 MLOAD SWAP1 PUSH1 0x20 ADD SWAP1 PUSH2 0x1A46 SWAP3 SWAP2 SWAP1 PUSH2 0x3C28 JUMP JUMPDEST POP DUP2 PUSH1 0x12 ADD DUP6 DUP3 DUP2 MLOAD DUP2 LT PUSH2 0x1A5E JUMPI PUSH2 0x1A5D PUSH2 0x5980 JUMP JUMPDEST JUMPDEST PUSH1 0x20 MUL PUSH1 0x20 ADD ADD MLOAD SWAP1 DUP1 PUSH1 0x1 DUP2 SLOAD ADD DUP1 DUP3 SSTORE DUP1 SWAP2 POP POP PUSH1 0x1 SWAP1 SUB SWAP1 PUSH1 0x0 MSTORE PUSH1 0x20 PUSH1 0x0 KECCAK256 ADD PUSH1 0x0 SWAP1 SWAP2 SWAP1 SWAP2 SWAP1 SWAP2 POP SWAP1 DUP1 MLOAD SWAP1 PUSH1 0x20 ADD SWAP1 PUSH2 0x1A9E SWAP3 SWAP2 SWAP1 PUSH2 0x3C28 JUMP JUMPDEST POP DUP2 PUSH1 0x13 ADD DUP5 DUP3 DUP2 MLOAD DUP2 LT PUSH2 0x1AB6 JUMPI PUSH2 0x1AB5 PUSH2 0x5980 JUMP JUMPDEST JUMPDEST PUSH1 0x20 MUL PUSH1 0x20 ADD ADD MLOAD SWAP1 DUP1 PUSH1 0x1 DUP2 SLOAD ADD DUP1 DUP3 SSTORE DUP1 SWAP2 POP POP PUSH1 0x1 SWAP1 SUB SWAP1 PUSH1 0x0 MSTORE PUSH1 0x20 PUSH1 0x0 KECCAK256 ADD PUSH1 0x0 SWAP1 SWAP2 SWAP1 SWAP2 SWAP1 SWAP2 POP SWAP1 DUP1 MLOAD SWAP1 PUSH1 0x20 ADD SWAP1 PUSH2 0x1AF6 SWAP3 SWAP2 SWAP1 PUSH2 0x3C28 JUMP JUMPDEST POP PUSH1 0x1 DUP2 PUSH2 0x1B04 SWAP2 SWAP1 PUSH2 0x5A27 JUMP JUMPDEST SWAP1 POP PUSH2 0x19E6 JUMP JUMPDEST POP DUP10 DUP2 PUSH1 0xC ADD PUSH1 0x0 PUSH2 0x100 EXP DUP2 SLOAD DUP2 PUSH20 0xFFFFFFFFFFFFFFFFFFFFFFFFFFFFFFFFFFFFFFFF MUL NOT AND SWAP1 DUP4 PUSH20 0xFFFFFFFFFFFFFFFFFFFFFFFFFFFFFFFFFFFFFFFF AND MUL OR SWAP1 SSTORE POP PUSH1 0x9 PUSH1 0x0 DUP2 SLOAD DUP1 SWAP3 SWAP2 SWAP1 PUSH2 0x1B62 SWAP1 PUSH2 0x59DE JUMP JUMPDEST SWAP2 SWAP1 POP SSTORE POP PUSH1 0x1 PUSH1 0x9 SLOAD PUSH2 0x1B76 SWAP2 SWAP1 PUSH2 0x5A7D JUMP JUMPDEST SWAP2 POP POP SWAP10 SWAP9 POP POP POP POP POP POP POP POP POP JUMP JUMPDEST PUSH1 0x9 SLOAD DUP2 JUMP JUMPDEST PUSH1 0x0 PUSH1 0x8 PUSH1 0x0 DUP5 DUP2 MSTORE PUSH1 0x20 ADD SWAP1 DUP2 MSTORE PUSH1 0x20 ADD PUSH1 0x0 KECCAK256 SWAP1 POP DUP2 DUP2 PUSH1 0xA ADD DUP2 SWAP1 SSTORE POP POP POP POP JUMP JUMPDEST PUSH1 0x0 PUSH1 0x20 MSTORE DUP1 PUSH1 0x0 MSTORE PUSH1 0x40 PUSH1 0x0 KECCAK256 PUSH1 0x0 SWAP2 POP SWAP1 POP DUP1 PUSH1 0x4 ADD DUP1 SLOAD PUSH2 0x1BD4 SWAP1 PUSH2 0x594E JUMP JUMPDEST DUP1 PUSH1 0x1F ADD PUSH1 0x20 DUP1 SWAP2 DIV MUL PUSH1 0x20 ADD PUSH1 0x40 MLOAD SWAP1 DUP2 ADD PUSH1 0x40 MSTORE DUP1 SWAP3 SWAP2 SWAP1 DUP2 DUP2 MSTORE PUSH1 0x20 ADD DUP3 DUP1 SLOAD PUSH2 0x1C00 SWAP1 PUSH2 0x594E JUMP JUMPDEST DUP1 ISZERO PUSH2 0x1C4D JUMPI DUP1 PUSH1 0x1F LT PUSH2 0x1C22 JUMPI PUSH2 0x100 DUP1 DUP4 SLOAD DIV MUL DUP4 MSTORE SWAP2 PUSH1 0x20 ADD SWAP2 PUSH2 0x1C4D JUMP JUMPDEST DUP3 ADD SWAP2 SWAP1 PUSH1 0x0 MSTORE PUSH1 0x20 PUSH1 0x0 KECCAK256 SWAP1 JUMPDEST DUP2 SLOAD DUP2 MSTORE SWAP1 PUSH1 0x1 ADD SWAP1 PUSH1 0x20 ADD DUP1 DUP4 GT PUSH2 0x1C30 JUMPI DUP3 SWAP1 SUB PUSH1 0x1F AND DUP3 ADD SWAP2 JUMPDEST POP POP POP POP POP SWAP1 DUP1 PUSH1 0x5 ADD DUP1 SLOAD PUSH2 0x1C62 SWAP1 PUSH2 0x594E JUMP JUMPDEST DUP1 PUSH1 0x1F ADD PUSH1 0x20 DUP1 SWAP2 DIV MUL PUSH1 0x20 ADD PUSH1 0x40 MLOAD SWAP1 DUP2 ADD PUSH1 0x40 MSTORE DUP1 SWAP3 SWAP2 SWAP1 DUP2 DUP2 MSTORE PUSH1 0x20 ADD DUP3 DUP1 SLOAD PUSH2 0x1C8E SWAP1 PUSH2 0x594E JUMP JUMPDEST DUP1 ISZERO PUSH2 0x1CDB JUMPI DUP1 PUSH1 0x1F LT PUSH2 0x1CB0 JUMPI PUSH2 0x100 DUP1 DUP4 SLOAD DIV MUL DUP4 MSTORE SWAP2 PUSH1 0x20 ADD SWAP2 PUSH2 0x1CDB JUMP JUMPDEST DUP3 ADD SWAP2 SWAP1 PUSH1 0x0 MSTORE PUSH1 0x20 PUSH1 0x0 KECCAK256 SWAP1 JUMPDEST DUP2 SLOAD DUP2 MSTORE SWAP1 PUSH1 0x1 ADD SWAP1 PUSH1 0x20 ADD DUP1 DUP4 GT PUSH2 0x1CBE JUMPI DUP3 SWAP1 SUB PUSH1 0x1F AND DUP3 ADD SWAP2 JUMPDEST POP POP POP POP POP SWAP1 DUP1 PUSH1 0x6 ADD DUP1 SLOAD PUSH2 0x1CF0 SWAP1 PUSH2 0x594E JUMP JUMPDEST DUP1 PUSH1 0x1F ADD PUSH1 0x20 DUP1 SWAP2 DIV MUL PUSH1 0x20 ADD PUSH1 0x40 MLOAD SWAP1 DUP2 ADD PUSH1 0x40 MSTORE DUP1 SWAP3 SWAP2 SWAP1 DUP2 DUP2 MSTORE PUSH1 0x20 ADD DUP3 DUP1 SLOAD PUSH2 0x1D1C SWAP1 PUSH2 0x594E JUMP JUMPDEST DUP1 ISZERO PUSH2 0x1D69 JUMPI DUP1 PUSH1 0x1F LT PUSH2 0x1D3E JUMPI PUSH2 0x100 DUP1 DUP4 SLOAD DIV MUL DUP4 MSTORE SWAP2 PUSH1 0x20 ADD SWAP2 PUSH2 0x1D69 JUMP JUMPDEST DUP3 ADD SWAP2 SWAP1 PUSH1 0x0 MSTORE PUSH1 0x20 PUSH1 0x0 KECCAK256 SWAP1 JUMPDEST DUP2 SLOAD DUP2 MSTORE SWAP1 PUSH1 0x1 ADD SWAP1 PUSH1 0x20 ADD DUP1 DUP4 GT PUSH2 0x1D4C JUMPI DUP3 SWAP1 SUB PUSH1 0x1F AND DUP3 ADD SWAP2 JUMPDEST POP POP POP POP POP SWAP1 POP DUP4 JUMP JUMPDEST PUSH1 0x60 PUSH1 0x0 PUSH1 0x3 SLOAD PUSH8 0xFFFFFFFFFFFFFFFF DUP2 GT ISZERO PUSH2 0x1D93 JUMPI PUSH2 0x1D92 PUSH2 0x4914 JUMP JUMPDEST JUMPDEST PUSH1 0x40 MLOAD SWAP1 DUP1 DUP3 MSTORE DUP1 PUSH1 0x20 MUL PUSH1 0x20 ADD DUP3 ADD PUSH1 0x40 MSTORE DUP1 ISZERO PUSH2 0x1DCC JUMPI DUP2 PUSH1 0x20 ADD JUMPDEST PUSH2 0x1DB9 PUSH2 0x3B97 JUMP JUMPDEST DUP2 MSTORE PUSH1 0x20 ADD SWAP1 PUSH1 0x1 SWAP1 SUB SWAP1 DUP2 PUSH2 0x1DB1 JUMPI SWAP1 POP JUMPDEST POP SWAP1 POP PUSH1 0x0 JUMPDEST PUSH1 0x3 SLOAD DUP2 LT ISZERO PUSH2 0x24C6 JUMPI PUSH1 0x0 PUSH1 0x2 PUSH1 0x0 DUP4 DUP2 MSTORE PUSH1 0x20 ADD SWAP1 DUP2 MSTORE PUSH1 0x20 ADD PUSH1 0x0 KECCAK256 SWAP1 POP DUP1 PUSH1 0x40 MLOAD DUP1 PUSH2 0x1C0 ADD PUSH1 0x40 MSTORE SWAP1 DUP2 PUSH1 0x0 DUP3 ADD PUSH1 0xC DUP1 PUSH1 0x20 MUL PUSH1 0x40 MLOAD SWAP1 DUP2 ADD PUSH1 0x40 MSTORE DUP1 SWAP3 SWAP2 SWAP1 PUSH1 0x0 SWAP1 JUMPDEST DUP3 DUP3 LT ISZERO PUSH2 0x1EBF JUMPI DUP4 DUP3 ADD DUP1 SLOAD PUSH2 0x1E32 SWAP1 PUSH2 0x594E JUMP JUMPDEST DUP1 PUSH1 0x1F ADD PUSH1 0x20 DUP1 SWAP2 DIV MUL PUSH1 0x20 ADD PUSH1 0x40 MLOAD SWAP1 DUP2 ADD PUSH1 0x40 MSTORE DUP1 SWAP3 SWAP2 SWAP1 DUP2 DUP2 MSTORE PUSH1 0x20 ADD DUP3 DUP1 SLOAD PUSH2 0x1E5E SWAP1 PUSH2 0x594E JUMP JUMPDEST DUP1 ISZERO PUSH2 0x1EAB JUMPI DUP1 PUSH1 0x1F LT PUSH2 0x1E80 JUMPI PUSH2 0x100 DUP1 DUP4 SLOAD DIV MUL DUP4 MSTORE SWAP2 PUSH1 0x20 ADD SWAP2 PUSH2 0x1EAB JUMP JUMPDEST DUP3 ADD SWAP2 SWAP1 PUSH1 0x0 MSTORE PUSH1 0x20 PUSH1 0x0 KECCAK256 SWAP1 JUMPDEST DUP2 SLOAD DUP2 MSTORE SWAP1 PUSH1 0x1 ADD SWAP1 PUSH1 0x20 ADD DUP1 DUP4 GT PUSH2 0x1E8E JUMPI DUP3 SWAP1 SUB PUSH1 0x1F AND DUP3 ADD SWAP2 JUMPDEST POP POP POP POP POP DUP2 MSTORE PUSH1 0x20 ADD SWAP1 PUSH1 0x1 ADD SWAP1 PUSH2 0x1E1C JUMP JUMPDEST POP POP POP POP DUP2 MSTORE PUSH1 0x20 ADD PUSH1 0xC DUP3 ADD PUSH1 0x3 DUP1 PUSH1 0x20 MUL PUSH1 0x40 MLOAD SWAP1 DUP2 ADD PUSH1 0x40 MSTORE DUP1 SWAP3 SWAP2 SWAP1 DUP3 PUSH1 0x3 DUP1 ISZERO PUSH2 0x1F03 JUMPI PUSH1 0x20 MUL DUP3 ADD SWAP2 JUMPDEST DUP2 SLOAD DUP2 MSTORE PUSH1 0x20 ADD SWAP1 PUSH1 0x1 ADD SWAP1 DUP1 DUP4 GT PUSH2 0x1EEF JUMPI JUMPDEST POP POP POP POP POP DUP2 MSTORE PUSH1 0x20 ADD PUSH1 0xF DUP3 ADD PUSH1 0x0 SWAP1 SLOAD SWAP1 PUSH2 0x100 EXP SWAP1 DIV PUSH20 0xFFFFFFFFFFFFFFFFFFFFFFFFFFFFFFFFFFFFFFFF AND PUSH20 0xFFFFFFFFFFFFFFFFFFFFFFFFFFFFFFFFFFFFFFFF AND PUSH20 0xFFFFFFFFFFFFFFFFFFFFFFFFFFFFFFFFFFFFFFFF AND DUP2 MSTORE PUSH1 0x20 ADD PUSH1 0x10 DUP3 ADD DUP1 SLOAD PUSH2 0x1F72 SWAP1 PUSH2 0x594E JUMP JUMPDEST DUP1 PUSH1 0x1F ADD PUSH1 0x20 DUP1 SWAP2 DIV MUL PUSH1 0x20 ADD PUSH1 0x40 MLOAD SWAP1 DUP2 ADD PUSH1 0x40 MSTORE DUP1 SWAP3 SWAP2 SWAP1 DUP2 DUP2 MSTORE PUSH1 0x20 ADD DUP3 DUP1 SLOAD PUSH2 0x1F9E SWAP1 PUSH2 0x594E JUMP JUMPDEST DUP1 ISZERO PUSH2 0x1FEB JUMPI DUP1 PUSH1 0x1F LT PUSH2 0x1FC0 JUMPI PUSH2 0x100 DUP1 DUP4 SLOAD DIV MUL DUP4 MSTORE SWAP2 PUSH1 0x20 ADD SWAP2 PUSH2 0x1FEB JUMP JUMPDEST DUP3 ADD SWAP2 SWAP1 PUSH1 0x0 MSTORE PUSH1 0x20 PUSH1 0x0 KECCAK256 SWAP1 JUMPDEST DUP2 SLOAD DUP2 MSTORE SWAP1 PUSH1 0x1 ADD SWAP1 PUSH1 0x20 ADD DUP1 DUP4 GT PUSH2 0x1FCE JUMPI DUP3 SWAP1 SUB PUSH1 0x1F AND DUP3 ADD SWAP2 JUMPDEST POP POP POP POP POP DUP2 MSTORE PUSH1 0x20 ADD PUSH1 0x11 DUP3 ADD DUP1 SLOAD DUP1 PUSH1 0x20 MUL PUSH1 0x20 ADD PUSH1 0x40 MLOAD SWAP1 DUP2 ADD PUSH1 0x40 MSTORE DUP1 SWAP3 SWAP2 SWAP1 DUP2 DUP2 MSTORE PUSH1 0x20 ADD PUSH1 0x0 SWAP1 JUMPDEST DUP3 DUP3 LT ISZERO PUSH2 0x20C5 JUMPI DUP4 DUP3 SWAP1 PUSH1 0x0 MSTORE PUSH1 0x20 PUSH1 0x0 KECCAK256 ADD DUP1 SLOAD PUSH2 0x2038 SWAP1 PUSH2 0x594E JUMP JUMPDEST DUP1 PUSH1 0x1F ADD PUSH1 0x20 DUP1 SWAP2 DIV MUL PUSH1 0x20 ADD PUSH1 0x40 MLOAD SWAP1 DUP2 ADD PUSH1 0x40 MSTORE DUP1 SWAP3 SWAP2 SWAP1 DUP2 DUP2 MSTORE PUSH1 0x20 ADD DUP3 DUP1 SLOAD PUSH2 0x2064 SWAP1 PUSH2 0x594E JUMP JUMPDEST DUP1 ISZERO PUSH2 0x20B1 JUMPI DUP1 PUSH1 0x1F LT PUSH2 0x2086 JUMPI PUSH2 0x100 DUP1 DUP4 SLOAD DIV MUL DUP4 MSTORE SWAP2 PUSH1 0x20 ADD SWAP2 PUSH2 0x20B1 JUMP JUMPDEST DUP3 ADD SWAP2 SWAP1 PUSH1 0x0 MSTORE PUSH1 0x20 PUSH1 0x0 KECCAK256 SWAP1 JUMPDEST DUP2 SLOAD DUP2 MSTORE SWAP1 PUSH1 0x1 ADD SWAP1 PUSH1 0x20 ADD DUP1 DUP4 GT PUSH2 0x2094 JUMPI DUP3 SWAP1 SUB PUSH1 0x1F AND DUP3 ADD SWAP2 JUMPDEST POP POP POP POP POP DUP2 MSTORE PUSH1 0x20 ADD SWAP1 PUSH1 0x1 ADD SWAP1 PUSH2 0x2019 JUMP JUMPDEST POP POP POP POP DUP2 MSTORE PUSH1 0x20 ADD PUSH1 0x12 DUP3 ADD DUP1 SLOAD DUP1 PUSH1 0x20 MUL PUSH1 0x20 ADD PUSH1 0x40 MLOAD SWAP1 DUP2 ADD PUSH1 0x40 MSTORE DUP1 SWAP3 SWAP2 SWAP1 DUP2 DUP2 MSTORE PUSH1 0x20 ADD PUSH1 0x0 SWAP1 JUMPDEST DUP3 DUP3 LT ISZERO PUSH2 0x231F JUMPI DUP4 DUP3 SWAP1 PUSH1 0x0 MSTORE PUSH1 0x20 PUSH1 0x0 KECCAK256 SWAP1 PUSH1 0x7 MUL ADD PUSH1 0x40 MLOAD DUP1 PUSH1 0x80 ADD PUSH1 0x40 MSTORE SWAP1 DUP2 PUSH1 0x0 DUP3 ADD PUSH1 0x4 DUP1 PUSH1 0x20 MUL PUSH1 0x40 MLOAD SWAP1 DUP2 ADD PUSH1 0x40 MSTORE DUP1 SWAP3 SWAP2 SWAP1 DUP3 PUSH1 0x4 DUP1 ISZERO PUSH2 0x2151 JUMPI PUSH1 0x20 MUL DUP3 ADD SWAP2 JUMPDEST DUP2 SLOAD DUP2 MSTORE PUSH1 0x20 ADD SWAP1 PUSH1 0x1 ADD SWAP1 DUP1 DUP4 GT PUSH2 0x213D JUMPI JUMPDEST POP POP POP POP POP DUP2 MSTORE PUSH1 0x20 ADD PUSH1 0x4 DUP3 ADD DUP1 SLOAD PUSH2 0x216A SWAP1 PUSH2 0x594E JUMP JUMPDEST DUP1 PUSH1 0x1F ADD PUSH1 0x20 DUP1 SWAP2 DIV MUL PUSH1 0x20 ADD PUSH1 0x40 MLOAD SWAP1 DUP2 ADD PUSH1 0x40 MSTORE DUP1 SWAP3 SWAP2 SWAP1 DUP2 DUP2 MSTORE PUSH1 0x20 ADD DUP3 DUP1 SLOAD PUSH2 0x2196 SWAP1 PUSH2 0x594E JUMP JUMPDEST DUP1 ISZERO PUSH2 0x21E3 JUMPI DUP1 PUSH1 0x1F LT PUSH2 0x21B8 JUMPI PUSH2 0x100 DUP1 DUP4 SLOAD DIV MUL DUP4 MSTORE SWAP2 PUSH1 0x20 ADD SWAP2 PUSH2 0x21E3 JUMP JUMPDEST DUP3 ADD SWAP2 SWAP1 PUSH1 0x0 MSTORE PUSH1 0x20 PUSH1 0x0 KECCAK256 SWAP1 JUMPDEST DUP2 SLOAD DUP2 MSTORE SWAP1 PUSH1 0x1 ADD SWAP1 PUSH1 0x20 ADD DUP1 DUP4 GT PUSH2 0x21C6 JUMPI DUP3 SWAP1 SUB PUSH1 0x1F AND DUP3 ADD SWAP2 JUMPDEST POP POP POP POP POP DUP2 MSTORE PUSH1 0x20 ADD PUSH1 0x5 DUP3 ADD DUP1 SLOAD PUSH2 0x21FC SWAP1 PUSH2 0x594E JUMP JUMPDEST DUP1 PUSH1 0x1F ADD PUSH1 0x20 DUP1 SWAP2 DIV MUL PUSH1 0x20 ADD PUSH1 0x40 MLOAD SWAP1 DUP2 ADD PUSH1 0x40 MSTORE DUP1 SWAP3 SWAP2 SWAP1 DUP2 DUP2 MSTORE PUSH1 0x20 ADD DUP3 DUP1 SLOAD PUSH2 0x2228 SWAP1 PUSH2 0x594E JUMP JUMPDEST DUP1 ISZERO PUSH2 0x2275 JUMPI DUP1 PUSH1 0x1F LT PUSH2 0x224A JUMPI PUSH2 0x100 DUP1 DUP4 SLOAD DIV MUL DUP4 MSTORE SWAP2 PUSH1 0x20 ADD SWAP2 PUSH2 0x2275 JUMP JUMPDEST DUP3 ADD SWAP2 SWAP1 PUSH1 0x0 MSTORE PUSH1 0x20 PUSH1 0x0 KECCAK256 SWAP1 JUMPDEST DUP2 SLOAD DUP2 MSTORE SWAP1 PUSH1 0x1 ADD SWAP1 PUSH1 0x20 ADD DUP1 DUP4 GT PUSH2 0x2258 JUMPI DUP3 SWAP1 SUB PUSH1 0x1F AND DUP3 ADD SWAP2 JUMPDEST POP POP POP POP POP DUP2 MSTORE PUSH1 0x20 ADD PUSH1 0x6 DUP3 ADD DUP1 SLOAD PUSH2 0x228E SWAP1 PUSH2 0x594E JUMP JUMPDEST DUP1 PUSH1 0x1F ADD PUSH1 0x20 DUP1 SWAP2 DIV MUL PUSH1 0x20 ADD PUSH1 0x40 MLOAD SWAP1 DUP2 ADD PUSH1 0x40 MSTORE DUP1 SWAP3 SWAP2 SWAP1 DUP2 DUP2 MSTORE PUSH1 0x20 ADD DUP3 DUP1 SLOAD PUSH2 0x22BA SWAP1 PUSH2 0x594E JUMP JUMPDEST DUP1 ISZERO PUSH2 0x2307 JUMPI DUP1 PUSH1 0x1F LT PUSH2 0x22DC JUMPI PUSH2 0x100 DUP1 DUP4 SLOAD DIV MUL DUP4 MSTORE SWAP2 PUSH1 0x20 ADD SWAP2 PUSH2 0x2307 JUMP JUMPDEST DUP3 ADD SWAP2 SWAP1 PUSH1 0x0 MSTORE PUSH1 0x20 PUSH1 0x0 KECCAK256 SWAP1 JUMPDEST DUP2 SLOAD DUP2 MSTORE SWAP1 PUSH1 0x1 ADD SWAP1 PUSH1 0x20 ADD DUP1 DUP4 GT PUSH2 0x22EA JUMPI DUP3 SWAP1 SUB PUSH1 0x1F AND DUP3 ADD SWAP2 JUMPDEST POP POP POP POP POP DUP2 MSTORE POP POP DUP2 MSTORE PUSH1 0x20 ADD SWAP1 PUSH1 0x1 ADD SWAP1 PUSH2 0x20F2 JUMP JUMPDEST POP POP POP POP DUP2 MSTORE PUSH1 0x20 ADD PUSH1 0x13 DUP3 ADD SLOAD DUP2 MSTORE PUSH1 0x20 ADD PUSH1 0x14 DUP3 ADD SLOAD DUP2 MSTORE PUSH1 0x20 ADD PUSH1 0x15 DUP3 ADD SLOAD DUP2 MSTORE PUSH1 0x20 ADD PUSH1 0x16 DUP3 ADD SLOAD DUP2 MSTORE PUSH1 0x20 ADD PUSH1 0x17 DUP3 ADD DUP1 SLOAD DUP1 PUSH1 0x20 MUL PUSH1 0x20 ADD PUSH1 0x40 MLOAD SWAP1 DUP2 ADD PUSH1 0x40 MSTORE DUP1 SWAP3 SWAP2 SWAP1 DUP2 DUP2 MSTORE PUSH1 0x20 ADD DUP3 DUP1 SLOAD DUP1 ISZERO PUSH2 0x239E JUMPI PUSH1 0x20 MUL DUP3 ADD SWAP2 SWAP1 PUSH1 0x0 MSTORE PUSH1 0x20 PUSH1 0x0 KECCAK256 SWAP1 JUMPDEST DUP2 SLOAD DUP2 MSTORE PUSH1 0x20 ADD SWAP1 PUSH1 0x1 ADD SWAP1 DUP1 DUP4 GT PUSH2 0x238A JUMPI JUMPDEST POP POP POP POP POP DUP2 MSTORE PUSH1 0x20 ADD PUSH1 0x18 DUP3 ADD DUP1 SLOAD DUP1 PUSH1 0x20 MUL PUSH1 0x20 ADD PUSH1 0x40 MLOAD SWAP1 DUP2 ADD PUSH1 0x40 MSTORE DUP1 SWAP3 SWAP2 SWAP1 DUP2 DUP2 MSTORE PUSH1 0x20 ADD PUSH1 0x0 SWAP1 JUMPDEST DUP3 DUP3 LT ISZERO PUSH2 0x2478 JUMPI DUP4 DUP3 SWAP1 PUSH1 0x0 MSTORE PUSH1 0x20 PUSH1 0x0 KECCAK256 ADD DUP1 SLOAD PUSH2 0x23EB SWAP1 PUSH2 0x594E JUMP JUMPDEST DUP1 PUSH1 0x1F ADD PUSH1 0x20 DUP1 SWAP2 DIV MUL PUSH1 0x20 ADD PUSH1 0x40 MLOAD SWAP1 DUP2 ADD PUSH1 0x40 MSTORE DUP1 SWAP3 SWAP2 SWAP1 DUP2 DUP2 MSTORE PUSH1 0x20 ADD DUP3 DUP1 SLOAD PUSH2 0x2417 SWAP1 PUSH2 0x594E JUMP JUMPDEST DUP1 ISZERO PUSH2 0x2464 JUMPI DUP1 PUSH1 0x1F LT PUSH2 0x2439 JUMPI PUSH2 0x100 DUP1 DUP4 SLOAD DIV MUL DUP4 MSTORE SWAP2 PUSH1 0x20 ADD SWAP2 PUSH2 0x2464 JUMP JUMPDEST DUP3 ADD SWAP2 SWAP1 PUSH1 0x0 MSTORE PUSH1 0x20 PUSH1 0x0 KECCAK256 SWAP1 JUMPDEST DUP2 SLOAD DUP2 MSTORE SWAP1 PUSH1 0x1 ADD SWAP1 PUSH1 0x20 ADD DUP1 DUP4 GT PUSH2 0x2447 JUMPI DUP3 SWAP1 SUB PUSH1 0x1F AND DUP3 ADD SWAP2 JUMPDEST POP POP POP POP POP DUP2 MSTORE PUSH1 0x20 ADD SWAP1 PUSH1 0x1 ADD SWAP1 PUSH2 0x23CC JUMP JUMPDEST POP POP POP POP DUP2 MSTORE PUSH1 0x20 ADD PUSH1 0x19 DUP3 ADD SLOAD DUP2 MSTORE PUSH1 0x20 ADD PUSH1 0x1A DUP3 ADD SLOAD DUP2 MSTORE POP POP DUP4 DUP4 DUP2 MLOAD DUP2 LT PUSH2 0x24A7 JUMPI PUSH2 0x24A6 PUSH2 0x5980 JUMP JUMPDEST JUMPDEST PUSH1 0x20 MUL PUSH1 0x20 ADD ADD DUP2 SWAP1 MSTORE POP POP DUP1 DUP1 PUSH2 0x24BE SWAP1 PUSH2 0x59DE JUMP JUMPDEST SWAP2 POP POP PUSH2 0x1DD2 JUMP JUMPDEST POP DUP1 SWAP2 POP POP SWAP1 JUMP JUMPDEST PUSH1 0x0 DUP1 PUSH1 0x0 PUSH1 0x1 SLOAD DUP2 MSTORE PUSH1 0x20 ADD SWAP1 DUP2 MSTORE PUSH1 0x20 ADD PUSH1 0x0 KECCAK256 SWAP1 POP DUP7 DUP2 PUSH1 0x0 ADD PUSH1 0x0 PUSH1 0x4 DUP2 LT PUSH2 0x24FE JUMPI PUSH2 0x24FD PUSH2 0x5980 JUMP JUMPDEST JUMPDEST ADD DUP2 SWAP1 SSTORE POP DUP6 DUP2 PUSH1 0x0 ADD PUSH1 0x1 PUSH1 0x4 DUP2 LT PUSH2 0x251B JUMPI PUSH2 0x251A PUSH2 0x5980 JUMP JUMPDEST JUMPDEST ADD DUP2 SWAP1 SSTORE POP DUP5 DUP2 PUSH1 0x0 ADD PUSH1 0x2 PUSH1 0x4 DUP2 LT PUSH2 0x2538 JUMPI PUSH2 0x2537 PUSH2 0x5980 JUMP JUMPDEST JUMPDEST ADD DUP2 SWAP1 SSTORE POP DUP4 DUP2 PUSH1 0x0 ADD PUSH1 0x3 PUSH1 0x4 DUP2 LT PUSH2 0x2555 JUMPI PUSH2 0x2554 PUSH2 0x5980 JUMP JUMPDEST JUMPDEST ADD DUP2 SWAP1 SSTORE POP DUP3 DUP2 PUSH1 0x4 ADD SWAP1 DUP1 MLOAD SWAP1 PUSH1 0x20 ADD SWAP1 PUSH2 0x2572 SWAP3 SWAP2 SWAP1 PUSH2 0x3C28 JUMP JUMPDEST POP DUP2 DUP2 PUSH1 0x5 ADD SWAP1 DUP1 MLOAD SWAP1 PUSH1 0x20 ADD SWAP1 PUSH2 0x258B SWAP3 SWAP2 SWAP1 PUSH2 0x3C28 JUMP JUMPDEST POP DUP8 DUP2 PUSH1 0x6 ADD SWAP1 DUP1 MLOAD SWAP1 PUSH1 0x20 ADD SWAP1 PUSH2 0x25A4 SWAP3 SWAP2 SWAP1 PUSH2 0x3C28 JUMP JUMPDEST POP PUSH1 0x0 PUSH1 0x2 PUSH1 0x0 DUP12 DUP2 MSTORE PUSH1 0x20 ADD SWAP1 DUP2 MSTORE PUSH1 0x20 ADD PUSH1 0x0 KECCAK256 SWAP1 POP DUP1 PUSH1 0x12 ADD DUP3 SWAP1 DUP1 PUSH1 0x1 DUP2 SLOAD ADD DUP1 DUP3 SSTORE DUP1 SWAP2 POP POP PUSH1 0x1 SWAP1 SUB SWAP1 PUSH1 0x0 MSTORE PUSH1 0x20 PUSH1 0x0 KECCAK256 SWAP1 PUSH1 0x7 MUL ADD PUSH1 0x0 SWAP1 SWAP2 SWAP1 SWAP2 SWAP1 SWAP2 POP PUSH1 0x0 DUP3 ADD DUP2 PUSH1 0x0 ADD SWAP1 PUSH1 0x4 PUSH2 0x2600 SWAP3 SWAP2 SWAP1 PUSH2 0x3CAE JUMP JUMPDEST POP PUSH1 0x4 DUP3 ADD DUP2 PUSH1 0x4 ADD SWAP1 DUP1 SLOAD PUSH2 0x2615 SWAP1 PUSH2 0x594E JUMP JUMPDEST PUSH2 0x2620 SWAP3 SWAP2 SWAP1 PUSH2 0x3CEB JUMP JUMPDEST POP PUSH1 0x5 DUP3 ADD DUP2 PUSH1 0x5 ADD SWAP1 DUP1 SLOAD PUSH2 0x2635 SWAP1 PUSH2 0x594E JUMP JUMPDEST PUSH2 0x2640 SWAP3 SWAP2 SWAP1 PUSH2 0x3CEB JUMP JUMPDEST POP PUSH1 0x6 DUP3 ADD DUP2 PUSH1 0x6 ADD SWAP1 DUP1 SLOAD PUSH2 0x2655 SWAP1 PUSH2 0x594E JUMP JUMPDEST PUSH2 0x2660 SWAP3 SWAP2 SWAP1 PUSH2 0x3CEB JUMP JUMPDEST POP POP POP PUSH1 0x1 PUSH1 0x0 DUP2 SLOAD DUP1 SWAP3 SWAP2 SWAP1 PUSH2 0x2676 SWAP1 PUSH2 0x59DE JUMP JUMPDEST SWAP2 SWAP1 POP SSTORE POP POP POP POP POP POP POP POP POP POP POP JUMP JUMPDEST PUSH1 0x8 PUSH1 0x20 MSTORE DUP1 PUSH1 0x0 MSTORE PUSH1 0x40 PUSH1 0x0 KECCAK256 PUSH1 0x0 SWAP2 POP SWAP1 POP DUP1 PUSH1 0xA ADD SLOAD SWAP1 DUP1 PUSH1 0xB ADD SLOAD SWAP1 DUP1 PUSH1 0xC ADD PUSH1 0x0 SWAP1 SLOAD SWAP1 PUSH2 0x100 EXP SWAP1 DIV PUSH20 0xFFFFFFFFFFFFFFFFFFFFFFFFFFFFFFFFFFFFFFFF AND SWAP1 DUP1 PUSH1 0x14 ADD SLOAD SWAP1 POP DUP5 JUMP JUMPDEST PUSH1 0x3 SLOAD DUP2 JUMP JUMPDEST PUSH1 0x4 PUSH1 0x20 MSTORE DUP1 PUSH1 0x0 MSTORE PUSH1 0x40 PUSH1 0x0 KECCAK256 PUSH1 0x0 SWAP2 POP SWAP1 POP DUP1 PUSH1 0x2 ADD SLOAD SWAP1 POP DUP2 JUMP JUMPDEST PUSH1 0x0 DUP1 PUSH1 0x2 PUSH1 0x0 DUP7 DUP2 MSTORE PUSH1 0x20 ADD SWAP1 DUP2 MSTORE PUSH1 0x20 ADD PUSH1 0x0 KECCAK256 SWAP1 POP PUSH1 0x0 PUSH1 0x8 PUSH1 0x0 DUP7 DUP2 MSTORE PUSH1 0x20 ADD SWAP1 DUP2 MSTORE PUSH1 0x20 ADD PUSH1 0x0 KECCAK256 SWAP1 POP DUP5 DUP3 PUSH1 0x13 ADD DUP2 SWAP1 SSTORE POP PUSH1 0x0 DUP3 PUSH1 0x16 ADD DUP2 SWAP1 SSTORE POP DUP4 DUP3 PUSH1 0x14 ADD DUP2 SWAP1 SSTORE POP PUSH1 0x1 DUP2 PUSH1 0x14 ADD DUP2 SWAP1 SSTORE POP DUP6 SWAP3 POP POP POP SWAP4 SWAP3 POP POP POP JUMP JUMPDEST PUSH1 0x5 SLOAD DUP2 JUMP JUMPDEST PUSH1 0x7 SLOAD DUP2 JUMP JUMPDEST PUSH1 0x0 PUSH1 0x2 PUSH1 0x0 DUP5 DUP2 MSTORE PUSH1 0x20 ADD SWAP1 DUP2 MSTORE PUSH1 0x20 ADD PUSH1 0x0 KECCAK256 SWAP1 POP DUP1 PUSH1 0x18 ADD DUP3 SWAP1 DUP1 PUSH1 0x1 DUP2 SLOAD ADD DUP1 DUP3 SSTORE DUP1 SWAP2 POP POP PUSH1 0x1 SWAP1 SUB SWAP1 PUSH1 0x0 MSTORE PUSH1 0x20 PUSH1 0x0 KECCAK256 ADD PUSH1 0x0 SWAP1 SWAP2 SWAP1 SWAP2 SWAP1 SWAP2 POP SWAP1 DUP1 MLOAD SWAP1 PUSH1 0x20 ADD SWAP1 PUSH2 0x27BC SWAP3 SWAP2 SWAP1 PUSH2 0x3C28 JUMP JUMPDEST POP POP POP POP JUMP JUMPDEST PUSH1 0x0 PUSH1 0x2 PUSH1 0x0 DUP7 DUP2 MSTORE PUSH1 0x20 ADD SWAP1 DUP2 MSTORE PUSH1 0x20 ADD PUSH1 0x0 KECCAK256 SWAP1 POP PUSH1 0x0 PUSH1 0x8 PUSH1 0x0 DUP4 PUSH1 0x13 ADD SLOAD DUP2 MSTORE PUSH1 0x20 ADD SWAP1 DUP2 MSTORE PUSH1 0x20 ADD PUSH1 0x0 KECCAK256 SWAP1 POP PUSH1 0x1 DUP6 EQ ISZERO PUSH2 0x2877 JUMPI DUP4 PUSH20 0xFFFFFFFFFFFFFFFFFFFFFFFFFFFFFFFFFFFFFFFF AND PUSH2 0x8FC DUP5 SWAP1 DUP2 ISZERO MUL SWAP1 PUSH1 0x40 MLOAD PUSH1 0x0 PUSH1 0x40 MLOAD DUP1 DUP4 SUB DUP2 DUP6 DUP9 DUP9 CALL SWAP4 POP POP POP POP ISZERO DUP1 ISZERO PUSH2 0x2843 JUMPI RETURNDATASIZE PUSH1 0x0 DUP1 RETURNDATACOPY RETURNDATASIZE PUSH1 0x0 REVERT JUMPDEST POP DUP2 PUSH1 0x19 ADD PUSH1 0x0 DUP2 SLOAD DUP1 SWAP3 SWAP2 SWAP1 PUSH2 0x2859 SWAP1 PUSH2 0x59DE JUMP JUMPDEST SWAP2 SWAP1 POP SSTORE POP DUP3 DUP3 PUSH1 0x14 ADD SLOAD PUSH2 0x286E SWAP2 SWAP1 PUSH2 0x5A7D JUMP JUMPDEST DUP3 PUSH1 0x14 ADD DUP2 SWAP1 SSTORE POP JUMPDEST PUSH1 0x4 DUP3 PUSH1 0x19 ADD SLOAD EQ ISZERO PUSH2 0x2899 JUMPI PUSH1 0x0 DUP2 PUSH1 0x14 ADD DUP2 SWAP1 SSTORE POP PUSH1 0x1 DUP3 PUSH1 0x1A ADD DUP2 SWAP1 SSTORE POP JUMPDEST DUP2 PUSH1 0x17 ADD DUP6 SWAP1 DUP1 PUSH1 0x1 DUP2 SLOAD ADD DUP1 DUP3 SSTORE DUP1 SWAP2 POP POP PUSH1 0x1 SWAP1 SUB SWAP1 PUSH1 0x0 MSTORE PUSH1 0x20 PUSH1 0x0 KECCAK256 ADD PUSH1 0x0 SWAP1 SWAP2 SWAP1 SWAP2 SWAP1 SWAP2 POP SSTORE POP POP POP POP POP POP JUMP JUMPDEST PUSH1 0x0 DUP1 PUSH1 0x2 PUSH1 0x0 PUSH1 0x3 SLOAD DUP2 MSTORE PUSH1 0x20 ADD SWAP1 DUP2 MSTORE PUSH1 0x20 ADD PUSH1 0x0 KECCAK256 SWAP1 POP TIMESTAMP DUP2 PUSH1 0xC ADD PUSH1 0x0 PUSH1 0x3 DUP2 LT PUSH2 0x28FE JUMPI PUSH2 0x28FD PUSH2 0x5980 JUMP JUMPDEST JUMPDEST ADD SLOAD LT PUSH2 0x2940 JUMPI PUSH1 0x40 MLOAD PUSH32 0x8C379A000000000000000000000000000000000000000000000000000000000 DUP2 MSTORE PUSH1 0x4 ADD PUSH2 0x2937 SWAP1 PUSH2 0x5B23 JUMP JUMPDEST PUSH1 0x40 MLOAD DUP1 SWAP2 SUB SWAP1 REVERT JUMPDEST DUP6 PUSH1 0x0 PUSH1 0x3 DUP2 LT PUSH2 0x2954 JUMPI PUSH2 0x2953 PUSH2 0x5980 JUMP JUMPDEST JUMPDEST PUSH1 0x20 MUL ADD MLOAD DUP2 PUSH1 0xC ADD PUSH1 0x0 PUSH1 0x3 DUP2 LT PUSH2 0x2970 JUMPI PUSH2 0x296F PUSH2 0x5980 JUMP JUMPDEST JUMPDEST ADD DUP2 SWAP1 SSTORE POP DUP6 PUSH1 0x1 PUSH1 0x3 DUP2 LT PUSH2 0x2989 JUMPI PUSH2 0x2988 PUSH2 0x5980 JUMP JUMPDEST JUMPDEST PUSH1 0x20 MUL ADD MLOAD DUP2 PUSH1 0xC ADD PUSH1 0x1 PUSH1 0x3 DUP2 LT PUSH2 0x29A5 JUMPI PUSH2 0x29A4 PUSH2 0x5980 JUMP JUMPDEST JUMPDEST ADD DUP2 SWAP1 SSTORE POP DUP6 PUSH1 0x2 PUSH1 0x3 DUP2 LT PUSH2 0x29BE JUMPI PUSH2 0x29BD PUSH2 0x5980 JUMP JUMPDEST JUMPDEST PUSH1 0x20 MUL ADD MLOAD DUP2 PUSH1 0xC ADD PUSH1 0x2 PUSH1 0x3 DUP2 LT PUSH2 0x29DA JUMPI PUSH2 0x29D9 PUSH2 0x5980 JUMP JUMPDEST JUMPDEST ADD DUP2 SWAP1 SSTORE POP DUP7 PUSH1 0x0 PUSH1 0xC DUP2 LT PUSH2 0x29F3 JUMPI PUSH2 0x29F2 PUSH2 0x5980 JUMP JUMPDEST JUMPDEST PUSH1 0x20 MUL ADD MLOAD DUP2 PUSH1 0x0 ADD PUSH1 0x0 PUSH1 0xC DUP2 LT PUSH2 0x2A0F JUMPI PUSH2 0x2A0E PUSH2 0x5980 JUMP JUMPDEST JUMPDEST ADD SWAP1 DUP1 MLOAD SWAP1 PUSH1 0x20 ADD SWAP1 PUSH2 0x2A23 SWAP3 SWAP2 SWAP1 PUSH2 0x3C28 JUMP JUMPDEST POP DUP7 PUSH1 0x1 PUSH1 0xC DUP2 LT PUSH2 0x2A38 JUMPI PUSH2 0x2A37 PUSH2 0x5980 JUMP JUMPDEST JUMPDEST PUSH1 0x20 MUL ADD MLOAD DUP2 PUSH1 0x0 ADD PUSH1 0x1 PUSH1 0xC DUP2 LT PUSH2 0x2A54 JUMPI PUSH2 0x2A53 PUSH2 0x5980 JUMP JUMPDEST JUMPDEST ADD SWAP1 DUP1 MLOAD SWAP1 PUSH1 0x20 ADD SWAP1 PUSH2 0x2A68 SWAP3 SWAP2 SWAP1 PUSH2 0x3C28 JUMP JUMPDEST POP DUP7 PUSH1 0x2 PUSH1 0xC DUP2 LT PUSH2 0x2A7D JUMPI PUSH2 0x2A7C PUSH2 0x5980 JUMP JUMPDEST JUMPDEST PUSH1 0x20 MUL ADD MLOAD DUP2 PUSH1 0x0 ADD PUSH1 0x2 PUSH1 0xC DUP2 LT PUSH2 0x2A99 JUMPI PUSH2 0x2A98 PUSH2 0x5980 JUMP JUMPDEST JUMPDEST ADD SWAP1 DUP1 MLOAD SWAP1 PUSH1 0x20 ADD SWAP1 PUSH2 0x2AAD SWAP3 SWAP2 SWAP1 PUSH2 0x3C28 JUMP JUMPDEST POP DUP7 PUSH1 0x3 PUSH1 0xC DUP2 LT PUSH2 0x2AC2 JUMPI PUSH2 0x2AC1 PUSH2 0x5980 JUMP JUMPDEST JUMPDEST PUSH1 0x20 MUL ADD MLOAD DUP2 PUSH1 0x0 ADD PUSH1 0x3 PUSH1 0xC DUP2 LT PUSH2 0x2ADE JUMPI PUSH2 0x2ADD PUSH2 0x5980 JUMP JUMPDEST JUMPDEST ADD SWAP1 DUP1 MLOAD SWAP1 PUSH1 0x20 ADD SWAP1 PUSH2 0x2AF2 SWAP3 SWAP2 SWAP1 PUSH2 0x3C28 JUMP JUMPDEST POP DUP7 PUSH1 0x4 PUSH1 0xC DUP2 LT PUSH2 0x2B07 JUMPI PUSH2 0x2B06 PUSH2 0x5980 JUMP JUMPDEST JUMPDEST PUSH1 0x20 MUL ADD MLOAD DUP2 PUSH1 0x0 ADD PUSH1 0x4 PUSH1 0xC DUP2 LT PUSH2 0x2B23 JUMPI PUSH2 0x2B22 PUSH2 0x5980 JUMP JUMPDEST JUMPDEST ADD SWAP1 DUP1 MLOAD SWAP1 PUSH1 0x20 ADD SWAP1 PUSH2 0x2B37 SWAP3 SWAP2 SWAP1 PUSH2 0x3C28 JUMP JUMPDEST POP DUP7 PUSH1 0x5 PUSH1 0xC DUP2 LT PUSH2 0x2B4C JUMPI PUSH2 0x2B4B PUSH2 0x5980 JUMP JUMPDEST JUMPDEST PUSH1 0x20 MUL ADD MLOAD DUP2 PUSH1 0x0 ADD PUSH1 0x5 PUSH1 0xC DUP2 LT PUSH2 0x2B68 JUMPI PUSH2 0x2B67 PUSH2 0x5980 JUMP JUMPDEST JUMPDEST ADD SWAP1 DUP1 MLOAD SWAP1 PUSH1 0x20 ADD SWAP1 PUSH2 0x2B7C SWAP3 SWAP2 SWAP1 PUSH2 0x3C28 JUMP JUMPDEST POP DUP7 PUSH1 0x6 PUSH1 0xC DUP2 LT PUSH2 0x2B91 JUMPI PUSH2 0x2B90 PUSH2 0x5980 JUMP JUMPDEST JUMPDEST PUSH1 0x20 MUL ADD MLOAD DUP2 PUSH1 0x0 ADD PUSH1 0x6 PUSH1 0xC DUP2 LT PUSH2 0x2BAD JUMPI PUSH2 0x2BAC PUSH2 0x5980 JUMP JUMPDEST JUMPDEST ADD SWAP1 DUP1 MLOAD SWAP1 PUSH1 0x20 ADD SWAP1 PUSH2 0x2BC1 SWAP3 SWAP2 SWAP1 PUSH2 0x3C28 JUMP JUMPDEST POP DUP7 PUSH1 0x7 PUSH1 0xC DUP2 LT PUSH2 0x2BD6 JUMPI PUSH2 0x2BD5 PUSH2 0x5980 JUMP JUMPDEST JUMPDEST PUSH1 0x20 MUL ADD MLOAD DUP2 PUSH1 0x0 ADD PUSH1 0x7 PUSH1 0xC DUP2 LT PUSH2 0x2BF2 JUMPI PUSH2 0x2BF1 PUSH2 0x5980 JUMP JUMPDEST JUMPDEST ADD SWAP1 DUP1 MLOAD SWAP1 PUSH1 0x20 ADD SWAP1 PUSH2 0x2C06 SWAP3 SWAP2 SWAP1 PUSH2 0x3C28 JUMP JUMPDEST POP DUP7 PUSH1 0x8 PUSH1 0xC DUP2 LT PUSH2 0x2C1B JUMPI PUSH2 0x2C1A PUSH2 0x5980 JUMP JUMPDEST JUMPDEST PUSH1 0x20 MUL ADD MLOAD DUP2 PUSH1 0x0 ADD PUSH1 0x8 PUSH1 0xC DUP2 LT PUSH2 0x2C37 JUMPI PUSH2 0x2C36 PUSH2 0x5980 JUMP JUMPDEST JUMPDEST ADD SWAP1 DUP1 MLOAD SWAP1 PUSH1 0x20 ADD SWAP1 PUSH2 0x2C4B SWAP3 SWAP2 SWAP1 PUSH2 0x3C28 JUMP JUMPDEST POP DUP7 PUSH1 0x9 PUSH1 0xC DUP2 LT PUSH2 0x2C60 JUMPI PUSH2 0x2C5F PUSH2 0x5980 JUMP JUMPDEST JUMPDEST PUSH1 0x20 MUL ADD MLOAD DUP2 PUSH1 0x0 ADD PUSH1 0x9 PUSH1 0xC DUP2 LT PUSH2 0x2C7C JUMPI PUSH2 0x2C7B PUSH2 0x5980 JUMP JUMPDEST JUMPDEST ADD SWAP1 DUP1 MLOAD SWAP1 PUSH1 0x20 ADD SWAP1 PUSH2 0x2C90 SWAP3 SWAP2 SWAP1 PUSH2 0x3C28 JUMP JUMPDEST POP DUP7 PUSH1 0xA PUSH1 0xC DUP2 LT PUSH2 0x2CA5 JUMPI PUSH2 0x2CA4 PUSH2 0x5980 JUMP JUMPDEST JUMPDEST PUSH1 0x20 MUL ADD MLOAD DUP2 PUSH1 0x0 ADD PUSH1 0xA PUSH1 0xC DUP2 LT PUSH2 0x2CC1 JUMPI PUSH2 0x2CC0 PUSH2 0x5980 JUMP JUMPDEST JUMPDEST ADD SWAP1 DUP1 MLOAD SWAP1 PUSH1 0x20 ADD SWAP1 PUSH2 0x2CD5 SWAP3 SWAP2 SWAP1 PUSH2 0x3C28 JUMP JUMPDEST POP DUP7 PUSH1 0xB PUSH1 0xC DUP2 LT PUSH2 0x2CEA JUMPI PUSH2 0x2CE9 PUSH2 0x5980 JUMP JUMPDEST JUMPDEST PUSH1 0x20 MUL ADD MLOAD DUP2 PUSH1 0x0 ADD PUSH1 0xB PUSH1 0xC DUP2 LT PUSH2 0x2D06 JUMPI PUSH2 0x2D05 PUSH2 0x5980 JUMP JUMPDEST JUMPDEST ADD SWAP1 DUP1 MLOAD SWAP1 PUSH1 0x20 ADD SWAP1 PUSH2 0x2D1A SWAP3 SWAP2 SWAP1 PUSH2 0x3C28 JUMP JUMPDEST POP DUP3 DUP2 PUSH1 0x10 ADD SWAP1 DUP1 MLOAD SWAP1 PUSH1 0x20 ADD SWAP1 PUSH2 0x2D33 SWAP3 SWAP2 SWAP1 PUSH2 0x3C28 JUMP JUMPDEST POP PUSH1 0x0 DUP2 PUSH1 0x19 ADD DUP2 SWAP1 SSTORE POP PUSH1 0x0 DUP2 PUSH1 0x14 ADD DUP2 SWAP1 SSTORE POP PUSH1 0x1 DUP2 PUSH1 0x16 ADD DUP2 SWAP1 SSTORE POP PUSH1 0x0 DUP2 PUSH1 0x1A ADD DUP2 SWAP1 SSTORE POP PUSH1 0x0 JUMPDEST DUP5 MLOAD DUP2 LT ISZERO PUSH2 0x2DD3 JUMPI DUP2 PUSH1 0x11 ADD DUP6 DUP3 DUP2 MLOAD DUP2 LT PUSH2 0x2D7F JUMPI PUSH2 0x2D7E PUSH2 0x5980 JUMP JUMPDEST JUMPDEST PUSH1 0x20 MUL PUSH1 0x20 ADD ADD MLOAD SWAP1 DUP1 PUSH1 0x1 DUP2 SLOAD ADD DUP1 DUP3 SSTORE DUP1 SWAP2 POP POP PUSH1 0x1 SWAP1 SUB SWAP1 PUSH1 0x0 MSTORE PUSH1 0x20 PUSH1 0x0 KECCAK256 ADD PUSH1 0x0 SWAP1 SWAP2 SWAP1 SWAP2 SWAP1 SWAP2 POP SWAP1 DUP1 MLOAD SWAP1 PUSH1 0x20 ADD SWAP1 PUSH2 0x2DBF SWAP3 SWAP2 SWAP1 PUSH2 0x3C28 JUMP JUMPDEST POP DUP1 DUP1 PUSH2 0x2DCB SWAP1 PUSH2 0x59DE JUMP JUMPDEST SWAP2 POP POP PUSH2 0x2D5F JUMP JUMPDEST POP PUSH1 0x0 DUP2 PUSH1 0x13 ADD DUP2 SWAP1 SSTORE POP DUP5 DUP2 PUSH1 0xF ADD PUSH1 0x0 PUSH2 0x100 EXP DUP2 SLOAD DUP2 PUSH20 0xFFFFFFFFFFFFFFFFFFFFFFFFFFFFFFFFFFFFFFFF MUL NOT AND SWAP1 DUP4 PUSH20 0xFFFFFFFFFFFFFFFFFFFFFFFFFFFFFFFFFFFFFFFF AND MUL OR SWAP1 SSTORE POP PUSH1 0x3 SLOAD DUP2 PUSH1 0x15 ADD DUP2 SWAP1 SSTORE POP PUSH1 0x3 PUSH1 0x0 DUP2 SLOAD DUP1 SWAP3 SWAP2 SWAP1 PUSH2 0x2E3F SWAP1 PUSH2 0x59DE JUMP JUMPDEST SWAP2 SWAP1 POP SSTORE POP PUSH1 0x1 PUSH1 0x3 SLOAD PUSH2 0x2E53 SWAP2 SWAP1 PUSH2 0x5A7D JUMP JUMPDEST SWAP2 POP POP SWAP6 SWAP5 POP POP POP POP POP JUMP JUMPDEST PUSH1 0x0 DUP1 PUSH1 0x8 PUSH1 0x0 DUP14 DUP2 MSTORE PUSH1 0x20 ADD SWAP1 DUP2 MSTORE PUSH1 0x20 ADD PUSH1 0x0 KECCAK256 SWAP1 POP DUP11 PUSH1 0x0 PUSH1 0xA DUP2 LT PUSH2 0x2E8B JUMPI PUSH2 0x2E8A PUSH2 0x5980 JUMP JUMPDEST JUMPDEST PUSH1 0x20 MUL ADD MLOAD DUP2 PUSH1 0x0 ADD PUSH1 0x0 PUSH1 0xA DUP2 LT PUSH2 0x2EA7 JUMPI PUSH2 0x2EA6 PUSH2 0x5980 JUMP JUMPDEST JUMPDEST ADD SWAP1 DUP1 MLOAD SWAP1 PUSH1 0x20 ADD SWAP1 PUSH2 0x2EBB SWAP3 SWAP2 SWAP1 PUSH2 0x3C28 JUMP JUMPDEST POP DUP11 PUSH1 0x1 PUSH1 0xA DUP2 LT PUSH2 0x2ED0 JUMPI PUSH2 0x2ECF PUSH2 0x5980 JUMP JUMPDEST JUMPDEST PUSH1 0x20 MUL ADD MLOAD DUP2 PUSH1 0x0 ADD PUSH1 0x1 PUSH1 0xA DUP2 LT PUSH2 0x2EEC JUMPI PUSH2 0x2EEB PUSH2 0x5980 JUMP JUMPDEST JUMPDEST ADD SWAP1 DUP1 MLOAD SWAP1 PUSH1 0x20 ADD SWAP1 PUSH2 0x2F00 SWAP3 SWAP2 SWAP1 PUSH2 0x3C28 JUMP JUMPDEST POP DUP11 PUSH1 0x2 PUSH1 0xA DUP2 LT PUSH2 0x2F15 JUMPI PUSH2 0x2F14 PUSH2 0x5980 JUMP JUMPDEST JUMPDEST PUSH1 0x20 MUL ADD MLOAD DUP2 PUSH1 0x0 ADD PUSH1 0x2 PUSH1 0xA DUP2 LT PUSH2 0x2F31 JUMPI PUSH2 0x2F30 PUSH2 0x5980 JUMP JUMPDEST JUMPDEST ADD SWAP1 DUP1 MLOAD SWAP1 PUSH1 0x20 ADD SWAP1 PUSH2 0x2F45 SWAP3 SWAP2 SWAP1 PUSH2 0x3C28 JUMP JUMPDEST POP DUP11 PUSH1 0x3 PUSH1 0xA DUP2 LT PUSH2 0x2F5A JUMPI PUSH2 0x2F59 PUSH2 0x5980 JUMP JUMPDEST JUMPDEST PUSH1 0x20 MUL ADD MLOAD DUP2 PUSH1 0x0 ADD PUSH1 0x3 PUSH1 0xA DUP2 LT PUSH2 0x2F76 JUMPI PUSH2 0x2F75 PUSH2 0x5980 JUMP JUMPDEST JUMPDEST ADD SWAP1 DUP1 MLOAD SWAP1 PUSH1 0x20 ADD SWAP1 PUSH2 0x2F8A SWAP3 SWAP2 SWAP1 PUSH2 0x3C28 JUMP JUMPDEST POP DUP11 PUSH1 0x4 PUSH1 0xA DUP2 LT PUSH2 0x2F9F JUMPI PUSH2 0x2F9E PUSH2 0x5980 JUMP JUMPDEST JUMPDEST PUSH1 0x20 MUL ADD MLOAD DUP2 PUSH1 0x0 ADD PUSH1 0x4 PUSH1 0xA DUP2 LT PUSH2 0x2FBB JUMPI PUSH2 0x2FBA PUSH2 0x5980 JUMP JUMPDEST JUMPDEST ADD SWAP1 DUP1 MLOAD SWAP1 PUSH1 0x20 ADD SWAP1 PUSH2 0x2FCF SWAP3 SWAP2 SWAP1 PUSH2 0x3C28 JUMP JUMPDEST POP DUP11 PUSH1 0x5 PUSH1 0xA DUP2 LT PUSH2 0x2FE4 JUMPI PUSH2 0x2FE3 PUSH2 0x5980 JUMP JUMPDEST JUMPDEST PUSH1 0x20 MUL ADD MLOAD DUP2 PUSH1 0x0 ADD PUSH1 0x5 PUSH1 0xA DUP2 LT PUSH2 0x3000 JUMPI PUSH2 0x2FFF PUSH2 0x5980 JUMP JUMPDEST JUMPDEST ADD SWAP1 DUP1 MLOAD SWAP1 PUSH1 0x20 ADD SWAP1 PUSH2 0x3014 SWAP3 SWAP2 SWAP1 PUSH2 0x3C28 JUMP JUMPDEST POP DUP11 PUSH1 0x6 PUSH1 0xA DUP2 LT PUSH2 0x3029 JUMPI PUSH2 0x3028 PUSH2 0x5980 JUMP JUMPDEST JUMPDEST PUSH1 0x20 MUL ADD MLOAD DUP2 PUSH1 0x0 ADD PUSH1 0x6 PUSH1 0xA DUP2 LT PUSH2 0x3045 JUMPI PUSH2 0x3044 PUSH2 0x5980 JUMP JUMPDEST JUMPDEST ADD SWAP1 DUP1 MLOAD SWAP1 PUSH1 0x20 ADD SWAP1 PUSH2 0x3059 SWAP3 SWAP2 SWAP1 PUSH2 0x3C28 JUMP JUMPDEST POP DUP11 PUSH1 0x7 PUSH1 0xA DUP2 LT PUSH2 0x306E JUMPI PUSH2 0x306D PUSH2 0x5980 JUMP JUMPDEST JUMPDEST PUSH1 0x20 MUL ADD MLOAD DUP2 PUSH1 0x0 ADD PUSH1 0x7 PUSH1 0xA DUP2 LT PUSH2 0x308A JUMPI PUSH2 0x3089 PUSH2 0x5980 JUMP JUMPDEST JUMPDEST ADD SWAP1 DUP1 MLOAD SWAP1 PUSH1 0x20 ADD SWAP1 PUSH2 0x309E SWAP3 SWAP2 SWAP1 PUSH2 0x3C28 JUMP JUMPDEST POP DUP11 PUSH1 0x8 PUSH1 0xA DUP2 LT PUSH2 0x30B3 JUMPI PUSH2 0x30B2 PUSH2 0x5980 JUMP JUMPDEST JUMPDEST PUSH1 0x20 MUL ADD MLOAD DUP2 PUSH1 0x0 ADD PUSH1 0x8 PUSH1 0xA DUP2 LT PUSH2 0x30CF JUMPI PUSH2 0x30CE PUSH2 0x5980 JUMP JUMPDEST JUMPDEST ADD SWAP1 DUP1 MLOAD SWAP1 PUSH1 0x20 ADD SWAP1 PUSH2 0x30E3 SWAP3 SWAP2 SWAP1 PUSH2 0x3C28 JUMP JUMPDEST POP DUP11 PUSH1 0x9 PUSH1 0xA DUP2 LT PUSH2 0x30F8 JUMPI PUSH2 0x30F7 PUSH2 0x5980 JUMP JUMPDEST JUMPDEST PUSH1 0x20 MUL ADD MLOAD DUP2 PUSH1 0x0 ADD PUSH1 0x9 PUSH1 0xA DUP2 LT PUSH2 0x3114 JUMPI PUSH2 0x3113 PUSH2 0x5980 JUMP JUMPDEST JUMPDEST ADD SWAP1 DUP1 MLOAD SWAP1 PUSH1 0x20 ADD SWAP1 PUSH2 0x3128 SWAP3 SWAP2 SWAP1 PUSH2 0x3C28 JUMP JUMPDEST POP PUSH1 0x0 JUMPDEST DUP10 MLOAD DUP2 LT ISZERO PUSH2 0x31A0 JUMPI DUP2 PUSH1 0xD ADD DUP11 DUP3 DUP2 MLOAD DUP2 LT PUSH2 0x314C JUMPI PUSH2 0x314B PUSH2 0x5980 JUMP JUMPDEST JUMPDEST PUSH1 0x20 MUL PUSH1 0x20 ADD ADD MLOAD SWAP1 DUP1 PUSH1 0x1 DUP2 SLOAD ADD DUP1 DUP3 SSTORE DUP1 SWAP2 POP POP PUSH1 0x1 SWAP1 SUB SWAP1 PUSH1 0x0 MSTORE PUSH1 0x20 PUSH1 0x0 KECCAK256 ADD PUSH1 0x0 SWAP1 SWAP2 SWAP1 SWAP2 SWAP1 SWAP2 POP SWAP1 DUP1 MLOAD SWAP1 PUSH1 0x20 ADD SWAP1 PUSH2 0x318C SWAP3 SWAP2 SWAP1 PUSH2 0x3C28 JUMP JUMPDEST POP DUP1 DUP1 PUSH2 0x3198 SWAP1 PUSH2 0x59DE JUMP JUMPDEST SWAP2 POP POP PUSH2 0x312C JUMP JUMPDEST POP PUSH1 0x0 JUMPDEST DUP9 MLOAD DUP2 LT ISZERO PUSH2 0x32B6 JUMPI DUP2 PUSH1 0xE ADD DUP10 DUP3 DUP2 MLOAD DUP2 LT PUSH2 0x31C4 JUMPI PUSH2 0x31C3 PUSH2 0x5980 JUMP JUMPDEST JUMPDEST PUSH1 0x20 MUL PUSH1 0x20 ADD ADD MLOAD SWAP1 DUP1 PUSH1 0x1 DUP2 SLOAD ADD DUP1 DUP3 SSTORE DUP1 SWAP2 POP POP PUSH1 0x1 SWAP1 SUB SWAP1 PUSH1 0x0 MSTORE PUSH1 0x20 PUSH1 0x0 KECCAK256 ADD PUSH1 0x0 SWAP1 SWAP2 SWAP1 SWAP2 SWAP1 SWAP2 POP SWAP1 DUP1 MLOAD SWAP1 PUSH1 0x20 ADD SWAP1 PUSH2 0x3204 SWAP3 SWAP2 SWAP1 PUSH2 0x3C28 JUMP JUMPDEST POP DUP2 PUSH1 0x10 ADD DUP8 DUP3 DUP2 MLOAD DUP2 LT PUSH2 0x321C JUMPI PUSH2 0x321B PUSH2 0x5980 JUMP JUMPDEST JUMPDEST PUSH1 0x20 MUL PUSH1 0x20 ADD ADD MLOAD SWAP1 DUP1 PUSH1 0x1 DUP2 SLOAD ADD DUP1 DUP3 SSTORE DUP1 SWAP2 POP POP PUSH1 0x1 SWAP1 SUB SWAP1 PUSH1 0x0 MSTORE PUSH1 0x20 PUSH1 0x0 KECCAK256 ADD PUSH1 0x0 SWAP1 SWAP2 SWAP1 SWAP2 SWAP1 SWAP2 POP SSTORE DUP2 PUSH1 0xF ADD DUP9 DUP3 DUP2 MLOAD DUP2 LT PUSH2 0x3261 JUMPI PUSH2 0x3260 PUSH2 0x5980 JUMP JUMPDEST JUMPDEST PUSH1 0x20 MUL PUSH1 0x20 ADD ADD MLOAD SWAP1 DUP1 PUSH1 0x1 DUP2 SLOAD ADD DUP1 DUP3 SSTORE DUP1 SWAP2 POP POP PUSH1 0x1 SWAP1 SUB SWAP1 PUSH1 0x0 MSTORE PUSH1 0x20 PUSH1 0x0 KECCAK256 ADD PUSH1 0x0 SWAP1 SWAP2 SWAP1 SWAP2 SWAP1 SWAP2 POP SWAP1 DUP1 MLOAD SWAP1 PUSH1 0x20 ADD SWAP1 PUSH2 0x32A1 SWAP3 SWAP2 SWAP1 PUSH2 0x3C28 JUMP JUMPDEST POP PUSH1 0x1 DUP2 PUSH2 0x32AF SWAP2 SWAP1 PUSH2 0x5A27 JUMP JUMPDEST SWAP1 POP PUSH2 0x31A4 JUMP JUMPDEST POP PUSH1 0x0 JUMPDEST DUP6 MLOAD DUP2 LT ISZERO PUSH2 0x33DF JUMPI DUP2 PUSH1 0x11 ADD DUP7 DUP3 DUP2 MLOAD DUP2 LT PUSH2 0x32DA JUMPI PUSH2 0x32D9 PUSH2 0x5980 JUMP JUMPDEST JUMPDEST PUSH1 0x20 MUL PUSH1 0x20 ADD ADD MLOAD SWAP1 DUP1 PUSH1 0x1 DUP2 SLOAD ADD DUP1 DUP3 SSTORE DUP1 SWAP2 POP POP PUSH1 0x1 SWAP1 SUB SWAP1 PUSH1 0x0 MSTORE PUSH1 0x20 PUSH1 0x0 KECCAK256 ADD PUSH1 0x0 SWAP1 SWAP2 SWAP1 SWAP2 SWAP1 SWAP2 POP SWAP1 DUP1 MLOAD SWAP1 PUSH1 0x20 ADD SWAP1 PUSH2 0x331A SWAP3 SWAP2 SWAP1 PUSH2 0x3C28 JUMP JUMPDEST POP DUP2 PUSH1 0x12 ADD DUP6 DUP3 DUP2 MLOAD DUP2 LT PUSH2 0x3332 JUMPI PUSH2 0x3331 PUSH2 0x5980 JUMP JUMPDEST JUMPDEST PUSH1 0x20 MUL PUSH1 0x20 ADD ADD MLOAD SWAP1 DUP1 PUSH1 0x1 DUP2 SLOAD ADD DUP1 DUP3 SSTORE DUP1 SWAP2 POP POP PUSH1 0x1 SWAP1 SUB SWAP1 PUSH1 0x0 MSTORE PUSH1 0x20 PUSH1 0x0 KECCAK256 ADD PUSH1 0x0 SWAP1 SWAP2 SWAP1 SWAP2 SWAP1 SWAP2 POP SWAP1 DUP1 MLOAD SWAP1 PUSH1 0x20 ADD SWAP1 PUSH2 0x3372 SWAP3 SWAP2 SWAP1 PUSH2 0x3C28 JUMP JUMPDEST POP DUP2 PUSH1 0x13 ADD DUP5 DUP3 DUP2 MLOAD DUP2 LT PUSH2 0x338A JUMPI PUSH2 0x3389 PUSH2 0x5980 JUMP JUMPDEST JUMPDEST PUSH1 0x20 MUL PUSH1 0x20 ADD ADD MLOAD SWAP1 DUP1 PUSH1 0x1 DUP2 SLOAD ADD DUP1 DUP3 SSTORE DUP1 SWAP2 POP POP PUSH1 0x1 SWAP1 SUB SWAP1 PUSH1 0x0 MSTORE PUSH1 0x20 PUSH1 0x0 KECCAK256 ADD PUSH1 0x0 SWAP1 SWAP2 SWAP1 SWAP2 SWAP1 SWAP2 POP SWAP1 DUP1 MLOAD SWAP1 PUSH1 0x20 ADD SWAP1 PUSH2 0x33CA SWAP3 SWAP2 SWAP1 PUSH2 0x3C28 JUMP JUMPDEST POP PUSH1 0x1 DUP2 PUSH2 0x33D8 SWAP2 SWAP1 PUSH2 0x5A27 JUMP JUMPDEST SWAP1 POP PUSH2 0x32BA JUMP JUMPDEST POP DUP10 DUP2 PUSH1 0xC ADD PUSH1 0x0 PUSH2 0x100 EXP DUP2 SLOAD DUP2 PUSH20 0xFFFFFFFFFFFFFFFFFFFFFFFFFFFFFFFFFFFFFFFF MUL NOT AND SWAP1 DUP4 PUSH20 0xFFFFFFFFFFFFFFFFFFFFFFFFFFFFFFFFFFFFFFFF AND MUL OR SWAP1 SSTORE POP PUSH1 0x1 PUSH1 0x9 SLOAD PUSH2 0x3432 SWAP2 SWAP1 PUSH2 0x5A7D JUMP JUMPDEST SWAP2 POP POP SWAP11 SWAP10 POP POP POP POP POP POP POP POP POP POP JUMP JUMPDEST PUSH2 0x344B PUSH2 0x3B1A JUMP JUMPDEST PUSH1 0x8 PUSH1 0x0 DUP4 DUP2 MSTORE PUSH1 0x20 ADD SWAP1 DUP2 MSTORE PUSH1 0x20 ADD PUSH1 0x0 KECCAK256 PUSH1 0x40 MLOAD DUP1 PUSH2 0x180 ADD PUSH1 0x40 MSTORE SWAP1 DUP2 PUSH1 0x0 DUP3 ADD PUSH1 0xA DUP1 PUSH1 0x20 MUL PUSH1 0x40 MLOAD SWAP1 DUP2 ADD PUSH1 0x40 MSTORE DUP1 SWAP3 SWAP2 SWAP1 PUSH1 0x0 SWAP1 JUMPDEST DUP3 DUP3 LT ISZERO PUSH2 0x3529 JUMPI DUP4 DUP3 ADD DUP1 SLOAD PUSH2 0x349C SWAP1 PUSH2 0x594E JUMP JUMPDEST DUP1 PUSH1 0x1F ADD PUSH1 0x20 DUP1 SWAP2 DIV MUL PUSH1 0x20 ADD PUSH1 0x40 MLOAD SWAP1 DUP2 ADD PUSH1 0x40 MSTORE DUP1 SWAP3 SWAP2 SWAP1 DUP2 DUP2 MSTORE PUSH1 0x20 ADD DUP3 DUP1 SLOAD PUSH2 0x34C8 SWAP1 PUSH2 0x594E JUMP JUMPDEST DUP1 ISZERO PUSH2 0x3515 JUMPI DUP1 PUSH1 0x1F LT PUSH2 0x34EA JUMPI PUSH2 0x100 DUP1 DUP4 SLOAD DIV MUL DUP4 MSTORE SWAP2 PUSH1 0x20 ADD SWAP2 PUSH2 0x3515 JUMP JUMPDEST DUP3 ADD SWAP2 SWAP1 PUSH1 0x0 MSTORE PUSH1 0x20 PUSH1 0x0 KECCAK256 SWAP1 JUMPDEST DUP2 SLOAD DUP2 MSTORE SWAP1 PUSH1 0x1 ADD SWAP1 PUSH1 0x20 ADD DUP1 DUP4 GT PUSH2 0x34F8 JUMPI DUP3 SWAP1 SUB PUSH1 0x1F AND DUP3 ADD SWAP2 JUMPDEST POP POP POP POP POP DUP2 MSTORE PUSH1 0x20 ADD SWAP1 PUSH1 0x1 ADD SWAP1 PUSH2 0x3486 JUMP JUMPDEST POP POP POP POP DUP2 MSTORE PUSH1 0x20 ADD PUSH1 0xA DUP3 ADD SLOAD DUP2 MSTORE PUSH1 0x20 ADD PUSH1 0xB DUP3 ADD SLOAD DUP2 MSTORE PUSH1 0x20 ADD PUSH1 0xC DUP3 ADD PUSH1 0x0 SWAP1 SLOAD SWAP1 PUSH2 0x100 EXP SWAP1 DIV PUSH20 0xFFFFFFFFFFFFFFFFFFFFFFFFFFFFFFFFFFFFFFFF AND PUSH20 0xFFFFFFFFFFFFFFFFFFFFFFFFFFFFFFFFFFFFFFFF AND PUSH20 0xFFFFFFFFFFFFFFFFFFFFFFFFFFFFFFFFFFFFFFFF AND DUP2 MSTORE PUSH1 0x20 ADD PUSH1 0xD DUP3 ADD DUP1 SLOAD DUP1 PUSH1 0x20 MUL PUSH1 0x20 ADD PUSH1 0x40 MLOAD SWAP1 DUP2 ADD PUSH1 0x40 MSTORE DUP1 SWAP3 SWAP2 SWAP1 DUP2 DUP2 MSTORE PUSH1 0x20 ADD PUSH1 0x0 SWAP1 JUMPDEST DUP3 DUP3 LT ISZERO PUSH2 0x366C JUMPI DUP4 DUP3 SWAP1 PUSH1 0x0 MSTORE PUSH1 0x20 PUSH1 0x0 KECCAK256 ADD DUP1 SLOAD PUSH2 0x35DF SWAP1 PUSH2 0x594E JUMP JUMPDEST DUP1 PUSH1 0x1F ADD PUSH1 0x20 DUP1 SWAP2 DIV MUL PUSH1 0x20 ADD PUSH1 0x40 MLOAD SWAP1 DUP2 ADD PUSH1 0x40 MSTORE DUP1 SWAP3 SWAP2 SWAP1 DUP2 DUP2 MSTORE PUSH1 0x20 ADD DUP3 DUP1 SLOAD PUSH2 0x360B SWAP1 PUSH2 0x594E JUMP JUMPDEST DUP1 ISZERO PUSH2 0x3658 JUMPI DUP1 PUSH1 0x1F LT PUSH2 0x362D JUMPI PUSH2 0x100 DUP1 DUP4 SLOAD DIV MUL DUP4 MSTORE SWAP2 PUSH1 0x20 ADD SWAP2 PUSH2 0x3658 JUMP JUMPDEST DUP3 ADD SWAP2 SWAP1 PUSH1 0x0 MSTORE PUSH1 0x20 PUSH1 0x0 KECCAK256 SWAP1 JUMPDEST DUP2 SLOAD DUP2 MSTORE SWAP1 PUSH1 0x1 ADD SWAP1 PUSH1 0x20 ADD DUP1 DUP4 GT PUSH2 0x363B JUMPI DUP3 SWAP1 SUB PUSH1 0x1F AND DUP3 ADD SWAP2 JUMPDEST POP POP POP POP POP DUP2 MSTORE PUSH1 0x20 ADD SWAP1 PUSH1 0x1 ADD SWAP1 PUSH2 0x35C0 JUMP JUMPDEST POP POP POP POP DUP2 MSTORE PUSH1 0x20 ADD PUSH1 0xE DUP3 ADD DUP1 SLOAD DUP1 PUSH1 0x20 MUL PUSH1 0x20 ADD PUSH1 0x40 MLOAD SWAP1 DUP2 ADD PUSH1 0x40 MSTORE DUP1 SWAP3 SWAP2 SWAP1 DUP2 DUP2 MSTORE PUSH1 0x20 ADD PUSH1 0x0 SWAP1 JUMPDEST DUP3 DUP3 LT ISZERO PUSH2 0x3745 JUMPI DUP4 DUP3 SWAP1 PUSH1 0x0 MSTORE PUSH1 0x20 PUSH1 0x0 KECCAK256 ADD DUP1 SLOAD PUSH2 0x36B8 SWAP1 PUSH2 0x594E JUMP JUMPDEST DUP1 PUSH1 0x1F ADD PUSH1 0x20 DUP1 SWAP2 DIV MUL PUSH1 0x20 ADD PUSH1 0x40 MLOAD SWAP1 DUP2 ADD PUSH1 0x40 MSTORE DUP1 SWAP3 SWAP2 SWAP1 DUP2 DUP2 MSTORE PUSH1 0x20 ADD DUP3 DUP1 SLOAD PUSH2 0x36E4 SWAP1 PUSH2 0x594E JUMP JUMPDEST DUP1 ISZERO PUSH2 0x3731 JUMPI DUP1 PUSH1 0x1F LT PUSH2 0x3706 JUMPI PUSH2 0x100 DUP1 DUP4 SLOAD DIV MUL DUP4 MSTORE SWAP2 PUSH1 0x20 ADD SWAP2 PUSH2 0x3731 JUMP JUMPDEST DUP3 ADD SWAP2 SWAP1 PUSH1 0x0 MSTORE PUSH1 0x20 PUSH1 0x0 KECCAK256 SWAP1 JUMPDEST DUP2 SLOAD DUP2 MSTORE SWAP1 PUSH1 0x1 ADD SWAP1 PUSH1 0x20 ADD DUP1 DUP4 GT PUSH2 0x3714 JUMPI DUP3 SWAP1 SUB PUSH1 0x1F AND DUP3 ADD SWAP2 JUMPDEST POP POP POP POP POP DUP2 MSTORE PUSH1 0x20 ADD SWAP1 PUSH1 0x1 ADD SWAP1 PUSH2 0x3699 JUMP JUMPDEST POP POP POP POP DUP2 MSTORE PUSH1 0x20 ADD PUSH1 0xF DUP3 ADD DUP1 SLOAD DUP1 PUSH1 0x20 MUL PUSH1 0x20 ADD PUSH1 0x40 MLOAD SWAP1 DUP2 ADD PUSH1 0x40 MSTORE DUP1 SWAP3 SWAP2 SWAP1 DUP2 DUP2 MSTORE PUSH1 0x20 ADD PUSH1 0x0 SWAP1 JUMPDEST DUP3 DUP3 LT ISZERO PUSH2 0x381E JUMPI DUP4 DUP3 SWAP1 PUSH1 0x0 MSTORE PUSH1 0x20 PUSH1 0x0 KECCAK256 ADD DUP1 SLOAD PUSH2 0x3791 SWAP1 PUSH2 0x594E JUMP JUMPDEST DUP1 PUSH1 0x1F ADD PUSH1 0x20 DUP1 SWAP2 DIV MUL PUSH1 0x20 ADD PUSH1 0x40 MLOAD SWAP1 DUP2 ADD PUSH1 0x40 MSTORE DUP1 SWAP3 SWAP2 SWAP1 DUP2 DUP2 MSTORE PUSH1 0x20 ADD DUP3 DUP1 SLOAD PUSH2 0x37BD SWAP1 PUSH2 0x594E JUMP JUMPDEST DUP1 ISZERO PUSH2 0x380A JUMPI DUP1 PUSH1 0x1F LT PUSH2 0x37DF JUMPI PUSH2 0x100 DUP1 DUP4 SLOAD DIV MUL DUP4 MSTORE SWAP2 PUSH1 0x20 ADD SWAP2 PUSH2 0x380A JUMP JUMPDEST DUP3 ADD SWAP2 SWAP1 PUSH1 0x0 MSTORE PUSH1 0x20 PUSH1 0x0 KECCAK256 SWAP1 JUMPDEST DUP2 SLOAD DUP2 MSTORE SWAP1 PUSH1 0x1 ADD SWAP1 PUSH1 0x20 ADD DUP1 DUP4 GT PUSH2 0x37ED JUMPI DUP3 SWAP1 SUB PUSH1 0x1F AND DUP3 ADD SWAP2 JUMPDEST POP POP POP POP POP DUP2 MSTORE PUSH1 0x20 ADD SWAP1 PUSH1 0x1 ADD SWAP1 PUSH2 0x3772 JUMP JUMPDEST POP POP POP POP DUP2 MSTORE PUSH1 0x20 ADD PUSH1 0x10 DUP3 ADD DUP1 SLOAD DUP1 PUSH1 0x20 MUL PUSH1 0x20 ADD PUSH1 0x40 MLOAD SWAP1 DUP2 ADD PUSH1 0x40 MSTORE DUP1 SWAP3 SWAP2 SWAP1 DUP2 DUP2 MSTORE PUSH1 0x20 ADD DUP3 DUP1 SLOAD DUP1 ISZERO PUSH2 0x3875 JUMPI PUSH1 0x20 MUL DUP3 ADD SWAP2 SWAP1 PUSH1 0x0 MSTORE PUSH1 0x20 PUSH1 0x0 KECCAK256 SWAP1 JUMPDEST DUP2 SLOAD DUP2 MSTORE PUSH1 0x20 ADD SWAP1 PUSH1 0x1 ADD SWAP1 DUP1 DUP4 GT PUSH2 0x3861 JUMPI JUMPDEST POP POP POP POP POP DUP2 MSTORE PUSH1 0x20 ADD PUSH1 0x11 DUP3 ADD DUP1 SLOAD DUP1 PUSH1 0x20 MUL PUSH1 0x20 ADD PUSH1 0x40 MLOAD SWAP1 DUP2 ADD PUSH1 0x40 MSTORE DUP1 SWAP3 SWAP2 SWAP1 DUP2 DUP2 MSTORE PUSH1 0x20 ADD PUSH1 0x0 SWAP1 JUMPDEST DUP3 DUP3 LT ISZERO PUSH2 0x394F JUMPI DUP4 DUP3 SWAP1 PUSH1 0x0 MSTORE PUSH1 0x20 PUSH1 0x0 KECCAK256 ADD DUP1 SLOAD PUSH2 0x38C2 SWAP1 PUSH2 0x594E JUMP JUMPDEST DUP1 PUSH1 0x1F ADD PUSH1 0x20 DUP1 SWAP2 DIV MUL PUSH1 0x20 ADD PUSH1 0x40 MLOAD SWAP1 DUP2 ADD PUSH1 0x40 MSTORE DUP1 SWAP3 SWAP2 SWAP1 DUP2 DUP2 MSTORE PUSH1 0x20 ADD DUP3 DUP1 SLOAD PUSH2 0x38EE SWAP1 PUSH2 0x594E JUMP JUMPDEST DUP1 ISZERO PUSH2 0x393B JUMPI DUP1 PUSH1 0x1F LT PUSH2 0x3910 JUMPI PUSH2 0x100 DUP1 DUP4 SLOAD DIV MUL DUP4 MSTORE SWAP2 PUSH1 0x20 ADD SWAP2 PUSH2 0x393B JUMP JUMPDEST DUP3 ADD SWAP2 SWAP1 PUSH1 0x0 MSTORE PUSH1 0x20 PUSH1 0x0 KECCAK256 SWAP1 JUMPDEST DUP2 SLOAD DUP2 MSTORE SWAP1 PUSH1 0x1 ADD SWAP1 PUSH1 0x20 ADD DUP1 DUP4 GT PUSH2 0x391E JUMPI DUP3 SWAP1 SUB PUSH1 0x1F AND DUP3 ADD SWAP2 JUMPDEST POP POP POP POP POP DUP2 MSTORE PUSH1 0x20 ADD SWAP1 PUSH1 0x1 ADD SWAP1 PUSH2 0x38A3 JUMP JUMPDEST POP POP POP POP DUP2 MSTORE PUSH1 0x20 ADD PUSH1 0x12 DUP3 ADD DUP1 SLOAD DUP1 PUSH1 0x20 MUL PUSH1 0x20 ADD PUSH1 0x40 MLOAD SWAP1 DUP2 ADD PUSH1 0x40 MSTORE DUP1 SWAP3 SWAP2 SWAP1 DUP2 DUP2 MSTORE PUSH1 0x20 ADD PUSH1 0x0 SWAP1 JUMPDEST DUP3 DUP3 LT ISZERO PUSH2 0x3A28 JUMPI DUP4 DUP3 SWAP1 PUSH1 0x0 MSTORE PUSH1 0x20 PUSH1 0x0 KECCAK256 ADD DUP1 SLOAD PUSH2 0x399B SWAP1 PUSH2 0x594E JUMP JUMPDEST DUP1 PUSH1 0x1F ADD PUSH1 0x20 DUP1 SWAP2 DIV MUL PUSH1 0x20 ADD PUSH1 0x40 MLOAD SWAP1 DUP2 ADD PUSH1 0x40 MSTORE DUP1 SWAP3 SWAP2 SWAP1 DUP2 DUP2 MSTORE PUSH1 0x20 ADD DUP3 DUP1 SLOAD PUSH2 0x39C7 SWAP1 PUSH2 0x594E JUMP JUMPDEST DUP1 ISZERO PUSH2 0x3A14 JUMPI DUP1 PUSH1 0x1F LT PUSH2 0x39E9 JUMPI PUSH2 0x100 DUP1 DUP4 SLOAD DIV MUL DUP4 MSTORE SWAP2 PUSH1 0x20 ADD SWAP2 PUSH2 0x3A14 JUMP JUMPDEST DUP3 ADD SWAP2 SWAP1 PUSH1 0x0 MSTORE PUSH1 0x20 PUSH1 0x0 KECCAK256 SWAP1 JUMPDEST DUP2 SLOAD DUP2 MSTORE SWAP1 PUSH1 0x1 ADD SWAP1 PUSH1 0x20 ADD DUP1 DUP4 GT PUSH2 0x39F7 JUMPI DUP3 SWAP1 SUB PUSH1 0x1F AND DUP3 ADD SWAP2 JUMPDEST POP POP POP POP POP DUP2 MSTORE PUSH1 0x20 ADD SWAP1 PUSH1 0x1 ADD SWAP1 PUSH2 0x397C JUMP JUMPDEST POP POP POP POP DUP2 MSTORE PUSH1 0x20 ADD PUSH1 0x13 DUP3 ADD DUP1 SLOAD DUP1 PUSH1 0x20 MUL PUSH1 0x20 ADD PUSH1 0x40 MLOAD SWAP1 DUP2 ADD PUSH1 0x40 MSTORE DUP1 SWAP3 SWAP2 SWAP1 DUP2 DUP2 MSTORE PUSH1 0x20 ADD PUSH1 0x0 SWAP1 JUMPDEST DUP3 DUP3 LT ISZERO PUSH2 0x3B01 JUMPI DUP4 DUP3 SWAP1 PUSH1 0x0 MSTORE PUSH1 0x20 PUSH1 0x0 KECCAK256 ADD DUP1 SLOAD PUSH2 0x3A74 SWAP1 PUSH2 0x594E JUMP JUMPDEST DUP1 PUSH1 0x1F ADD PUSH1 0x20 DUP1 SWAP2 DIV MUL PUSH1 0x20 ADD PUSH1 0x40 MLOAD SWAP1 DUP2 ADD PUSH1 0x40 MSTORE DUP1 SWAP3 SWAP2 SWAP1 DUP2 DUP2 MSTORE PUSH1 0x20 ADD DUP3 DUP1 SLOAD PUSH2 0x3AA0 SWAP1 PUSH2 0x594E JUMP JUMPDEST DUP1 ISZERO PUSH2 0x3AED JUMPI DUP1 PUSH1 0x1F LT PUSH2 0x3AC2 JUMPI PUSH2 0x100 DUP1 DUP4 SLOAD DIV MUL DUP4 MSTORE SWAP2 PUSH1 0x20 ADD SWAP2 PUSH2 0x3AED JUMP JUMPDEST DUP3 ADD SWAP2 SWAP1 PUSH1 0x0 MSTORE PUSH1 0x20 PUSH1 0x0 KECCAK256 SWAP1 JUMPDEST DUP2 SLOAD DUP2 MSTORE SWAP1 PUSH1 0x1 ADD SWAP1 PUSH1 0x20 ADD DUP1 DUP4 GT PUSH2 0x3AD0 JUMPI DUP3 SWAP1 SUB PUSH1 0x1F AND DUP3 ADD SWAP2 JUMPDEST POP POP POP POP POP DUP2 MSTORE PUSH1 0x20 ADD SWAP1 PUSH1 0x1 ADD SWAP1 PUSH2 0x3A55 JUMP JUMPDEST POP POP POP POP DUP2 MSTORE PUSH1 0x20 ADD PUSH1 0x14 DUP3 ADD SLOAD DUP2 MSTORE POP POP SWAP1 POP SWAP2 SWAP1 POP JUMP JUMPDEST PUSH1 0x40 MLOAD DUP1 PUSH2 0x180 ADD PUSH1 0x40 MSTORE DUP1 PUSH2 0x3B2E PUSH2 0x3D78 JUMP JUMPDEST DUP2 MSTORE PUSH1 0x20 ADD PUSH1 0x0 DUP2 MSTORE PUSH1 0x20 ADD PUSH1 0x0 DUP2 MSTORE PUSH1 0x20 ADD PUSH1 0x0 PUSH20 0xFFFFFFFFFFFFFFFFFFFFFFFFFFFFFFFFFFFFFFFF AND DUP2 MSTORE PUSH1 0x20 ADD PUSH1 0x60 DUP2 MSTORE PUSH1 0x20 ADD PUSH1 0x60 DUP2 MSTORE PUSH1 0x20 ADD PUSH1 0x60 DUP2 MSTORE PUSH1 0x20 ADD PUSH1 0x60 DUP2 MSTORE PUSH1 0x20 ADD PUSH1 0x60 DUP2 MSTORE PUSH1 0x20 ADD PUSH1 0x60 DUP2 MSTORE PUSH1 0x20 ADD PUSH1 0x60 DUP2 MSTORE PUSH1 0x20 ADD PUSH1 0x0 DUP2 MSTORE POP SWAP1 JUMP JUMPDEST PUSH1 0x40 MLOAD DUP1 PUSH2 0x1C0 ADD PUSH1 0x40 MSTORE DUP1 PUSH2 0x3BAB PUSH2 0x3DA0 JUMP JUMPDEST DUP2 MSTORE PUSH1 0x20 ADD PUSH2 0x3BB8 PUSH2 0x3DC8 JUMP JUMPDEST DUP2 MSTORE PUSH1 0x20 ADD PUSH1 0x0 PUSH20 0xFFFFFFFFFFFFFFFFFFFFFFFFFFFFFFFFFFFFFFFF AND DUP2 MSTORE PUSH1 0x20 ADD PUSH1 0x60 DUP2 MSTORE PUSH1 0x20 ADD PUSH1 0x60 DUP2 MSTORE PUSH1 0x20 ADD PUSH1 0x60 DUP2 MSTORE PUSH1 0x20 ADD PUSH1 0x0 DUP2 MSTORE PUSH1 0x20 ADD PUSH1 0x0 DUP2 MSTORE PUSH1 0x20 ADD PUSH1 0x0 DUP2 MSTORE PUSH1 0x20 ADD PUSH1 0x0 DUP2 MSTORE PUSH1 0x20 ADD PUSH1 0x60 DUP2 MSTORE PUSH1 0x20 ADD PUSH1 0x60 DUP2 MSTORE PUSH1 0x20 ADD PUSH1 0x0 DUP2 MSTORE PUSH1 0x20 ADD PUSH1 0x0 DUP2 MSTORE POP SWAP1 JUMP JUMPDEST DUP3 DUP1 SLOAD PUSH2 0x3C34 SWAP1 PUSH2 0x594E JUMP JUMPDEST SWAP1 PUSH1 0x0 MSTORE PUSH1 0x20 PUSH1 0x0 KECCAK256 SWAP1 PUSH1 0x1F ADD PUSH1 0x20 SWAP1 DIV DUP2 ADD SWAP3 DUP3 PUSH2 0x3C56 JUMPI PUSH1 0x0 DUP6 SSTORE PUSH2 0x3C9D JUMP JUMPDEST DUP3 PUSH1 0x1F LT PUSH2 0x3C6F JUMPI DUP1 MLOAD PUSH1 0xFF NOT AND DUP4 DUP1 ADD OR DUP6 SSTORE PUSH2 0x3C9D JUMP JUMPDEST DUP3 DUP1 ADD PUSH1 0x1 ADD DUP6 SSTORE DUP3 ISZERO PUSH2 0x3C9D JUMPI SWAP2 DUP3 ADD JUMPDEST DUP3 DUP2 GT ISZERO PUSH2 0x3C9C JUMPI DUP3 MLOAD DUP3 SSTORE SWAP2 PUSH1 0x20 ADD SWAP2 SWAP1 PUSH1 0x1 ADD SWAP1 PUSH2 0x3C81 JUMP JUMPDEST JUMPDEST POP SWAP1 POP PUSH2 0x3CAA SWAP2 SWAP1 PUSH2 0x3DEA JUMP JUMPDEST POP SWAP1 JUMP JUMPDEST DUP3 PUSH1 0x4 DUP2 ADD SWAP3 DUP3 ISZERO PUSH2 0x3CDA JUMPI SWAP2 DUP3 ADD JUMPDEST DUP3 DUP2 GT ISZERO PUSH2 0x3CD9 JUMPI DUP3 SLOAD DUP3 SSTORE SWAP2 PUSH1 0x1 ADD SWAP2 SWAP1 PUSH1 0x1 ADD SWAP1 PUSH2 0x3CBE JUMP JUMPDEST JUMPDEST POP SWAP1 POP PUSH2 0x3CE7 SWAP2 SWAP1 PUSH2 0x3DEA JUMP JUMPDEST POP SWAP1 JUMP JUMPDEST DUP3 DUP1 SLOAD PUSH2 0x3CF7 SWAP1 PUSH2 0x594E JUMP JUMPDEST SWAP1 PUSH1 0x0 MSTORE PUSH1 0x20 PUSH1 0x0 KECCAK256 SWAP1 PUSH1 0x1F ADD PUSH1 0x20 SWAP1 DIV DUP2 ADD SWAP3 DUP3 PUSH2 0x3D19 JUMPI PUSH1 0x0 DUP6 SSTORE PUSH2 0x3D67 JUMP JUMPDEST DUP3 PUSH1 0x1F LT PUSH2 0x3D2A JUMPI DUP1 SLOAD DUP6 SSTORE PUSH2 0x3D67 JUMP JUMPDEST DUP3 DUP1 ADD PUSH1 0x1 ADD DUP6 SSTORE DUP3 ISZERO PUSH2 0x3D67 JUMPI PUSH1 0x0 MSTORE PUSH1 0x20 PUSH1 0x0 KECCAK256 SWAP2 PUSH1 0x1F ADD PUSH1 0x20 SWAP1 DIV DUP3 ADD JUMPDEST DUP3 DUP2 GT ISZERO PUSH2 0x3D66 JUMPI DUP3 SLOAD DUP3 SSTORE SWAP2 PUSH1 0x1 ADD SWAP2 SWAP1 PUSH1 0x1 ADD SWAP1 PUSH2 0x3D4B JUMP JUMPDEST JUMPDEST POP SWAP1 POP PUSH2 0x3D74 SWAP2 SWAP1 PUSH2 0x3DEA JUMP JUMPDEST POP SWAP1 JUMP JUMPDEST PUSH1 0x40 MLOAD DUP1 PUSH2 0x140 ADD PUSH1 0x40 MSTORE DUP1 PUSH1 0xA SWAP1 JUMPDEST PUSH1 0x60 DUP2 MSTORE PUSH1 0x20 ADD SWAP1 PUSH1 0x1 SWAP1 SUB SWAP1 DUP2 PUSH2 0x3D88 JUMPI SWAP1 POP POP SWAP1 JUMP JUMPDEST PUSH1 0x40 MLOAD DUP1 PUSH2 0x180 ADD PUSH1 0x40 MSTORE DUP1 PUSH1 0xC SWAP1 JUMPDEST PUSH1 0x60 DUP2 MSTORE PUSH1 0x20 ADD SWAP1 PUSH1 0x1 SWAP1 SUB SWAP1 DUP2 PUSH2 0x3DB0 JUMPI SWAP1 POP POP SWAP1 JUMP JUMPDEST PUSH1 0x40 MLOAD DUP1 PUSH1 0x60 ADD PUSH1 0x40 MSTORE DUP1 PUSH1 0x3 SWAP1 PUSH1 0x20 DUP3 MUL DUP1 CALLDATASIZE DUP4 CALLDATACOPY DUP1 DUP3 ADD SWAP2 POP POP SWAP1 POP POP SWAP1 JUMP JUMPDEST JUMPDEST DUP1 DUP3 GT ISZERO PUSH2 0x3E03 JUMPI PUSH1 0x0 DUP2 PUSH1 0x0 SWAP1 SSTORE POP PUSH1 0x1 ADD PUSH2 0x3DEB JUMP JUMPDEST POP SWAP1 JUMP JUMPDEST PUSH1 0x0 DUP2 MLOAD SWAP1 POP SWAP2 SWAP1 POP JUMP JUMPDEST PUSH1 0x0 DUP3 DUP3 MSTORE PUSH1 0x20 DUP3 ADD SWAP1 POP SWAP3 SWAP2 POP POP JUMP JUMPDEST PUSH1 0x0 DUP2 SWAP1 POP PUSH1 0x20 DUP3 ADD SWAP1 POP SWAP2 SWAP1 POP JUMP JUMPDEST PUSH1 0x0 PUSH1 0xA SWAP1 POP SWAP2 SWAP1 POP JUMP JUMPDEST PUSH1 0x0 DUP2 SWAP1 POP SWAP3 SWAP2 POP POP JUMP JUMPDEST PUSH1 0x0 DUP2 SWAP1 POP SWAP2 SWAP1 POP JUMP JUMPDEST PUSH1 0x0 DUP2 MLOAD SWAP1 POP SWAP2 SWAP1 POP JUMP JUMPDEST PUSH1 0x0 DUP3 DUP3 MSTORE PUSH1 0x20 DUP3 ADD SWAP1 POP SWAP3 SWAP2 POP POP JUMP JUMPDEST PUSH1 0x0 JUMPDEST DUP4 DUP2 LT ISZERO PUSH2 0x3E8D JUMPI DUP1 DUP3 ADD MLOAD DUP2 DUP5 ADD MSTORE PUSH1 0x20 DUP2 ADD SWAP1 POP PUSH2 0x3E72 JUMP JUMPDEST DUP4 DUP2 GT ISZERO PUSH2 0x3E9C JUMPI PUSH1 0x0 DUP5 DUP5 ADD MSTORE JUMPDEST POP POP POP POP JUMP JUMPDEST PUSH1 0x0 PUSH1 0x1F NOT PUSH1 0x1F DUP4 ADD AND SWAP1 POP SWAP2 SWAP1 POP JUMP JUMPDEST PUSH1 0x0 PUSH2 0x3EBE DUP3 PUSH2 0x3E53 JUMP JUMPDEST PUSH2 0x3EC8 DUP2 DUP6 PUSH2 0x3E5E JUMP JUMPDEST SWAP4 POP PUSH2 0x3ED8 DUP2 DUP6 PUSH1 0x20 DUP7 ADD PUSH2 0x3E6F JUMP JUMPDEST PUSH2 0x3EE1 DUP2 PUSH2 0x3EA2 JUMP JUMPDEST DUP5 ADD SWAP2 POP POP SWAP3 SWAP2 POP POP JUMP JUMPDEST PUSH1 0x0 PUSH2 0x3EF8 DUP4 DUP4 PUSH2 0x3EB3 JUMP JUMPDEST SWAP1 POP SWAP3 SWAP2 POP POP JUMP JUMPDEST PUSH1 0x0 PUSH1 0x20 DUP3 ADD SWAP1 POP SWAP2 SWAP1 POP JUMP JUMPDEST PUSH1 0x0 PUSH2 0x3F18 DUP3 PUSH2 0x3E33 JUMP JUMPDEST PUSH2 0x3F22 DUP2 DUP6 PUSH2 0x3E3E JUMP JUMPDEST SWAP4 POP DUP4 PUSH1 0x20 DUP3 MUL DUP6 ADD PUSH2 0x3F34 DUP6 PUSH2 0x3E49 JUMP JUMPDEST DUP1 PUSH1 0x0 JUMPDEST DUP6 DUP2 LT ISZERO PUSH2 0x3F70 JUMPI DUP5 DUP5 SUB DUP10 MSTORE DUP2 MLOAD PUSH2 0x3F51 DUP6 DUP3 PUSH2 0x3EEC JUMP JUMPDEST SWAP5 POP PUSH2 0x3F5C DUP4 PUSH2 0x3F00 JUMP JUMPDEST SWAP3 POP PUSH1 0x20 DUP11 ADD SWAP10 POP POP PUSH1 0x1 DUP2 ADD SWAP1 POP PUSH2 0x3F38 JUMP JUMPDEST POP DUP3 SWAP8 POP DUP8 SWAP6 POP POP POP POP POP POP SWAP3 SWAP2 POP POP JUMP JUMPDEST PUSH1 0x0 DUP2 SWAP1 POP SWAP2 SWAP1 POP JUMP JUMPDEST PUSH2 0x3F95 DUP2 PUSH2 0x3F82 JUMP JUMPDEST DUP3 MSTORE POP POP JUMP JUMPDEST PUSH1 0x0 PUSH20 0xFFFFFFFFFFFFFFFFFFFFFFFFFFFFFFFFFFFFFFFF DUP3 AND SWAP1 POP SWAP2 SWAP1 POP JUMP JUMPDEST PUSH1 0x0 PUSH2 0x3FC6 DUP3 PUSH2 0x3F9B JUMP JUMPDEST SWAP1 POP SWAP2 SWAP1 POP JUMP JUMPDEST PUSH2 0x3FD6 DUP2 PUSH2 0x3FBB JUMP JUMPDEST DUP3 MSTORE POP POP JUMP JUMPDEST PUSH1 0x0 DUP2 MLOAD SWAP1 POP SWAP2 SWAP1 POP JUMP JUMPDEST PUSH1 0x0 DUP3 DUP3 MSTORE PUSH1 0x20 DUP3 ADD SWAP1 POP SWAP3 SWAP2 POP POP JUMP JUMPDEST PUSH1 0x0 DUP2 SWAP1 POP PUSH1 0x20 DUP3 ADD SWAP1 POP SWAP2 SWAP1 POP JUMP JUMPDEST PUSH1 0x0 PUSH1 0x20 DUP3 ADD SWAP1 POP SWAP2 SWAP1 POP JUMP JUMPDEST PUSH1 0x0 PUSH2 0x4020 DUP3 PUSH2 0x3FDC JUMP JUMPDEST PUSH2 0x402A DUP2 DUP6 PUSH2 0x3FE7 JUMP JUMPDEST SWAP4 POP DUP4 PUSH1 0x20 DUP3 MUL DUP6 ADD PUSH2 0x403C DUP6 PUSH2 0x3FF8 JUMP JUMPDEST DUP1 PUSH1 0x0 JUMPDEST DUP6 DUP2 LT ISZERO PUSH2 0x4078 JUMPI DUP5 DUP5 SUB DUP10 MSTORE DUP2 MLOAD PUSH2 0x4059 DUP6 DUP3 PUSH2 0x3EEC JUMP JUMPDEST SWAP5 POP PUSH2 0x4064 DUP4 PUSH2 0x4008 JUMP JUMPDEST SWAP3 POP PUSH1 0x20 DUP11 ADD SWAP10 POP POP PUSH1 0x1 DUP2 ADD SWAP1 POP PUSH2 0x4040 JUMP JUMPDEST POP DUP3 SWAP8 POP DUP8 SWAP6 POP POP POP POP POP POP SWAP3 SWAP2 POP POP JUMP JUMPDEST PUSH1 0x0 DUP2 MLOAD SWAP1 POP SWAP2 SWAP1 POP JUMP JUMPDEST PUSH1 0x0 DUP3 DUP3 MSTORE PUSH1 0x20 DUP3 ADD SWAP1 POP SWAP3 SWAP2 POP POP JUMP JUMPDEST PUSH1 0x0 DUP2 SWAP1 POP PUSH1 0x20 DUP3 ADD SWAP1 POP SWAP2 SWAP1 POP JUMP JUMPDEST PUSH1 0x0 PUSH2 0x40C2 DUP4 DUP4 PUSH2 0x3F8C JUMP JUMPDEST PUSH1 0x20 DUP4 ADD SWAP1 POP SWAP3 SWAP2 POP POP JUMP JUMPDEST PUSH1 0x0 PUSH1 0x20 DUP3 ADD SWAP1 POP SWAP2 SWAP1 POP JUMP JUMPDEST PUSH1 0x0 PUSH2 0x40E6 DUP3 PUSH2 0x408A JUMP JUMPDEST PUSH2 0x40F0 DUP2 DUP6 PUSH2 0x4095 JUMP JUMPDEST SWAP4 POP PUSH2 0x40FB DUP4 PUSH2 0x40A6 JUMP JUMPDEST DUP1 PUSH1 0x0 JUMPDEST DUP4 DUP2 LT ISZERO PUSH2 0x412C JUMPI DUP2 MLOAD PUSH2 0x4113 DUP9 DUP3 PUSH2 0x40B6 JUMP JUMPDEST SWAP8 POP PUSH2 0x411E DUP4 PUSH2 0x40CE JUMP JUMPDEST SWAP3 POP POP PUSH1 0x1 DUP2 ADD SWAP1 POP PUSH2 0x40FF JUMP JUMPDEST POP DUP6 SWAP4 POP POP POP POP SWAP3 SWAP2 POP POP JUMP JUMPDEST PUSH1 0x0 PUSH2 0x180 DUP4 ADD PUSH1 0x0 DUP4 ADD MLOAD DUP5 DUP3 SUB PUSH1 0x0 DUP7 ADD MSTORE PUSH2 0x4157 DUP3 DUP3 PUSH2 0x3F0D JUMP JUMPDEST SWAP2 POP POP PUSH1 0x20 DUP4 ADD MLOAD PUSH2 0x416C PUSH1 0x20 DUP7 ADD DUP3 PUSH2 0x3F8C JUMP JUMPDEST POP PUSH1 0x40 DUP4 ADD MLOAD PUSH2 0x417F PUSH1 0x40 DUP7 ADD DUP3 PUSH2 0x3F8C JUMP JUMPDEST POP PUSH1 0x60 DUP4 ADD MLOAD PUSH2 0x4192 PUSH1 0x60 DUP7 ADD DUP3 PUSH2 0x3FCD JUMP JUMPDEST POP PUSH1 0x80 DUP4 ADD MLOAD DUP5 DUP3 SUB PUSH1 0x80 DUP7 ADD MSTORE PUSH2 0x41AA DUP3 DUP3 PUSH2 0x4015 JUMP JUMPDEST SWAP2 POP POP PUSH1 0xA0 DUP4 ADD MLOAD DUP5 DUP3 SUB PUSH1 0xA0 DUP7 ADD MSTORE PUSH2 0x41C4 DUP3 DUP3 PUSH2 0x4015 JUMP JUMPDEST SWAP2 POP POP PUSH1 0xC0 DUP4 ADD MLOAD DUP5 DUP3 SUB PUSH1 0xC0 DUP7 ADD MSTORE PUSH2 0x41DE DUP3 DUP3 PUSH2 0x4015 JUMP JUMPDEST SWAP2 POP POP PUSH1 0xE0 DUP4 ADD MLOAD DUP5 DUP3 SUB PUSH1 0xE0 DUP7 ADD MSTORE PUSH2 0x41F8 DUP3 DUP3 PUSH2 0x40DB JUMP JUMPDEST SWAP2 POP POP PUSH2 0x100 DUP4 ADD MLOAD DUP5 DUP3 SUB PUSH2 0x100 DUP7 ADD MSTORE PUSH2 0x4214 DUP3 DUP3 PUSH2 0x4015 JUMP JUMPDEST SWAP2 POP POP PUSH2 0x120 DUP4 ADD MLOAD DUP5 DUP3 SUB PUSH2 0x120 DUP7 ADD MSTORE PUSH2 0x4230 DUP3 DUP3 PUSH2 0x4015 JUMP JUMPDEST SWAP2 POP POP PUSH2 0x140 DUP4 ADD MLOAD DUP5 DUP3 SUB PUSH2 0x140 DUP7 ADD MSTORE PUSH2 0x424C DUP3 DUP3 PUSH2 0x4015 JUMP JUMPDEST SWAP2 POP POP PUSH2 0x160 DUP4 ADD MLOAD PUSH2 0x4263 PUSH2 0x160 DUP7 ADD DUP3 PUSH2 0x3F8C JUMP JUMPDEST POP DUP1 SWAP2 POP POP SWAP3 SWAP2 POP POP JUMP JUMPDEST PUSH1 0x0 PUSH2 0x427A DUP4 DUP4 PUSH2 0x4139 JUMP JUMPDEST SWAP1 POP SWAP3 SWAP2 POP POP JUMP JUMPDEST PUSH1 0x0 PUSH1 0x20 DUP3 ADD SWAP1 POP SWAP2 SWAP1 POP JUMP JUMPDEST PUSH1 0x0 PUSH2 0x429A DUP3 PUSH2 0x3E07 JUMP JUMPDEST PUSH2 0x42A4 DUP2 DUP6 PUSH2 0x3E12 JUMP JUMPDEST SWAP4 POP DUP4 PUSH1 0x20 DUP3 MUL DUP6 ADD PUSH2 0x42B6 DUP6 PUSH2 0x3E23 JUMP JUMPDEST DUP1 PUSH1 0x0 JUMPDEST DUP6 DUP2 LT ISZERO PUSH2 0x42F2 JUMPI DUP5 DUP5 SUB DUP10 MSTORE DUP2 MLOAD PUSH2 0x42D3 DUP6 DUP3 PUSH2 0x426E JUMP JUMPDEST SWAP5 POP PUSH2 0x42DE DUP4 PUSH2 0x4282 JUMP JUMPDEST SWAP3 POP PUSH1 0x20 DUP11 ADD SWAP10 POP POP PUSH1 0x1 DUP2 ADD SWAP1 POP PUSH2 0x42BA JUMP JUMPDEST POP DUP3 SWAP8 POP DUP8 SWAP6 POP POP POP POP POP POP SWAP3 SWAP2 POP POP JUMP JUMPDEST PUSH1 0x0 PUSH1 0x20 DUP3 ADD SWAP1 POP DUP2 DUP2 SUB PUSH1 0x0 DUP4 ADD MSTORE PUSH2 0x431E DUP2 DUP5 PUSH2 0x428F JUMP JUMPDEST SWAP1 POP SWAP3 SWAP2 POP POP JUMP JUMPDEST PUSH1 0x0 PUSH1 0x40 MLOAD SWAP1 POP SWAP1 JUMP JUMPDEST PUSH1 0x0 DUP1 REVERT JUMPDEST PUSH1 0x0 DUP1 REVERT JUMPDEST PUSH2 0x4343 DUP2 PUSH2 0x3F82 JUMP JUMPDEST DUP2 EQ PUSH2 0x434E JUMPI PUSH1 0x0 DUP1 REVERT JUMPDEST POP JUMP JUMPDEST PUSH1 0x0 DUP2 CALLDATALOAD SWAP1 POP PUSH2 0x4360 DUP2 PUSH2 0x433A JUMP JUMPDEST SWAP3 SWAP2 POP POP JUMP JUMPDEST PUSH1 0x0 PUSH1 0x20 DUP3 DUP5 SUB SLT ISZERO PUSH2 0x437C JUMPI PUSH2 0x437B PUSH2 0x4330 JUMP JUMPDEST JUMPDEST PUSH1 0x0 PUSH2 0x438A DUP5 DUP3 DUP6 ADD PUSH2 0x4351 JUMP JUMPDEST SWAP2 POP POP SWAP3 SWAP2 POP POP JUMP JUMPDEST PUSH1 0x0 DUP3 DUP3 MSTORE PUSH1 0x20 DUP3 ADD SWAP1 POP SWAP3 SWAP2 POP POP JUMP JUMPDEST PUSH1 0x0 PUSH2 0x43AF DUP3 PUSH2 0x3E53 JUMP JUMPDEST PUSH2 0x43B9 DUP2 DUP6 PUSH2 0x4393 JUMP JUMPDEST SWAP4 POP PUSH2 0x43C9 DUP2 DUP6 PUSH1 0x20 DUP7 ADD PUSH2 0x3E6F JUMP JUMPDEST PUSH2 0x43D2 DUP2 PUSH2 0x3EA2 JUMP JUMPDEST DUP5 ADD SWAP2 POP POP SWAP3 SWAP2 POP POP JUMP JUMPDEST PUSH1 0x0 PUSH1 0x20 DUP3 ADD SWAP1 POP DUP2 DUP2 SUB PUSH1 0x0 DUP4 ADD MSTORE PUSH2 0x43F7 DUP2 DUP5 PUSH2 0x43A4 JUMP JUMPDEST SWAP1 POP SWAP3 SWAP2 POP POP JUMP JUMPDEST PUSH2 0x4408 DUP2 PUSH2 0x3F82 JUMP JUMPDEST DUP3 MSTORE POP POP JUMP JUMPDEST PUSH1 0x0 PUSH1 0x20 DUP3 ADD SWAP1 POP PUSH2 0x4423 PUSH1 0x0 DUP4 ADD DUP5 PUSH2 0x43FF JUMP JUMPDEST SWAP3 SWAP2 POP POP JUMP JUMPDEST PUSH2 0x4432 DUP2 PUSH2 0x3FBB JUMP JUMPDEST DUP3 MSTORE POP POP JUMP JUMPDEST PUSH1 0x0 PUSH2 0x100 DUP3 ADD SWAP1 POP PUSH2 0x444E PUSH1 0x0 DUP4 ADD DUP12 PUSH2 0x4429 JUMP JUMPDEST DUP2 DUP2 SUB PUSH1 0x20 DUP4 ADD MSTORE PUSH2 0x4460 DUP2 DUP11 PUSH2 0x43A4 JUMP JUMPDEST SWAP1 POP PUSH2 0x446F PUSH1 0x40 DUP4 ADD DUP10 PUSH2 0x43FF JUMP JUMPDEST PUSH2 0x447C PUSH1 0x60 DUP4 ADD DUP9 PUSH2 0x43FF JUMP JUMPDEST PUSH2 0x4489 PUSH1 0x80 DUP4 ADD DUP8 PUSH2 0x43FF JUMP JUMPDEST PUSH2 0x4496 PUSH1 0xA0 DUP4 ADD DUP7 PUSH2 0x43FF JUMP JUMPDEST PUSH2 0x44A3 PUSH1 0xC0 DUP4 ADD DUP6 PUSH2 0x43FF JUMP JUMPDEST PUSH2 0x44B0 PUSH1 0xE0 DUP4 ADD DUP5 PUSH2 0x43FF JUMP JUMPDEST SWAP10 SWAP9 POP POP POP POP POP POP POP POP POP JUMP JUMPDEST PUSH1 0x0 PUSH1 0xC SWAP1 POP SWAP2 SWAP1 POP JUMP JUMPDEST PUSH1 0x0 DUP2 SWAP1 POP SWAP3 SWAP2 POP POP JUMP JUMPDEST PUSH1 0x0 DUP2 SWAP1 POP SWAP2 SWAP1 POP JUMP JUMPDEST PUSH1 0x0 PUSH1 0x20 DUP3 ADD SWAP1 POP SWAP2 SWAP1 POP JUMP JUMPDEST PUSH1 0x0 PUSH2 0x44F5 DUP3 PUSH2 0x44BD JUMP JUMPDEST PUSH2 0x44FF DUP2 DUP6 PUSH2 0x44C8 JUMP JUMPDEST SWAP4 POP DUP4 PUSH1 0x20 DUP3 MUL DUP6 ADD PUSH2 0x4511 DUP6 PUSH2 0x44D3 JUMP JUMPDEST DUP1 PUSH1 0x0 JUMPDEST DUP6 DUP2 LT ISZERO PUSH2 0x454D JUMPI DUP5 DUP5 SUB DUP10 MSTORE DUP2 MLOAD PUSH2 0x452E DUP6 DUP3 PUSH2 0x3EEC JUMP JUMPDEST SWAP5 POP PUSH2 0x4539 DUP4 PUSH2 0x44DD JUMP JUMPDEST SWAP3 POP PUSH1 0x20 DUP11 ADD SWAP10 POP POP PUSH1 0x1 DUP2 ADD SWAP1 POP PUSH2 0x4515 JUMP JUMPDEST POP DUP3 SWAP8 POP DUP8 SWAP6 POP POP POP POP POP POP SWAP3 SWAP2 POP POP JUMP JUMPDEST PUSH1 0x0 PUSH1 0x3 SWAP1 POP SWAP2 SWAP1 POP JUMP JUMPDEST PUSH1 0x0 DUP2 SWAP1 POP SWAP3 SWAP2 POP POP JUMP JUMPDEST PUSH1 0x0 DUP2 SWAP1 POP SWAP2 SWAP1 POP JUMP JUMPDEST PUSH1 0x0 PUSH1 0x20 DUP3 ADD SWAP1 POP SWAP2 SWAP1 POP JUMP JUMPDEST PUSH2 0x4595 DUP2 PUSH2 0x455F JUMP JUMPDEST PUSH2 0x459F DUP2 DUP5 PUSH2 0x456A JUMP JUMPDEST SWAP3 POP PUSH2 0x45AA DUP3 PUSH2 0x4575 JUMP JUMPDEST DUP1 PUSH1 0x0 JUMPDEST DUP4 DUP2 LT ISZERO PUSH2 0x45DB JUMPI DUP2 MLOAD PUSH2 0x45C2 DUP8 DUP3 PUSH2 0x40B6 JUMP JUMPDEST SWAP7 POP PUSH2 0x45CD DUP4 PUSH2 0x457F JUMP JUMPDEST SWAP3 POP POP PUSH1 0x1 DUP2 ADD SWAP1 POP PUSH2 0x45AE JUMP JUMPDEST POP POP POP POP POP POP JUMP JUMPDEST PUSH1 0x0 DUP2 MLOAD SWAP1 POP SWAP2 SWAP1 POP JUMP JUMPDEST PUSH1 0x0 DUP3 DUP3 MSTORE PUSH1 0x20 DUP3 ADD SWAP1 POP SWAP3 SWAP2 POP POP JUMP JUMPDEST PUSH1 0x0 DUP2 SWAP1 POP PUSH1 0x20 DUP3 ADD SWAP1 POP SWAP2 SWAP1 POP JUMP JUMPDEST PUSH1 0x0 PUSH1 0x4 SWAP1 POP SWAP2 SWAP1 POP JUMP JUMPDEST PUSH1 0x0 DUP2 SWAP1 POP SWAP3 SWAP2 POP POP JUMP JUMPDEST PUSH1 0x0 DUP2 SWAP1 POP SWAP2 SWAP1 POP JUMP JUMPDEST PUSH1 0x0 PUSH1 0x20 DUP3 ADD SWAP1 POP SWAP2 SWAP1 POP JUMP JUMPDEST PUSH2 0x4645 DUP2 PUSH2 0x460F JUMP JUMPDEST PUSH2 0x464F DUP2 DUP5 PUSH2 0x461A JUMP JUMPDEST SWAP3 POP PUSH2 0x465A DUP3 PUSH2 0x4625 JUMP JUMPDEST DUP1 PUSH1 0x0 JUMPDEST DUP4 DUP2 LT ISZERO PUSH2 0x468B JUMPI DUP2 MLOAD PUSH2 0x4672 DUP8 DUP3 PUSH2 0x40B6 JUMP JUMPDEST SWAP7 POP PUSH2 0x467D DUP4 PUSH2 0x462F JUMP JUMPDEST SWAP3 POP POP PUSH1 0x1 DUP2 ADD SWAP1 POP PUSH2 0x465E JUMP JUMPDEST POP POP POP POP POP POP JUMP JUMPDEST PUSH1 0x0 PUSH1 0xE0 DUP4 ADD PUSH1 0x0 DUP4 ADD MLOAD PUSH2 0x46AB PUSH1 0x0 DUP7 ADD DUP3 PUSH2 0x463C JUMP JUMPDEST POP PUSH1 0x20 DUP4 ADD MLOAD DUP5 DUP3 SUB PUSH1 0x80 DUP7 ADD MSTORE PUSH2 0x46C3 DUP3 DUP3 PUSH2 0x3EB3 JUMP JUMPDEST SWAP2 POP POP PUSH1 0x40 DUP4 ADD MLOAD DUP5 DUP3 SUB PUSH1 0xA0 DUP7 ADD MSTORE PUSH2 0x46DD DUP3 DUP3 PUSH2 0x3EB3 JUMP JUMPDEST SWAP2 POP POP PUSH1 0x60 DUP4 ADD MLOAD DUP5 DUP3 SUB PUSH1 0xC0 DUP7 ADD MSTORE PUSH2 0x46F7 DUP3 DUP3 PUSH2 0x3EB3 JUMP JUMPDEST SWAP2 POP POP DUP1 SWAP2 POP POP SWAP3 SWAP2 POP POP JUMP JUMPDEST PUSH1 0x0 PUSH2 0x4710 DUP4 DUP4 PUSH2 0x4693 JUMP JUMPDEST SWAP1 POP SWAP3 SWAP2 POP POP JUMP JUMPDEST PUSH1 0x0 PUSH1 0x20 DUP3 ADD SWAP1 POP SWAP2 SWAP1 POP JUMP JUMPDEST PUSH1 0x0 PUSH2 0x4730 DUP3 PUSH2 0x45E3 JUMP JUMPDEST PUSH2 0x473A DUP2 DUP6 PUSH2 0x45EE JUMP JUMPDEST SWAP4 POP DUP4 PUSH1 0x20 DUP3 MUL DUP6 ADD PUSH2 0x474C DUP6 PUSH2 0x45FF JUMP JUMPDEST DUP1 PUSH1 0x0 JUMPDEST DUP6 DUP2 LT ISZERO PUSH2 0x4788 JUMPI DUP5 DUP5 SUB DUP10 MSTORE DUP2 MLOAD PUSH2 0x4769 DUP6 DUP3 PUSH2 0x4704 JUMP JUMPDEST SWAP5 POP PUSH2 0x4774 DUP4 PUSH2 0x4718 JUMP JUMPDEST SWAP3 POP PUSH1 0x20 DUP11 ADD SWAP10 POP POP PUSH1 0x1 DUP2 ADD SWAP1 POP PUSH2 0x4750 JUMP JUMPDEST POP DUP3 SWAP8 POP DUP8 SWAP6 POP POP POP POP POP POP SWAP3 SWAP2 POP POP JUMP JUMPDEST PUSH1 0x0 PUSH2 0x200 DUP4 ADD PUSH1 0x0 DUP4 ADD MLOAD DUP5 DUP3 SUB PUSH1 0x0 DUP7 ADD MSTORE PUSH2 0x47B8 DUP3 DUP3 PUSH2 0x44EA JUMP JUMPDEST SWAP2 POP POP PUSH1 0x20 DUP4 ADD MLOAD PUSH2 0x47CD PUSH1 0x20 DUP7 ADD DUP3 PUSH2 0x458C JUMP JUMPDEST POP PUSH1 0x40 DUP4 ADD MLOAD PUSH2 0x47E0 PUSH1 0x80 DUP7 ADD DUP3 PUSH2 0x3FCD JUMP JUMPDEST POP PUSH1 0x60 DUP4 ADD MLOAD DUP5 DUP3 SUB PUSH1 0xA0 DUP7 ADD MSTORE PUSH2 0x47F8 DUP3 DUP3 PUSH2 0x3EB3 JUMP JUMPDEST SWAP2 POP POP PUSH1 0x80 DUP4 ADD MLOAD DUP5 DUP3 SUB PUSH1 0xC0 DUP7 ADD MSTORE PUSH2 0x4812 DUP3 DUP3 PUSH2 0x4015 JUMP JUMPDEST SWAP2 POP POP PUSH1 0xA0 DUP4 ADD MLOAD DUP5 DUP3 SUB PUSH1 0xE0 DUP7 ADD MSTORE PUSH2 0x482C DUP3 DUP3 PUSH2 0x4725 JUMP JUMPDEST SWAP2 POP POP PUSH1 0xC0 DUP4 ADD MLOAD PUSH2 0x4842 PUSH2 0x100 DUP7 ADD DUP3 PUSH2 0x3F8C JUMP JUMPDEST POP PUSH1 0xE0 DUP4 ADD MLOAD PUSH2 0x4856 PUSH2 0x120 DUP7 ADD DUP3 PUSH2 0x3F8C JUMP JUMPDEST POP PUSH2 0x100 DUP4 ADD MLOAD PUSH2 0x486B PUSH2 0x140 DUP7 ADD DUP3 PUSH2 0x3F8C JUMP JUMPDEST POP PUSH2 0x120 DUP4 ADD MLOAD PUSH2 0x4880 PUSH2 0x160 DUP7 ADD DUP3 PUSH2 0x3F8C JUMP JUMPDEST POP PUSH2 0x140 DUP4 ADD MLOAD DUP5 DUP3 SUB PUSH2 0x180 DUP7 ADD MSTORE PUSH2 0x489A DUP3 DUP3 PUSH2 0x40DB JUMP JUMPDEST SWAP2 POP POP PUSH2 0x160 DUP4 ADD MLOAD DUP5 DUP3 SUB PUSH2 0x1A0 DUP7 ADD MSTORE PUSH2 0x48B6 DUP3 DUP3 PUSH2 0x4015 JUMP JUMPDEST SWAP2 POP POP PUSH2 0x180 DUP4 ADD MLOAD PUSH2 0x48CD PUSH2 0x1C0 DUP7 ADD DUP3 PUSH2 0x3F8C JUMP JUMPDEST POP PUSH2 0x1A0 DUP4 ADD MLOAD PUSH2 0x48E2 PUSH2 0x1E0 DUP7 ADD DUP3 PUSH2 0x3F8C JUMP JUMPDEST POP DUP1 SWAP2 POP POP SWAP3 SWAP2 POP POP JUMP JUMPDEST PUSH1 0x0 PUSH1 0x20 DUP3 ADD SWAP1 POP DUP2 DUP2 SUB PUSH1 0x0 DUP4 ADD MSTORE PUSH2 0x4907 DUP2 DUP5 PUSH2 0x479A JUMP JUMPDEST SWAP1 POP SWAP3 SWAP2 POP POP JUMP JUMPDEST PUSH1 0x0 DUP1 REVERT JUMPDEST PUSH32 0x4E487B7100000000000000000000000000000000000000000000000000000000 PUSH1 0x0 MSTORE PUSH1 0x41 PUSH1 0x4 MSTORE PUSH1 0x24 PUSH1 0x0 REVERT JUMPDEST PUSH2 0x494C DUP3 PUSH2 0x3EA2 JUMP JUMPDEST DUP2 ADD DUP2 DUP2 LT PUSH8 0xFFFFFFFFFFFFFFFF DUP3 GT OR ISZERO PUSH2 0x496B JUMPI PUSH2 0x496A PUSH2 0x4914 JUMP JUMPDEST JUMPDEST DUP1 PUSH1 0x40 MSTORE POP POP POP JUMP JUMPDEST PUSH1 0x0 PUSH2 0x497E PUSH2 0x4326 JUMP JUMPDEST SWAP1 POP PUSH2 0x498A DUP3 DUP3 PUSH2 0x4943 JUMP JUMPDEST SWAP2 SWAP1 POP JUMP JUMPDEST PUSH1 0x0 PUSH8 0xFFFFFFFFFFFFFFFF DUP3 GT ISZERO PUSH2 0x49AA JUMPI PUSH2 0x49A9 PUSH2 0x4914 JUMP JUMPDEST JUMPDEST PUSH1 0x20 DUP3 MUL SWAP1 POP SWAP2 SWAP1 POP JUMP JUMPDEST PUSH1 0x0 DUP1 REVERT JUMPDEST PUSH1 0x0 DUP1 REVERT JUMPDEST PUSH1 0x0 PUSH8 0xFFFFFFFFFFFFFFFF DUP3 GT ISZERO PUSH2 0x49DA JUMPI PUSH2 0x49D9 PUSH2 0x4914 JUMP JUMPDEST JUMPDEST PUSH2 0x49E3 DUP3 PUSH2 0x3EA2 JUMP JUMPDEST SWAP1 POP PUSH1 0x20 DUP2 ADD SWAP1 POP SWAP2 SWAP1 POP JUMP JUMPDEST DUP3 DUP2 DUP4 CALLDATACOPY PUSH1 0x0 DUP4 DUP4 ADD MSTORE POP POP POP JUMP JUMPDEST PUSH1 0x0 PUSH2 0x4A12 PUSH2 0x4A0D DUP5 PUSH2 0x49BF JUMP JUMPDEST PUSH2 0x4974 JUMP JUMPDEST SWAP1 POP DUP3 DUP2 MSTORE PUSH1 0x20 DUP2 ADD DUP5 DUP5 DUP5 ADD GT ISZERO PUSH2 0x4A2E JUMPI PUSH2 0x4A2D PUSH2 0x49BA JUMP JUMPDEST JUMPDEST PUSH2 0x4A39 DUP5 DUP3 DUP6 PUSH2 0x49F0 JUMP JUMPDEST POP SWAP4 SWAP3 POP POP POP JUMP JUMPDEST PUSH1 0x0 DUP3 PUSH1 0x1F DUP4 ADD SLT PUSH2 0x4A56 JUMPI PUSH2 0x4A55 PUSH2 0x490F JUMP JUMPDEST JUMPDEST DUP2 CALLDATALOAD PUSH2 0x4A66 DUP5 DUP3 PUSH1 0x20 DUP7 ADD PUSH2 0x49FF JUMP JUMPDEST SWAP2 POP POP SWAP3 SWAP2 POP POP JUMP JUMPDEST PUSH1 0x0 PUSH2 0x4A82 PUSH2 0x4A7D DUP5 PUSH2 0x498F JUMP JUMPDEST PUSH2 0x4974 JUMP JUMPDEST SWAP1 POP DUP1 PUSH1 0x20 DUP5 MUL DUP4 ADD DUP6 DUP2 GT ISZERO PUSH2 0x4A9C JUMPI PUSH2 0x4A9B PUSH2 0x49B5 JUMP JUMPDEST JUMPDEST DUP4 JUMPDEST DUP2 DUP2 LT ISZERO PUSH2 0x4AE3 JUMPI DUP1 CALLDATALOAD PUSH8 0xFFFFFFFFFFFFFFFF DUP2 GT ISZERO PUSH2 0x4AC1 JUMPI PUSH2 0x4AC0 PUSH2 0x490F JUMP JUMPDEST JUMPDEST DUP1 DUP7 ADD PUSH2 0x4ACE DUP10 DUP3 PUSH2 0x4A41 JUMP JUMPDEST DUP6 MSTORE PUSH1 0x20 DUP6 ADD SWAP5 POP POP POP PUSH1 0x20 DUP2 ADD SWAP1 POP PUSH2 0x4A9E JUMP JUMPDEST POP POP POP SWAP4 SWAP3 POP POP POP JUMP JUMPDEST PUSH1 0x0 DUP3 PUSH1 0x1F DUP4 ADD SLT PUSH2 0x4B02 JUMPI PUSH2 0x4B01 PUSH2 0x490F JUMP JUMPDEST JUMPDEST PUSH1 0xA PUSH2 0x4B0F DUP5 DUP3 DUP6 PUSH2 0x4A6F JUMP JUMPDEST SWAP2 POP POP SWAP3 SWAP2 POP POP JUMP JUMPDEST PUSH2 0x4B21 DUP2 PUSH2 0x3FBB JUMP JUMPDEST DUP2 EQ PUSH2 0x4B2C JUMPI PUSH1 0x0 DUP1 REVERT JUMPDEST POP JUMP JUMPDEST PUSH1 0x0 DUP2 CALLDATALOAD SWAP1 POP PUSH2 0x4B3E DUP2 PUSH2 0x4B18 JUMP JUMPDEST SWAP3 SWAP2 POP POP JUMP JUMPDEST PUSH1 0x0 PUSH8 0xFFFFFFFFFFFFFFFF DUP3 GT ISZERO PUSH2 0x4B5F JUMPI PUSH2 0x4B5E PUSH2 0x4914 JUMP JUMPDEST JUMPDEST PUSH1 0x20 DUP3 MUL SWAP1 POP PUSH1 0x20 DUP2 ADD SWAP1 POP SWAP2 SWAP1 POP JUMP JUMPDEST PUSH1 0x0 PUSH2 0x4B83 PUSH2 0x4B7E DUP5 PUSH2 0x4B44 JUMP JUMPDEST PUSH2 0x4974 JUMP JUMPDEST SWAP1 POP DUP1 DUP4 DUP3 MSTORE PUSH1 0x20 DUP3 ADD SWAP1 POP PUSH1 0x20 DUP5 MUL DUP4 ADD DUP6 DUP2 GT ISZERO PUSH2 0x4BA6 JUMPI PUSH2 0x4BA5 PUSH2 0x49B5 JUMP JUMPDEST JUMPDEST DUP4 JUMPDEST DUP2 DUP2 LT ISZERO PUSH2 0x4BED JUMPI DUP1 CALLDATALOAD PUSH8 0xFFFFFFFFFFFFFFFF DUP2 GT ISZERO PUSH2 0x4BCB JUMPI PUSH2 0x4BCA PUSH2 0x490F JUMP JUMPDEST JUMPDEST DUP1 DUP7 ADD PUSH2 0x4BD8 DUP10 DUP3 PUSH2 0x4A41 JUMP JUMPDEST DUP6 MSTORE PUSH1 0x20 DUP6 ADD SWAP5 POP POP POP PUSH1 0x20 DUP2 ADD SWAP1 POP PUSH2 0x4BA8 JUMP JUMPDEST POP POP POP SWAP4 SWAP3 POP POP POP JUMP JUMPDEST PUSH1 0x0 DUP3 PUSH1 0x1F DUP4 ADD SLT PUSH2 0x4C0C JUMPI PUSH2 0x4C0B PUSH2 0x490F JUMP JUMPDEST JUMPDEST DUP2 CALLDATALOAD PUSH2 0x4C1C DUP5 DUP3 PUSH1 0x20 DUP7 ADD PUSH2 0x4B70 JUMP JUMPDEST SWAP2 POP POP SWAP3 SWAP2 POP POP JUMP JUMPDEST PUSH1 0x0 PUSH8 0xFFFFFFFFFFFFFFFF DUP3 GT ISZERO PUSH2 0x4C40 JUMPI PUSH2 0x4C3F PUSH2 0x4914 JUMP JUMPDEST JUMPDEST PUSH1 0x20 DUP3 MUL SWAP1 POP PUSH1 0x20 DUP2 ADD SWAP1 POP SWAP2 SWAP1 POP JUMP JUMPDEST PUSH1 0x0 PUSH2 0x4C64 PUSH2 0x4C5F DUP5 PUSH2 0x4C25 JUMP JUMPDEST PUSH2 0x4974 JUMP JUMPDEST SWAP1 POP DUP1 DUP4 DUP3 MSTORE PUSH1 0x20 DUP3 ADD SWAP1 POP PUSH1 0x20 DUP5 MUL DUP4 ADD DUP6 DUP2 GT ISZERO PUSH2 0x4C87 JUMPI PUSH2 0x4C86 PUSH2 0x49B5 JUMP JUMPDEST JUMPDEST DUP4 JUMPDEST DUP2 DUP2 LT ISZERO PUSH2 0x4CB0 JUMPI DUP1 PUSH2 0x4C9C DUP9 DUP3 PUSH2 0x4351 JUMP JUMPDEST DUP5 MSTORE PUSH1 0x20 DUP5 ADD SWAP4 POP POP PUSH1 0x20 DUP2 ADD SWAP1 POP PUSH2 0x4C89 JUMP JUMPDEST POP POP POP SWAP4 SWAP3 POP POP POP JUMP JUMPDEST PUSH1 0x0 DUP3 PUSH1 0x1F DUP4 ADD SLT PUSH2 0x4CCF JUMPI PUSH2 0x4CCE PUSH2 0x490F JUMP JUMPDEST JUMPDEST DUP2 CALLDATALOAD PUSH2 0x4CDF DUP5 DUP3 PUSH1 0x20 DUP7 ADD PUSH2 0x4C51 JUMP JUMPDEST SWAP2 POP POP SWAP3 SWAP2 POP POP JUMP JUMPDEST PUSH1 0x0 DUP1 PUSH1 0x0 DUP1 PUSH1 0x0 DUP1 PUSH1 0x0 DUP1 PUSH1 0x0 PUSH2 0x120 DUP11 DUP13 SUB SLT ISZERO PUSH2 0x4D0B JUMPI PUSH2 0x4D0A PUSH2 0x4330 JUMP JUMPDEST JUMPDEST PUSH1 0x0 DUP11 ADD CALLDATALOAD PUSH8 0xFFFFFFFFFFFFFFFF DUP2 GT ISZERO PUSH2 0x4D29 JUMPI PUSH2 0x4D28 PUSH2 0x4335 JUMP JUMPDEST JUMPDEST PUSH2 0x4D35 DUP13 DUP3 DUP14 ADD PUSH2 0x4AED JUMP JUMPDEST SWAP10 POP POP PUSH1 0x20 PUSH2 0x4D46 DUP13 DUP3 DUP14 ADD PUSH2 0x4B2F JUMP JUMPDEST SWAP9 POP POP PUSH1 0x40 DUP11 ADD CALLDATALOAD PUSH8 0xFFFFFFFFFFFFFFFF DUP2 GT ISZERO PUSH2 0x4D67 JUMPI PUSH2 0x4D66 PUSH2 0x4335 JUMP JUMPDEST JUMPDEST PUSH2 0x4D73 DUP13 DUP3 DUP14 ADD PUSH2 0x4BF7 JUMP JUMPDEST SWAP8 POP POP PUSH1 0x60 DUP11 ADD CALLDATALOAD PUSH8 0xFFFFFFFFFFFFFFFF DUP2 GT ISZERO PUSH2 0x4D94 JUMPI PUSH2 0x4D93 PUSH2 0x4335 JUMP JUMPDEST JUMPDEST PUSH2 0x4DA0 DUP13 DUP3 DUP14 ADD PUSH2 0x4BF7 JUMP JUMPDEST SWAP7 POP POP PUSH1 0x80 DUP11 ADD CALLDATALOAD PUSH8 0xFFFFFFFFFFFFFFFF DUP2 GT ISZERO PUSH2 0x4DC1 JUMPI PUSH2 0x4DC0 PUSH2 0x4335 JUMP JUMPDEST JUMPDEST PUSH2 0x4DCD DUP13 DUP3 DUP14 ADD PUSH2 0x4BF7 JUMP JUMPDEST SWAP6 POP POP PUSH1 0xA0 DUP11 ADD CALLDATALOAD PUSH8 0xFFFFFFFFFFFFFFFF DUP2 GT ISZERO PUSH2 0x4DEE JUMPI PUSH2 0x4DED PUSH2 0x4335 JUMP JUMPDEST JUMPDEST PUSH2 0x4DFA DUP13 DUP3 DUP14 ADD PUSH2 0x4CBA JUMP JUMPDEST SWAP5 POP POP PUSH1 0xC0 DUP11 ADD CALLDATALOAD PUSH8 0xFFFFFFFFFFFFFFFF DUP2 GT ISZERO PUSH2 0x4E1B JUMPI PUSH2 0x4E1A PUSH2 0x4335 JUMP JUMPDEST JUMPDEST PUSH2 0x4E27 DUP13 DUP3 DUP14 ADD PUSH2 0x4BF7 JUMP JUMPDEST SWAP4 POP POP PUSH1 0xE0 DUP11 ADD CALLDATALOAD PUSH8 0xFFFFFFFFFFFFFFFF DUP2 GT ISZERO PUSH2 0x4E48 JUMPI PUSH2 0x4E47 PUSH2 0x4335 JUMP JUMPDEST JUMPDEST PUSH2 0x4E54 DUP13 DUP3 DUP14 ADD PUSH2 0x4BF7 JUMP JUMPDEST SWAP3 POP POP PUSH2 0x100 DUP11 ADD CALLDATALOAD PUSH8 0xFFFFFFFFFFFFFFFF DUP2 GT ISZERO PUSH2 0x4E76 JUMPI PUSH2 0x4E75 PUSH2 0x4335 JUMP JUMPDEST JUMPDEST PUSH2 0x4E82 DUP13 DUP3 DUP14 ADD PUSH2 0x4BF7 JUMP JUMPDEST SWAP2 POP POP SWAP3 SWAP6 SWAP9 POP SWAP3 SWAP6 SWAP9 POP SWAP3 SWAP6 SWAP9 JUMP JUMPDEST PUSH1 0x0 DUP1 PUSH1 0x40 DUP4 DUP6 SUB SLT ISZERO PUSH2 0x4EA9 JUMPI PUSH2 0x4EA8 PUSH2 0x4330 JUMP JUMPDEST JUMPDEST PUSH1 0x0 PUSH2 0x4EB7 DUP6 DUP3 DUP7 ADD PUSH2 0x4351 JUMP JUMPDEST SWAP3 POP POP PUSH1 0x20 PUSH2 0x4EC8 DUP6 DUP3 DUP7 ADD PUSH2 0x4351 JUMP JUMPDEST SWAP2 POP POP SWAP3 POP SWAP3 SWAP1 POP JUMP JUMPDEST PUSH1 0x0 PUSH1 0x60 DUP3 ADD SWAP1 POP DUP2 DUP2 SUB PUSH1 0x0 DUP4 ADD MSTORE PUSH2 0x4EEC DUP2 DUP7 PUSH2 0x43A4 JUMP JUMPDEST SWAP1 POP DUP2 DUP2 SUB PUSH1 0x20 DUP4 ADD MSTORE PUSH2 0x4F00 DUP2 DUP6 PUSH2 0x43A4 JUMP JUMPDEST SWAP1 POP DUP2 DUP2 SUB PUSH1 0x40 DUP4 ADD MSTORE PUSH2 0x4F14 DUP2 DUP5 PUSH2 0x43A4 JUMP JUMPDEST SWAP1 POP SWAP5 SWAP4 POP POP POP POP JUMP JUMPDEST PUSH1 0x0 DUP2 MLOAD SWAP1 POP SWAP2 SWAP1 POP JUMP JUMPDEST PUSH1 0x0 DUP3 DUP3 MSTORE PUSH1 0x20 DUP3 ADD SWAP1 POP SWAP3 SWAP2 POP POP JUMP JUMPDEST PUSH1 0x0 DUP2 SWAP1 POP PUSH1 0x20 DUP3 ADD SWAP1 POP SWAP2 SWAP1 POP JUMP JUMPDEST PUSH1 0x0 PUSH2 0x200 DUP4 ADD PUSH1 0x0 DUP4 ADD MLOAD DUP5 DUP3 SUB PUSH1 0x0 DUP7 ADD MSTORE PUSH2 0x4F68 DUP3 DUP3 PUSH2 0x44EA JUMP JUMPDEST SWAP2 POP POP PUSH1 0x20 DUP4 ADD MLOAD PUSH2 0x4F7D PUSH1 0x20 DUP7 ADD DUP3 PUSH2 0x458C JUMP JUMPDEST POP PUSH1 0x40 DUP4 ADD MLOAD PUSH2 0x4F90 PUSH1 0x80 DUP7 ADD DUP3 PUSH2 0x3FCD JUMP JUMPDEST POP PUSH1 0x60 DUP4 ADD MLOAD DUP5 DUP3 SUB PUSH1 0xA0 DUP7 ADD MSTORE PUSH2 0x4FA8 DUP3 DUP3 PUSH2 0x3EB3 JUMP JUMPDEST SWAP2 POP POP PUSH1 0x80 DUP4 ADD MLOAD DUP5 DUP3 SUB PUSH1 0xC0 DUP7 ADD MSTORE PUSH2 0x4FC2 DUP3 DUP3 PUSH2 0x4015 JUMP JUMPDEST SWAP2 POP POP PUSH1 0xA0 DUP4 ADD MLOAD DUP5 DUP3 SUB PUSH1 0xE0 DUP7 ADD MSTORE PUSH2 0x4FDC DUP3 DUP3 PUSH2 0x4725 JUMP JUMPDEST SWAP2 POP POP PUSH1 0xC0 DUP4 ADD MLOAD PUSH2 0x4FF2 PUSH2 0x100 DUP7 ADD DUP3 PUSH2 0x3F8C JUMP JUMPDEST POP PUSH1 0xE0 DUP4 ADD MLOAD PUSH2 0x5006 PUSH2 0x120 DUP7 ADD DUP3 PUSH2 0x3F8C JUMP JUMPDEST POP PUSH2 0x100 DUP4 ADD MLOAD PUSH2 0x501B PUSH2 0x140 DUP7 ADD DUP3 PUSH2 0x3F8C JUMP JUMPDEST POP PUSH2 0x120 DUP4 ADD MLOAD PUSH2 0x5030 PUSH2 0x160 DUP7 ADD DUP3 PUSH2 0x3F8C JUMP JUMPDEST POP PUSH2 0x140 DUP4 ADD MLOAD DUP5 DUP3 SUB PUSH2 0x180 DUP7 ADD MSTORE PUSH2 0x504A DUP3 DUP3 PUSH2 0x40DB JUMP JUMPDEST SWAP2 POP POP PUSH2 0x160 DUP4 ADD MLOAD DUP5 DUP3 SUB PUSH2 0x1A0 DUP7 ADD MSTORE PUSH2 0x5066 DUP3 DUP3 PUSH2 0x4015 JUMP JUMPDEST SWAP2 POP POP PUSH2 0x180 DUP4 ADD MLOAD PUSH2 0x507D PUSH2 0x1C0 DUP7 ADD DUP3 PUSH2 0x3F8C JUMP JUMPDEST POP PUSH2 0x1A0 DUP4 ADD MLOAD PUSH2 0x5092 PUSH2 0x1E0 DUP7 ADD DUP3 PUSH2 0x3F8C JUMP JUMPDEST POP DUP1 SWAP2 POP POP SWAP3 SWAP2 POP POP JUMP JUMPDEST PUSH1 0x0 PUSH2 0x50A9 DUP4 DUP4 PUSH2 0x4F4A JUMP JUMPDEST SWAP1 POP SWAP3 SWAP2 POP POP JUMP JUMPDEST PUSH1 0x0 PUSH1 0x20 DUP3 ADD SWAP1 POP SWAP2 SWAP1 POP JUMP JUMPDEST PUSH1 0x0 PUSH2 0x50C9 DUP3 PUSH2 0x4F1E JUMP JUMPDEST PUSH2 0x50D3 DUP2 DUP6 PUSH2 0x4F29 JUMP JUMPDEST SWAP4 POP DUP4 PUSH1 0x20 DUP3 MUL DUP6 ADD PUSH2 0x50E5 DUP6 PUSH2 0x4F3A JUMP JUMPDEST DUP1 PUSH1 0x0 JUMPDEST DUP6 DUP2 LT ISZERO PUSH2 0x5121 JUMPI DUP5 DUP5 SUB DUP10 MSTORE DUP2 MLOAD PUSH2 0x5102 DUP6 DUP3 PUSH2 0x509D JUMP JUMPDEST SWAP5 POP PUSH2 0x510D DUP4 PUSH2 0x50B1 JUMP JUMPDEST SWAP3 POP PUSH1 0x20 DUP11 ADD SWAP10 POP POP PUSH1 0x1 DUP2 ADD SWAP1 POP PUSH2 0x50E9 JUMP JUMPDEST POP DUP3 SWAP8 POP DUP8 SWAP6 POP POP POP POP POP POP SWAP3 SWAP2 POP POP JUMP JUMPDEST PUSH1 0x0 PUSH1 0x20 DUP3 ADD SWAP1 POP DUP2 DUP2 SUB PUSH1 0x0 DUP4 ADD MSTORE PUSH2 0x514D DUP2 DUP5 PUSH2 0x50BE JUMP JUMPDEST SWAP1 POP SWAP3 SWAP2 POP POP JUMP JUMPDEST PUSH1 0x0 DUP1 PUSH1 0x0 DUP1 PUSH1 0x0 DUP1 PUSH1 0x0 DUP1 PUSH2 0x100 DUP10 DUP12 SUB SLT ISZERO PUSH2 0x5176 JUMPI PUSH2 0x5175 PUSH2 0x4330 JUMP JUMPDEST JUMPDEST PUSH1 0x0 PUSH2 0x5184 DUP12 DUP3 DUP13 ADD PUSH2 0x4351 JUMP JUMPDEST SWAP9 POP POP PUSH1 0x20 DUP10 ADD CALLDATALOAD PUSH8 0xFFFFFFFFFFFFFFFF DUP2 GT ISZERO PUSH2 0x51A5 JUMPI PUSH2 0x51A4 PUSH2 0x4335 JUMP JUMPDEST JUMPDEST PUSH2 0x51B1 DUP12 DUP3 DUP13 ADD PUSH2 0x4A41 JUMP JUMPDEST SWAP8 POP POP PUSH1 0x40 PUSH2 0x51C2 DUP12 DUP3 DUP13 ADD PUSH2 0x4351 JUMP JUMPDEST SWAP7 POP POP PUSH1 0x60 PUSH2 0x51D3 DUP12 DUP3 DUP13 ADD PUSH2 0x4351 JUMP JUMPDEST SWAP6 POP POP PUSH1 0x80 PUSH2 0x51E4 DUP12 DUP3 DUP13 ADD PUSH2 0x4351 JUMP JUMPDEST SWAP5 POP POP PUSH1 0xA0 PUSH2 0x51F5 DUP12 DUP3 DUP13 ADD PUSH2 0x4351 JUMP JUMPDEST SWAP4 POP POP PUSH1 0xC0 DUP10 ADD CALLDATALOAD PUSH8 0xFFFFFFFFFFFFFFFF DUP2 GT ISZERO PUSH2 0x5216 JUMPI PUSH2 0x5215 PUSH2 0x4335 JUMP JUMPDEST JUMPDEST PUSH2 0x5222 DUP12 DUP3 DUP13 ADD PUSH2 0x4A41 JUMP JUMPDEST SWAP3 POP POP PUSH1 0xE0 DUP10 ADD CALLDATALOAD PUSH8 0xFFFFFFFFFFFFFFFF DUP2 GT ISZERO PUSH2 0x5243 JUMPI PUSH2 0x5242 PUSH2 0x4335 JUMP JUMPDEST JUMPDEST PUSH2 0x524F DUP12 DUP3 DUP13 ADD PUSH2 0x4A41 JUMP JUMPDEST SWAP2 POP POP SWAP3 SWAP6 SWAP9 POP SWAP3 SWAP6 SWAP9 SWAP1 SWAP4 SWAP7 POP JUMP JUMPDEST PUSH1 0x0 PUSH1 0x80 DUP3 ADD SWAP1 POP PUSH2 0x5274 PUSH1 0x0 DUP4 ADD DUP8 PUSH2 0x43FF JUMP JUMPDEST PUSH2 0x5281 PUSH1 0x20 DUP4 ADD DUP7 PUSH2 0x43FF JUMP JUMPDEST PUSH2 0x528E PUSH1 0x40 DUP4 ADD DUP6 PUSH2 0x4429 JUMP JUMPDEST PUSH2 0x529B PUSH1 0x60 DUP4 ADD DUP5 PUSH2 0x43FF JUMP JUMPDEST SWAP6 SWAP5 POP POP POP POP POP JUMP JUMPDEST PUSH1 0x0 DUP1 PUSH1 0x0 PUSH1 0x60 DUP5 DUP7 SUB SLT ISZERO PUSH2 0x52BD JUMPI PUSH2 0x52BC PUSH2 0x4330 JUMP JUMPDEST JUMPDEST PUSH1 0x0 PUSH2 0x52CB DUP7 DUP3 DUP8 ADD PUSH2 0x4351 JUMP JUMPDEST SWAP4 POP POP PUSH1 0x20 PUSH2 0x52DC DUP7 DUP3 DUP8 ADD PUSH2 0x4351 JUMP JUMPDEST SWAP3 POP POP PUSH1 0x40 PUSH2 0x52ED DUP7 DUP3 DUP8 ADD PUSH2 0x4351 JUMP JUMPDEST SWAP2 POP POP SWAP3 POP SWAP3 POP SWAP3 JUMP JUMPDEST PUSH1 0x0 DUP1 PUSH1 0x40 DUP4 DUP6 SUB SLT ISZERO PUSH2 0x530E JUMPI PUSH2 0x530D PUSH2 0x4330 JUMP JUMPDEST JUMPDEST PUSH1 0x0 PUSH2 0x531C DUP6 DUP3 DUP7 ADD PUSH2 0x4351 JUMP JUMPDEST SWAP3 POP POP PUSH1 0x20 DUP4 ADD CALLDATALOAD PUSH8 0xFFFFFFFFFFFFFFFF DUP2 GT ISZERO PUSH2 0x533D JUMPI PUSH2 0x533C PUSH2 0x4335 JUMP JUMPDEST JUMPDEST PUSH2 0x5349 DUP6 DUP3 DUP7 ADD PUSH2 0x4A41 JUMP JUMPDEST SWAP2 POP POP SWAP3 POP SWAP3 SWAP1 POP JUMP JUMPDEST PUSH1 0x0 DUP1 PUSH1 0x0 DUP1 PUSH1 0x80 DUP6 DUP8 SUB SLT ISZERO PUSH2 0x536D JUMPI PUSH2 0x536C PUSH2 0x4330 JUMP JUMPDEST JUMPDEST PUSH1 0x0 PUSH2 0x537B DUP8 DUP3 DUP9 ADD PUSH2 0x4351 JUMP JUMPDEST SWAP5 POP POP PUSH1 0x20 PUSH2 0x538C DUP8 DUP3 DUP9 ADD PUSH2 0x4351 JUMP JUMPDEST SWAP4 POP POP PUSH1 0x40 PUSH2 0x539D DUP8 DUP3 DUP9 ADD PUSH2 0x4B2F JUMP JUMPDEST SWAP3 POP POP PUSH1 0x60 PUSH2 0x53AE DUP8 DUP3 DUP9 ADD PUSH2 0x4351 JUMP JUMPDEST SWAP2 POP POP SWAP3 SWAP6 SWAP2 SWAP5 POP SWAP3 POP JUMP JUMPDEST PUSH1 0x0 PUSH8 0xFFFFFFFFFFFFFFFF DUP3 GT ISZERO PUSH2 0x53D5 JUMPI PUSH2 0x53D4 PUSH2 0x4914 JUMP JUMPDEST JUMPDEST PUSH1 0x20 DUP3 MUL SWAP1 POP SWAP2 SWAP1 POP JUMP JUMPDEST PUSH1 0x0 PUSH2 0x53F3 PUSH2 0x53EE DUP5 PUSH2 0x53BA JUMP JUMPDEST PUSH2 0x4974 JUMP JUMPDEST SWAP1 POP DUP1 PUSH1 0x20 DUP5 MUL DUP4 ADD DUP6 DUP2 GT ISZERO PUSH2 0x540D JUMPI PUSH2 0x540C PUSH2 0x49B5 JUMP JUMPDEST JUMPDEST DUP4 JUMPDEST DUP2 DUP2 LT ISZERO PUSH2 0x5454 JUMPI DUP1 CALLDATALOAD PUSH8 0xFFFFFFFFFFFFFFFF DUP2 GT ISZERO PUSH2 0x5432 JUMPI PUSH2 0x5431 PUSH2 0x490F JUMP JUMPDEST JUMPDEST DUP1 DUP7 ADD PUSH2 0x543F DUP10 DUP3 PUSH2 0x4A41 JUMP JUMPDEST DUP6 MSTORE PUSH1 0x20 DUP6 ADD SWAP5 POP POP POP PUSH1 0x20 DUP2 ADD SWAP1 POP PUSH2 0x540F JUMP JUMPDEST POP POP POP SWAP4 SWAP3 POP POP POP JUMP JUMPDEST PUSH1 0x0 DUP3 PUSH1 0x1F DUP4 ADD SLT PUSH2 0x5473 JUMPI PUSH2 0x5472 PUSH2 0x490F JUMP JUMPDEST JUMPDEST PUSH1 0xC PUSH2 0x5480 DUP5 DUP3 DUP6 PUSH2 0x53E0 JUMP JUMPDEST SWAP2 POP POP SWAP3 SWAP2 POP POP JUMP JUMPDEST PUSH1 0x0 PUSH8 0xFFFFFFFFFFFFFFFF DUP3 GT ISZERO PUSH2 0x54A4 JUMPI PUSH2 0x54A3 PUSH2 0x4914 JUMP JUMPDEST JUMPDEST PUSH1 0x20 DUP3 MUL SWAP1 POP SWAP2 SWAP1 POP JUMP JUMPDEST PUSH1 0x0 PUSH2 0x54C2 PUSH2 0x54BD DUP5 PUSH2 0x5489 JUMP JUMPDEST PUSH2 0x4974 JUMP JUMPDEST SWAP1 POP DUP1 PUSH1 0x20 DUP5 MUL DUP4 ADD DUP6 DUP2 GT ISZERO PUSH2 0x54DC JUMPI PUSH2 0x54DB PUSH2 0x49B5 JUMP JUMPDEST JUMPDEST DUP4 JUMPDEST DUP2 DUP2 LT ISZERO PUSH2 0x5505 JUMPI DUP1 PUSH2 0x54F1 DUP9 DUP3 PUSH2 0x4351 JUMP JUMPDEST DUP5 MSTORE PUSH1 0x20 DUP5 ADD SWAP4 POP POP PUSH1 0x20 DUP2 ADD SWAP1 POP PUSH2 0x54DE JUMP JUMPDEST POP POP POP SWAP4 SWAP3 POP POP POP JUMP JUMPDEST PUSH1 0x0 DUP3 PUSH1 0x1F DUP4 ADD SLT PUSH2 0x5524 JUMPI PUSH2 0x5523 PUSH2 0x490F JUMP JUMPDEST JUMPDEST PUSH1 0x3 PUSH2 0x5531 DUP5 DUP3 DUP6 PUSH2 0x54AF JUMP JUMPDEST SWAP2 POP POP SWAP3 SWAP2 POP POP JUMP JUMPDEST PUSH1 0x0 DUP1 PUSH1 0x0 DUP1 PUSH1 0x0 PUSH1 0xE0 DUP7 DUP9 SUB SLT ISZERO PUSH2 0x5556 JUMPI PUSH2 0x5555 PUSH2 0x4330 JUMP JUMPDEST JUMPDEST PUSH1 0x0 DUP7 ADD CALLDATALOAD PUSH8 0xFFFFFFFFFFFFFFFF DUP2 GT ISZERO PUSH2 0x5574 JUMPI PUSH2 0x5573 PUSH2 0x4335 JUMP JUMPDEST JUMPDEST PUSH2 0x5580 DUP9 DUP3 DUP10 ADD PUSH2 0x545E JUMP JUMPDEST SWAP6 POP POP PUSH1 0x20 PUSH2 0x5591 DUP9 DUP3 DUP10 ADD PUSH2 0x550F JUMP JUMPDEST SWAP5 POP POP PUSH1 0x80 PUSH2 0x55A2 DUP9 DUP3 DUP10 ADD PUSH2 0x4B2F JUMP JUMPDEST SWAP4 POP POP PUSH1 0xA0 DUP7 ADD CALLDATALOAD PUSH8 0xFFFFFFFFFFFFFFFF DUP2 GT ISZERO PUSH2 0x55C3 JUMPI PUSH2 0x55C2 PUSH2 0x4335 JUMP JUMPDEST JUMPDEST PUSH2 0x55CF DUP9 DUP3 DUP10 ADD PUSH2 0x4BF7 JUMP JUMPDEST SWAP3 POP POP PUSH1 0xC0 DUP7 ADD CALLDATALOAD PUSH8 0xFFFFFFFFFFFFFFFF DUP2 GT ISZERO PUSH2 0x55F0 JUMPI PUSH2 0x55EF PUSH2 0x4335 JUMP JUMPDEST JUMPDEST PUSH2 0x55FC DUP9 DUP3 DUP10 ADD PUSH2 0x4A41 JUMP JUMPDEST SWAP2 POP POP SWAP3 SWAP6 POP SWAP3 SWAP6 SWAP1 SWAP4 POP JUMP JUMPDEST PUSH1 0x0 DUP1 PUSH1 0x0 DUP1 PUSH1 0x0 DUP1 PUSH1 0x0 DUP1 PUSH1 0x0 DUP1 PUSH2 0x140 DUP12 DUP14 SUB SLT ISZERO PUSH2 0x562D JUMPI PUSH2 0x562C PUSH2 0x4330 JUMP JUMPDEST JUMPDEST PUSH1 0x0 PUSH2 0x563B DUP14 DUP3 DUP15 ADD PUSH2 0x4351 JUMP JUMPDEST SWAP11 POP POP PUSH1 0x20 DUP12 ADD CALLDATALOAD PUSH8 0xFFFFFFFFFFFFFFFF DUP2 GT ISZERO PUSH2 0x565C JUMPI PUSH2 0x565B PUSH2 0x4335 JUMP JUMPDEST JUMPDEST PUSH2 0x5668 DUP14 DUP3 DUP15 ADD PUSH2 0x4AED JUMP JUMPDEST SWAP10 POP POP PUSH1 0x40 PUSH2 0x5679 DUP14 DUP3 DUP15 ADD PUSH2 0x4B2F JUMP JUMPDEST SWAP9 POP POP PUSH1 0x60 DUP12 ADD CALLDATALOAD PUSH8 0xFFFFFFFFFFFFFFFF DUP2 GT ISZERO PUSH2 0x569A JUMPI PUSH2 0x5699 PUSH2 0x4335 JUMP JUMPDEST JUMPDEST PUSH2 0x56A6 DUP14 DUP3 DUP15 ADD PUSH2 0x4BF7 JUMP JUMPDEST SWAP8 POP POP PUSH1 0x80 DUP12 ADD CALLDATALOAD PUSH8 0xFFFFFFFFFFFFFFFF DUP2 GT ISZERO PUSH2 0x56C7 JUMPI PUSH2 0x56C6 PUSH2 0x4335 JUMP JUMPDEST JUMPDEST PUSH2 0x56D3 DUP14 DUP3 DUP15 ADD PUSH2 0x4BF7 JUMP JUMPDEST SWAP7 POP POP PUSH1 0xA0 DUP12 ADD CALLDATALOAD PUSH8 0xFFFFFFFFFFFFFFFF DUP2 GT ISZERO PUSH2 0x56F4 JUMPI PUSH2 0x56F3 PUSH2 0x4335 JUMP JUMPDEST JUMPDEST PUSH2 0x5700 DUP14 DUP3 DUP15 ADD PUSH2 0x4BF7 JUMP JUMPDEST SWAP6 POP POP PUSH1 0xC0 DUP12 ADD CALLDATALOAD PUSH8 0xFFFFFFFFFFFFFFFF DUP2 GT ISZERO PUSH2 0x5721 JUMPI PUSH2 0x5720 PUSH2 0x4335 JUMP JUMPDEST JUMPDEST PUSH2 0x572D DUP14 DUP3 DUP15 ADD PUSH2 0x4CBA JUMP JUMPDEST SWAP5 POP POP PUSH1 0xE0 DUP12 ADD CALLDATALOAD PUSH8 0xFFFFFFFFFFFFFFFF DUP2 GT ISZERO PUSH2 0x574E JUMPI PUSH2 0x574D PUSH2 0x4335 JUMP JUMPDEST JUMPDEST PUSH2 0x575A DUP14 DUP3 DUP15 ADD PUSH2 0x4BF7 JUMP JUMPDEST SWAP4 POP POP PUSH2 0x100 DUP12 ADD CALLDATALOAD PUSH8 0xFFFFFFFFFFFFFFFF DUP2 GT ISZERO PUSH2 0x577C JUMPI PUSH2 0x577B PUSH2 0x4335 JUMP JUMPDEST JUMPDEST PUSH2 0x5788 DUP14 DUP3 DUP15 ADD PUSH2 0x4BF7 JUMP JUMPDEST SWAP3 POP POP PUSH2 0x120 DUP12 ADD CALLDATALOAD PUSH8 0xFFFFFFFFFFFFFFFF DUP2 GT ISZERO PUSH2 0x57AA JUMPI PUSH2 0x57A9 PUSH2 0x4335 JUMP JUMPDEST JUMPDEST PUSH2 0x57B6 DUP14 DUP3 DUP15 ADD PUSH2 0x4BF7 JUMP JUMPDEST SWAP2 POP POP SWAP3 SWAP6 SWAP9 SWAP12 SWAP2 SWAP5 SWAP8 SWAP11 POP SWAP3 SWAP6 SWAP9 POP JUMP JUMPDEST PUSH1 0x0 PUSH2 0x180 DUP4 ADD PUSH1 0x0 DUP4 ADD MLOAD DUP5 DUP3 SUB PUSH1 0x0 DUP7 ADD MSTORE PUSH2 0x57E6 DUP3 DUP3 PUSH2 0x3F0D JUMP JUMPDEST SWAP2 POP POP PUSH1 0x20 DUP4 ADD MLOAD PUSH2 0x57FB PUSH1 0x20 DUP7 ADD DUP3 PUSH2 0x3F8C JUMP JUMPDEST POP PUSH1 0x40 DUP4 ADD MLOAD PUSH2 0x580E PUSH1 0x40 DUP7 ADD DUP3 PUSH2 0x3F8C JUMP JUMPDEST POP PUSH1 0x60 DUP4 ADD MLOAD PUSH2 0x5821 PUSH1 0x60 DUP7 ADD DUP3 PUSH2 0x3FCD JUMP JUMPDEST POP PUSH1 0x80 DUP4 ADD MLOAD DUP5 DUP3 SUB PUSH1 0x80 DUP7 ADD MSTORE PUSH2 0x5839 DUP3 DUP3 PUSH2 0x4015 JUMP JUMPDEST SWAP2 POP POP PUSH1 0xA0 DUP4 ADD MLOAD DUP5 DUP3 SUB PUSH1 0xA0 DUP7 ADD MSTORE PUSH2 0x5853 DUP3 DUP3 PUSH2 0x4015 JUMP JUMPDEST SWAP2 POP POP PUSH1 0xC0 DUP4 ADD MLOAD DUP5 DUP3 SUB PUSH1 0xC0 DUP7 ADD MSTORE PUSH2 0x586D DUP3 DUP3 PUSH2 0x4015 JUMP JUMPDEST SWAP2 POP POP PUSH1 0xE0 DUP4 ADD MLOAD DUP5 DUP3 SUB PUSH1 0xE0 DUP7 ADD MSTORE PUSH2 0x5887 DUP3 DUP3 PUSH2 0x40DB JUMP JUMPDEST SWAP2 POP POP PUSH2 0x100 DUP4 ADD MLOAD DUP5 DUP3 SUB PUSH2 0x100 DUP7 ADD MSTORE PUSH2 0x58A3 DUP3 DUP3 PUSH2 0x4015 JUMP JUMPDEST SWAP2 POP POP PUSH2 0x120 DUP4 ADD MLOAD DUP5 DUP3 SUB PUSH2 0x120 DUP7 ADD MSTORE PUSH2 0x58BF DUP3 DUP3 PUSH2 0x4015 JUMP JUMPDEST SWAP2 POP POP PUSH2 0x140 DUP4 ADD MLOAD DUP5 DUP3 SUB PUSH2 0x140 DUP7 ADD MSTORE PUSH2 0x58DB DUP3 DUP3 PUSH2 0x4015 JUMP JUMPDEST SWAP2 POP POP PUSH2 0x160 DUP4 ADD MLOAD PUSH2 0x58F2 PUSH2 0x160 DUP7 ADD DUP3 PUSH2 0x3F8C JUMP JUMPDEST POP DUP1 SWAP2 POP POP SWAP3 SWAP2 POP POP JUMP JUMPDEST PUSH1 0x0 PUSH1 0x20 DUP3 ADD SWAP1 POP DUP2 DUP2 SUB PUSH1 0x0 DUP4 ADD MSTORE PUSH2 0x5917 DUP2 DUP5 PUSH2 0x57C8 JUMP JUMPDEST SWAP1 POP SWAP3 SWAP2 POP POP JUMP JUMPDEST PUSH32 0x4E487B7100000000000000000000000000000000000000000000000000000000 PUSH1 0x0 MSTORE PUSH1 0x22 PUSH1 0x4 MSTORE PUSH1 0x24 PUSH1 0x0 REVERT JUMPDEST PUSH1 0x0 PUSH1 0x2 DUP3 DIV SWAP1 POP PUSH1 0x1 DUP3 AND DUP1 PUSH2 0x5966 JUMPI PUSH1 0x7F DUP3 AND SWAP2 POP JUMPDEST PUSH1 0x20 DUP3 LT DUP2 EQ ISZERO PUSH2 0x597A JUMPI PUSH2 0x5979 PUSH2 0x591F JUMP JUMPDEST JUMPDEST POP SWAP2 SWAP1 POP JUMP JUMPDEST PUSH32 0x4E487B7100000000000000000000000000000000000000000000000000000000 PUSH1 0x0 MSTORE PUSH1 0x32 PUSH1 0x4 MSTORE PUSH1 0x24 PUSH1 0x0 REVERT JUMPDEST PUSH32 0x4E487B7100000000000000000000000000000000000000000000000000000000 PUSH1 0x0 MSTORE PUSH1 0x11 PUSH1 0x4 MSTORE PUSH1 0x24 PUSH1 0x0 REVERT JUMPDEST PUSH1 0x0 PUSH2 0x59E9 DUP3 PUSH2 0x3F82 JUMP JUMPDEST SWAP2 POP PUSH32 0xFFFFFFFFFFFFFFFFFFFFFFFFFFFFFFFFFFFFFFFFFFFFFFFFFFFFFFFFFFFFFFFF DUP3 EQ ISZERO PUSH2 0x5A1C JUMPI PUSH2 0x5A1B PUSH2 0x59AF JUMP JUMPDEST JUMPDEST PUSH1 0x1 DUP3 ADD SWAP1 POP SWAP2 SWAP1 POP JUMP JUMPDEST PUSH1 0x0 PUSH2 0x5A32 DUP3 PUSH2 0x3F82 JUMP JUMPDEST SWAP2 POP PUSH2 0x5A3D DUP4 PUSH2 0x3F82 JUMP JUMPDEST SWAP3 POP DUP3 PUSH32 0xFFFFFFFFFFFFFFFFFFFFFFFFFFFFFFFFFFFFFFFFFFFFFFFFFFFFFFFFFFFFFFFF SUB DUP3 GT ISZERO PUSH2 0x5A72 JUMPI PUSH2 0x5A71 PUSH2 0x59AF JUMP JUMPDEST JUMPDEST DUP3 DUP3 ADD SWAP1 POP SWAP3 SWAP2 POP POP JUMP JUMPDEST PUSH1 0x0 PUSH2 0x5A88 DUP3 PUSH2 0x3F82 JUMP JUMPDEST SWAP2 POP PUSH2 0x5A93 DUP4 PUSH2 0x3F82 JUMP JUMPDEST SWAP3 POP DUP3 DUP3 LT ISZERO PUSH2 0x5AA6 JUMPI PUSH2 0x5AA5 PUSH2 0x59AF JUMP JUMPDEST JUMPDEST DUP3 DUP3 SUB SWAP1 POP SWAP3 SWAP2 POP POP JUMP JUMPDEST PUSH32 0x54686520646561646C696E652073686F756C642062652061206461746520696E PUSH1 0x0 DUP3 ADD MSTORE PUSH32 0x20746865206675747572652E0000000000000000000000000000000000000000 PUSH1 0x20 DUP3 ADD MSTORE POP JUMP JUMPDEST PUSH1 0x0 PUSH2 0x5B0D PUSH1 0x2C DUP4 PUSH2 0x4393 JUMP JUMPDEST SWAP2 POP PUSH2 0x5B18 DUP3 PUSH2 0x5AB1 JUMP JUMPDEST PUSH1 0x40 DUP3 ADD SWAP1 POP SWAP2 SWAP1 POP JUMP JUMPDEST PUSH1 0x0 PUSH1 0x20 DUP3 ADD SWAP1 POP DUP2 DUP2 SUB PUSH1 0x0 DUP4 ADD MSTORE PUSH2 0x5B3C DUP2 PUSH2 0x5B00 JUMP JUMPDEST SWAP1 POP SWAP2 SWAP1 POP JUMP INVALID LOG2 PUSH5 0x6970667358 0x22 SLT KECCAK256 0x2B BLOCKHASH 0xEB MOD GASLIMIT 0xA9 0x29 PUSH14 0x962612002E19B69A2D1C30E52351 STOP EXTCODECOPY STATICCALL 0xC5 DIFFICULTY CODECOPY 0xB5 NUMBER PUSH23 0x4C64736F6C634300080A00330000000000000000000000 "},"methodIdentifiers":{"addBid(uint256,string,uint256,uint256,uint256,uint256,string,string)":"9764713b","bids(uint256)":"4423c5f1","createJob(string[12],uint256[3],address,string[],string)":"e3e82242","createProfile(string[10],address,string[],string[],string[],uint256[],string[],string[],string[])":"30327170","experiences(uint256)":"cf3e7c7c","final_select(uint256,uint256,uint256)":"d36ec816","getAJob(uint256)":"1b5553b7","getAllProfiles()":"0b1fe784","getBalance()":"12065fe0","getJobs()":"68581ebd","getProfile(uint256)":"f08f4f64","jobs(uint256)":"180aedf3","makeAsk(uint256,string)":"db65657c","makeResponse(uint256,uint256,address,uint256)":"ddfb31c7","numberOfBids()":"17d531fc","numberOfExperiences()":"da35b860","numberOfJobs()":"ce87ce1f","numberOfProfiles()":"30607a94","numberOfProjects()":"db5e4c7f","profiles(uint256)":"c36fe3d6","projects(uint256)":"107046bd","rate(uint256,uint256)":"43bebfbf","updateProfile(uint256,string[10],address,string[],string[],string[],uint256[],string[],string[],string[])":"edd25ab4"}}}}}